:020000040800F2
:10000000000002203D320008B9310008BB31000871
:10001000BD310008BF310008C131000800000000F8
:10002000000000000000000000000000C3310008D4
:10003000C531000800000000C7310008C9310008C0
:100040008D3200088D3200088D3200088D32000894
:100050008D3200088D3200088D3200088D32000884
:100060008D3200088D3200088D3200088D32000874
:100070008D3200088D3200088D3200088D32000864
:100080008D3200088D3200088D3200088D32000854
:100090008D3200088D3200088D3200088D32000844
:1000A0008D3200088D3200088D3200088D32000834
:1000B0008D3200088D3200088D320008D1310008E1
:1000C000E13100088D3200088D3200088D320008C1
:1000D0008D3200088D3200088D3200088D32000804
:1000E0008D3200088D3200088D3200088D320008F4
:1000F0008D3200088D3200088D3200088D320008E4
:100100008D3200088D3200088D3200088D320008D3
:100110008D3200088D3200088D3200088D320008C3
:100120008D3200088D3200088D3200088D320008B3
:100130008D3200088D3200088D3200088D320008A3
:100140008D3200088D3200088D3200088D32000893
:100150008D3200088D3200088D3200088D32000883
:100160008D3200088D3200088D3200088D32000873
:100170008D3200088D3200088D320008000000002A
:080180008D3200088D320008E9
:1001900010B5054C237833B9044B13B10448AFF3C1
:1001A00000800123237010BD7000002000000000BB
:1001B000103B000808B5034B1BB103490348AFF3DC
:1001C000008008BD0000000074000020103B000803
:1001D00053B94AB9002908BF00281CBF4FF0FF31AE
:1001E0004FF0FF3000F072B9ADF1080C6DE904CEAC
:1001F00000F006F8DDF804E0DDE9022304B0704702
:100200002DE9F047089E04468846002B4BD18A42D0
:10021000154667D9B2FA82F24AB1C2F1200701FA53
:1002200002F320FA07F7954047EA030894404FEAA3
:10023000154E230CB8FBFEF71FFA85FC0EFB178842
:1002400043EA084307FB0CF1994209D9EB1807F17F
:10025000FF3080F01B81994240F21881023F2B440D
:100260005B1AA4B2B3FBFEF00EFB103344EA034466
:1002700000FB0CFCA44509D92C1900F1FF3380F0D8
:100280000781A44540F2048102382C4440EA07402B
:10029000A4EB0C0400271EB1D4400023C6E90043A0
:1002A0003946BDE8F0878B4209D9002E00F0EB807B
:1002B0000027C6E9000138463946BDE8F087B3FAA1
:1002C00083F7002F47D18B4202D3824200F2FA809B
:1002D000841A61EB030301209846002EE0D0C6E9A2
:1002E0000048DDE702B9FFDEB2FA82F2002A40F0F0
:1002F0008F80491B4FEA154E1FFA85F80127B1FB85
:10030000FEFC230C0EFB1C1143EA014308FB0CF11D
:10031000994207D9EB180CF1FF3002D2994200F252
:10032000CD808446591AA3B2B1FBFEF00EFB101427
:1003300043EA044408FB00F8A04507D92C1900F152
:10034000FF3302D2A04500F2B6801846A4EB0804A1
:1003500040EA0C409FE7C7F1200CBB4022FA0CFE9C
:100360004EEA030E01FA07F420FA0CF521FA0CF319
:100370004FEA1E482543B3FBF8F92C0C08FB193350
:100380001FFA8EFA44EA034309FB0AF49C4202FA7C
:1003900007F200FA07F10BD91EEB030309F1FF3056
:1003A00080F087809C4240F28480A9F10209734466
:1003B0001B1BADB2B3FBF8F008FB103345EA034456
:1003C00000FB0AFAA24508D91EEB040400F1FF3332
:1003D0006BD2A24569D90238744440EA0940A0FBB7
:1003E0000289A4EB0A044C45C2464B4654D351D073
:1003F000002E69D0B1EB0A0564EB030404FA0CFC8F
:10040000FD40FC404CEA0505C6E90054002747E7DB
:10041000C2F1200320FA03F7954001FA02F021FA15
:1004200003F34FEA154E3843010CB3FBFEF71FFAF6
:1004300085F80EFB173341EA034107FB08F38B42B3
:1004400004FA02F407D9691807F1FF3C2FD28B4256
:100450002DD9023F2944CB1A81B2B3FBFEF00EFB2B
:10046000103341EA034100FB08F38B4207D96918B6
:1004700000F1FF3C17D28B4215D902382944C91A22
:1004800040EA07473BE73746304609E70746E7E6D5
:100490001846FBE64145ABD2B8EB020A69EB0E0207
:1004A00001381346A4E76046E9E7184695E7674632
:1004B000D1E781467CE702382C4447E7ACF1020CD7
:1004C0002B442FE7384608E73746E9E6704700BF78
:1004D00001F0FF01102A2BDB10F0070F08D010F8F5
:1004E000013B013A8B422DD010F0070F42B3F6D1F9
:1004F000F0B441EA012141EA014122F007047FF012
:1005000000070023F0E80256083C85EA010586EA68
:10051000010685FA47F5A3FA87F586FA47F6A5FAA4
:1005200087F68EB9EED1F0BC01F0FF0102F00702B0
:1005300032B110F8013B013A83EA010313B1F8D15B
:100540000020704701387047002D06BF354603383C
:10055000073815F0010F07D1013015F4807F02BF75
:10056000013015F4C03F0130F0BC0138704700BFC6
:1005700010B504460E4B18784FF47A73B3FBF0F3C2
:100580000C4A1068B0FBF3F000F0A8F868B90F2C23
:1005900001D901200AE0002221464FF0FF3000F08F
:1005A0005DF8034B5C60002000E0012010BD00BF3F
:1005B000000000200800002008B50B4B1A6842F428
:1005C00000721A601A6842F480621A601A6842F473
:1005D00080721A60032000F02FF80020FFF7C8FF98
:1005E00002F04AFD002008BD003C0240034A1168A9
:1005F000034B1B780B441360704700BF980000202A
:1006000000000020014B1868704700BF98000020D0
:1006100038B50446FFF7F6FF0546B4F1FF3F02D0B8
:10062000044B1B781C44FFF7EDFF401BA042FAD39C
:1006300038BD00BF00000020074AD36823F4E06300
:100640001B041B0C000200F4E060184340F0BF6084
:1006500040F40030D060704700ED00E030B4174B3C
:10066000DB68C3F30223C3F10704042C28BF04246E
:100670001D1D062D18D9033B4FF0FF3505FA04F474
:1006800021EA0401994005FA03F322EA030319431E
:1006900000280BDB0901C9B200F1604000F56140A0
:1006A00080F8001330BC70470023E5E700F00F002E
:1006B0000901C9B2024B1954F4E700BF00ED00E094
:1006C00014ED00E000F01F02400901239340024AAC
:1006D00042F82030704700BF00E100E00138B0F17F
:1006E000807F0AD2064B5860064AF02182F8231018
:1006F0000020986007221A6070470120704700BFF1
:1007000010E000E000ED00E090F83530DBB2022BA5
:1007100003D08023436501207047052380F83530DE
:100720000268136823F00103136000207047000083
:1007300000230F2B00F2D780F0B482B039E00722FB
:1007400000E00022B2403A430234674E46F82420CB
:10075000664A1468EA4302EA04064F6817F4803FC9
:1007600001D045EA0406614C2660646802EA04068A
:100770004F6817F4003F01D045EA04065B4C666001
:10078000A46802EA04064F6817F4801F01D045EA06
:100790000406564CA660E46822404E6816F4001F1A
:1007A00001D045EA0402514CE26001330F2B00F204
:1007B000978001229A400C6804EA0205AA42F4D10B
:1007C0004C68022C01D0122C10D1DE08083650F8EB
:1007D00026C003F00704A7000F24BC402CEA040C39
:1007E0000C69BC4044EA0C0440F8264004685F00F1
:1007F0000326BE40F64306EA040C4C6804F00304EA
:10080000BC4044EA0C0404604C6804F1FF3CBCF1B9
:10081000010F03D9112C01D0122C10D1846806EAE3
:10082000040CCC68BC4044EA0C048460446824EAAC
:1008300002024C68C4F300149C4014434460C26834
:1008400016408A68BA403243C2604A6812F0805F3C
:10085000ABD000220192264A546C44F48044546484
:10086000526C02F480420192019A9C08A61C1E4A16
:1008700052F8267003F0030296000F22B24027EAD6
:1008800002071C4A90423FF45CAF02F5806290423E
:100890001AD002F58062904218D002F58062904230
:1008A00016D002F58062904214D002F58062904228
:1008B00012D002F58062904210D002F58062904220
:1008C0003FF43DAF08223DE701223BE7022239E732
:1008D000032237E7042235E7052233E7062231E712
:1008E00002B0F0BC7047704700380140003C014046
:1008F000003802400000024012B9090481617047CB
:100900008161704790F83E30DBB2402B13D0036911
:10091000B3F5804F1ED0036D002B2DD0036D012B3E
:1009200033D1436CC3F3C813026803F0060343F0EA
:10093000F103136129E0036D2BB9436C026803F0E6
:10094000FE03136121E0436C026843F00103DBB254
:1009500013611AE090F83D30DBB2212B06D0436CD6
:10096000026843F00103DBB213610EE0436C0268DE
:1009700003F0FE03136108E0436CC3F3C81302687D
:1009800003F0060343F0F003136100207047436C4B
:100990000268DBB213610020704710B48BB090F88E
:1009A0003E30DAB2C16A046B90F83D30DBB2222BE4
:1009B0000CD00023099303685A6909929B69099333
:1009C000099B00200BB05DF8044B7047036D0BB919
:1009D000402A17D0036D1BB90369B3F5404F19D0F6
:1009E000438D9BB2002B25D1029303685A69029272
:1009F0009A690292029A1A6842F400721A600023FD
:100A00000365DEE7009303685A6900929B690093CF
:100A1000009BD6E70023019303685A6901929A6903
:100A20000192019A1A6842F480721A60036D0133D0
:100A30000365C6E7438D9BB2012B1AD0438D9BB251
:100A4000022B6BD00268136843F480631360036861
:100A50005A6812F4006F03D05A6842F480525A6008
:100A60000023089303685A6908929B690893089BBE
:100A7000C5E711F5803F16D004293DD008293BD0A9
:100A8000122C39D0C36A022B30D00268136823F4C9
:100A9000806313600023059303685A6905929B697C
:100AA0000593059BABE70268136823F4806313602A
:100AB00003685A6812F4006F0CD01A6822F480623E
:100AC0001A600023039303685A6903929B69039396
:100AD000039B94E7002204925A6904929A69049253
:100AE000049A1A6842F400721A6088E70268136870
:100AF00043F480631360CDE70268136823F48063D6
:100B000013600023069303685A6906929A69069255
:100B1000069A1A6842F400721A6070E7C36A022BE0
:100B20001BD00268136823F48063136002681368A3
:100B300043F40063136003685A6812F4006F03D033
:100B40005A6842F480525A600023079303685A6936
:100B500007929B690793079B51E70268136843F468
:100B600080631360E7E7438D9BB24BB1436A5A1C25
:100B7000426202681B781361438D013B9BB243853F
:100B800000207047438D9BB24BB103681A69436ADA
:100B9000591C41621A70438D013B9BB24385002072
:100BA000704703685A6912F4806F0DD06FF4806249
:100BB0005A610423036400230363202280F83D204C
:100BC00080F83C300120704700207047F8B5064699
:100BD0000C4617461D461EE02DB1FFF713FD069B80
:100BE000C01AA84217D900233363202286F83D207B
:100BF00086F83E3086F83C3003201AE033685B69A3
:100C000024EA03039BB2B3FA83F35B099F420FD13B
:100C1000B5F1FF3FE0D1C4F30743012BEED03368B9
:100C20009B6924EA03039BB2B3FA83F35B09EDE704
:100C30000020F8BDF8B504460D4616461F4632E0C2
:100C40001A6842F400721A6023686FF480625A6175
:100C50000423236400232363202284F83D2084F8A6
:100C60003C3001202DE026B1FFF7CCFCC01BB04288
:100C700019D900232363202284F83D2084F83C30D6
:100C800003201EE023685B6925EA03039BB200335F
:100C900018BF0123A3B123685A6912F4806FCFD122
:100CA000B6F1FF3FDFD1C5F30743012BEAD023683C
:100CB0009B6925EA03039BB2003318BF0123E9E7D0
:100CC0000020F8BDF0B583B004460D4616461F4619
:100CD000C36A042B0DD0012B0BD013F5803F08D035
:100CE000036B122B0AD10268136843F480731360FC
:100CF00004E02268136843F480731360009733465E
:100D000000224FF001112046FFF760FF58BB236916
:100D1000B3F5804F10D1236805F0FE051D613B46F9
:100D2000324615492046FFF785FF0346E0B1236CA4
:100D3000042B1ED1012317E0EB11226803F00603F8
:100D400043F0F00313613B4632460C492046FFF75F
:100D500071FF20B1236C042B09D1012304E0236827
:100D6000EDB21D61DBE70323184603B0F0BD03239A
:100D7000FAE70323F8E700BF0200010008000100C2
:100D80002DE9F04184B004460D4616461F46C26A5E
:100D900001680B6843F480630B60042A0DD0012ABC
:100DA0000BD012F5803F08D0036B112B0AD10268DB
:100DB000136843F48073136004E02268136843F4FB
:100DC000807313600097334600224FF001112046D4
:100DD000FFF7FCFE002852D12369B3F5804F12D1F2
:100DE000236845F00105EDB21D613B4632462A49B4
:100DF0002046FFF71FFF0346002841D0236C042B39
:100E000048D101233CE04FEAE51808F006082368C2
:100E100048F0F0021A613B46324620492046FFF76F
:100E200009FF20B1236C042B2ED1012328E0236875
:100E3000EDB21D613B46324617492046FFF7FAFEE8
:100E400020B1236C042B21D1012319E0002203924D
:100E5000236859690391996903910399196841F4C9
:100E600080711960009733464FF001112046FFF75B
:100E7000ADFE68B9226848F0F1031361B5E70323BA
:100E8000184604B0BDE8F0810323F9E70323F7E730
:100E90000323F5E70323F3E7020001000800010044
:100EA00070B504460D46164623685B6913F0800F43
:100EB00019D12046FFF775FEB8B9B5F1FF3FF3D061
:100EC00025B1FFF79FFB801BA842EDD9236C43F0AF
:100ED0002003236400232363202284F83D2084F828
:100EE0003C30032000E0002070BD0120FCE770B51D
:100EF00004460D46164623685B6913F0040F19D1AA
:100F00002046FFF74EFEB8B9B5F1FF3FF3D025B14B
:100F1000FFF778FB801BA842EDD9236C43F0200338
:100F2000236400232363202284F83D2084F83C308E
:100F3000032000E0002070BD0120FCE770B50546ED
:100F40000C4616462B685A6912F0400F22D15A6996
:100F500012F0100F11D124B1FFF754FB801BA042F7
:100F6000F0D92B6C43F020032B64202385F83D300F
:100F7000002385F83C30032070BD6FF010025A61E9
:100F800000232B642B63202285F83D2085F83C301C
:100F90000120F1E70020EFE7002800F0828010B583
:100FA000044690F83D30002B41D0242384F83D3096
:100FB0002268136823F00103136001F085FA3A4BAD
:100FC000A3FB00239B0C226853606168374A91425F
:100FD00032D80133226813626368344A934235D8A9
:100FE0005B00B0FBF3F0C0F30B03032B00D804202D
:100FF0002368D861E369216A22680B43136023697F
:10100000E16822680B4393606369A16922680B431E
:10101000D3602268136843F001031360002020644A
:10102000202384F83D30206384F83E0010BD80F812
:101030003C3002F03DF8B8E74FF4967202FB03F340
:101040001B4AA2FB03239B090133C3E7A16889B9AB
:1010500003EB4302B0FBF2F2C2F30B02B2FA82F2EC
:101060005209E2B991B903EB4303B0FBF3F040F44A
:101070000040BDE703EB830202EB8202B0FBF2F219
:10108000C2F30B02B2FA82F25209EAE703EB8303DE
:1010900003EB8303B0FBF3F040F44040A8E70120EA
:1010A000A6E70120704700BF83DE1B43A086010036
:1010B000D34D62102DE9F04184B004460E469046AF
:1010C0001F46FFF79FFA94F83D30DBB2202B04D087
:1010D0000226304604B0BDE8F08105460090192391
:1010E000012254492046FFF771FD002840F0998005
:1010F00094F83C30012B00F09680012384F83C30BA
:1011000023681A6812F0010F03D11A6842F0010235
:101110001A602268136823F400631360212384F8A3
:101120003D30102384F83E3000232364C4F824802B
:101130006785A3F58033E362638D23852B460A9A86
:1011400031462046FFF7BEFD064660B1236C042BF6
:1011500004D1002384F83C300126BAE7002384F848
:101160003C300326B5E70023039323685A690392B2
:101170009B690393039B10E0236C042B55D12268D9
:10118000136843F4007313600126A2E72A460A9904
:101190002046FFF7ACFE00282BD1238D002B32D048
:1011A0002A460A992046FFF77BFE0028E4D1636AAD
:1011B0005A1C626222681B781361638D013B9BB2EB
:1011C0006385238D013B9BB223852268516911F011
:1011D000040FDBD0002BD9D0636A591C61621B78E5
:1011E0001361638D013B9BB26385238D013B238596
:1011F000CCE7236C042B1AD12268136843F40073E4
:101200001360012665E72268136843F400731360D6
:10121000202384F83D30002384F83E3084F83C30AD
:1012200057E7022655E7022653E7032651E7032630
:101230004FE700BF020010002DE9F04186B00446E0
:101240000E4690461F46FFF7DDF994F83D30DBB2BD
:10125000202B04D00226304606B0BDE8F0810546BA
:101260000090192301228C492046FFF7AFFC00288B
:1012700040F04B8194F83C30012B00F04881012371
:1012800084F83C3023681A6812F0010F03D11A6801
:1012900042F001021A602268136823F400631360AD
:1012A000222384F83D30102384F83E300023236449
:1012B000C4F824806785A3F58033E362638D2385BA
:1012C0002B460C9A31462046FFF75AFD064660B180
:1012D000236C042B04D1002384F83C300126BAE7A8
:1012E000002384F83C300326B5E7238D5BB90293D5
:1012F00023685A6902929A690292029A1A6842F421
:1013000000721A607AE0012B0FD0022B1FD02268E6
:10131000136843F4806313600023059323685A69BC
:1013200005929B690593059B68E02268136823F486
:10133000806313600023039323685A6903929A69B8
:101340000392039A1A6842F400721A6056E0226807
:10135000136823F4806313602268136843F4006306
:1013600013600023049323685A6904929B690493D1
:10137000049B43E02A460C992046FFF7DFFD68B93D
:1013800023681A69636A591C61621A70238D013BD4
:101390002385638D013B9BB263852FE0236C202B5B
:1013A00001D0012657E7032655E700950C9B002244
:1013B0003A492046FFF70AFC002840F0AA8022683C
:1013C000136843F40073136023681A69636A591C35
:1013D00061621A70238D013B2385638D013B9BB2B3
:1013E000638523681A69636A591C61621A70238DC8
:1013F000013B2385638D013B9BB26385238D002BCD
:101400007AD0032B4CD8012BB4D0022BCDD0009531
:101410000C9B002221492046FFF7D8FB00287AD1F7
:101420002268136823F48063136023681A69636A6F
:10143000591C61621A70238D013B2385638D013B2A
:101440009BB2638500950C9B002214492046FFF750
:10145000BDFB002861D12268136843F40073136058
:1014600023681A69636A591C61621A70238D013BF3
:101470002385638D013B9BB2638523681A69636A88
:10148000591C61621A70238D013B2385638D013BDA
:101490009BB26385B2E700BF0200100004000100A8
:1014A0002A460C992046FFF749FDF0B923681A69CE
:1014B000636A591C61621A70238D013B2385638D19
:1014C000013B9BB2638523685A6912F0040F95D0E3
:1014D0001A69636A591C61621A70238D013B238566
:1014E000638D013B9BB2638588E7236C202B01D081
:1014F0000126B0E60326AEE6202384F83D30002323
:1015000084F83E3084F83C30A5E60226A3E60226A5
:10151000A1E603269FE603269DE603269BE600BF81
:1015200070477047704708B590F83D30DAB2438D88
:101530009BB273B1436A591C416201681B780B610D
:10154000438D013B9BB24385438D9BB20BB9292A46
:1015500001D0002008BD0268536823F48063536003
:1015600021230363282380F83D30FFF7DBFFF0E7FA
:10157000704790F83D30DAB2438D9BB2F3B110B5AD
:1015800003681969436A5C1C44621970438D013B0E
:101590009BB24385438D9BB20BB92A2A01D0002010
:1015A00010BD0268536823F48063536022230363F1
:1015B000282380F83D30FFF7DBFFF0E7002070477D
:1015C000704708B503689A6912F0040F09D000212A
:1015D0009B6913F0800F06D0028BFFF7F1FF00200C
:1015E00008BD0121F4E78289F7E7704708B590F854
:1015F0003D30DBB2C26A042A01D0082A01D1282B6F
:1016000007D0212B1FD003686FF480625A6100203D
:1016100008BD1A4BC3620268536823F4E063536049
:1016200003686FF480625A610268136823F4806370
:10163000136000230363202280F83D2080F83E30B1
:10164000FFF7D3FFE3E70D4BC3622123036320239E
:1016500080F83D30002380F83E300268536823F460
:10166000E063536003686FF480625A610268136834
:1016700023F480631360FFF755FFC8E70000FFFF06
:10168000704710B590F83D30DBB290F83E20D2B2F2
:10169000C46A018D09B9212B05D0212B3CD0402AE9
:1016A00038D0002010BD042C04D0082C02D014F532
:1016B000803F19D10268536823F4E06353600268E5
:1016C000136843F40073136000230363202380F83E
:1016D0003D3090F83E30DBB2402B15D0002380F82F
:1016E0003E30FFF71DFFDCE70268536823F4E06338
:1016F000536011230363002380F83E30202380F8D9
:101700003D30FFF70DFFCCE7002380F83E30FFF7B8
:10171000B7FFC6E7222BC4D1438D9BB27BB190F8B3
:101720003E30DBB2402B10D0436A5A1C4262026842
:101730001B781361438D013B9BB24385B1E702687F
:10174000536823F480635360ABE7036D9BB9C36CAC
:10175000012B08D0836CC3F3072302681361036D68
:10176000013303659DE7836C0268DBB21361036D8F
:101770000233036595E7036D012B17D0036D022B30
:101780008FD190F83D30DBB2222B17D090F83D304E
:10179000DBB2212B85D1436A5A1C426202681B7856
:1017A0001361438D013B9BB243857AE7836C0268EA
:1017B000DBB21361036D0133036572E702681368DE
:1017C00043F4807313606CE708B5C26A90F83D304B
:1017D000DBB2212B01D0002008BD438D9BB203BB9F
:1017E000042A04D0082A02D012F5803F24D10268CE
:1017F000536823F4E06353600268136843F4007392
:10180000136000230363202380F83D3090F83E30BE
:10181000DBB2402B20D0002380F83E30FFF780FE63
:10182000D9E7436A5A1C426202681B781361438DF0
:10183000013B9BB24385CEE70268536823F4E06323
:10184000536011230363002380F83E30202380F887
:101850003D30FFF765FEBEE7002380F83E30FFF71E
:101860000FFFB8E7704708B590F83D30DBB2222B88
:1018700001D0002008BD438D9BB2032B13D9036810
:101880001A69436A591C41621A70438D013B9BB22D
:101890004385438D9BB2032BEBD10268536823F43D
:1018A00080635360E5E7012BE3D80268136823F4F3
:1018B000806313600268536823F4E0635360036835
:1018C0001A69436A591C41621A70438D013B9BB2ED
:1018D0004385202380F83D300023036390F83E3099
:1018E000DBB2402B05D0002380F83E30FFF719FE15
:1018F000BFE7002380F83E30FFF7B4FFB9E708B533
:10190000C26A438D9BB2042B13D0438D9BB2032B31
:101910001FD0438D9BB2022B30D003681A69436AF3
:10192000591C41621A70438D013B9BB243850020D4
:1019300008BD0268536823F48063536003681A6922
:10194000436A591C41621A70438D013B9BB2438527
:10195000EDE70268536823F48063536002681368FC
:1019600023F48063136003681A69436A591C416257
:101970001A70438D013B9BB24385D8E7013A012A97
:101980002DD90268136843F40073136003681A6961
:10199000436A591C41621A70438D013B9BB24385D7
:1019A00003681A69436A591C41621A70438D013BEE
:1019B0009BB243850268536823F44073536020232D
:1019C00080F83D300023036390F83E30DBB2402BBB
:1019D00010D0002380F83E30FFF7A3FDA7E7026890
:1019E000136823F4806313600268136843F4807300
:1019F0001360CBE7002380F83E30FFF733FF96E714
:101A00007047704710B5044690F83D30293B012BD4
:101A100037D990F83D30DBB2602B07D003685B68A4
:101A200013F4006F02D1202380F83D30002323639C
:101A300084F83E302268136823F40063136023683F
:101A40005A6812F4006F3FD05A6822F400625A605C
:101A5000626B92F83530DBB2012B18D03A4B13652C
:101A6000606BFEF751FE00283FD02268136823F018
:101A700001031360202384F83D30606B036D9847A9
:101A800033E000230363282380F83D30D2E7A36BC3
:101A90002D4A1A65A06BFEF737FE30B323685A69EA
:101AA00012F0400F04D01A69636A591C61621A70FF
:101AB0002268136823F001031360202384F83D306B
:101AC000A06B036D984710E094F83D20D2B2602AD5
:101AD00011D05A6912F0400F04D01A69636A591C78
:101AE00061621A702046FFF78BFF94F83D30DBB23D
:101AF000282B17D010BD202284F83D20002222641C
:101B00005A6912F0400F04D01A69636A591C616265
:101B10001A702268136823F0010313602046FFF750
:101B200070FFE2E7236C13F0040FE3D0074BE3628E
:101B300000232363202284F83D2084F83E30204691
:101B4000FFF753FDD6E700BF8D1E00080000FFFF22
:101B500010B582B090F83D30DBB201684A6822F4DB
:101B6000E0624A60002201920268516901911168A5
:101B700041F001011160019A01680A6822F4806253
:101B80000A6001684A6812F4006F14D090F83D2092
:101B9000D2B2222A0AD090F83D20D2B22A2A05D009
:101BA000426B1268526892B2428504E0826B1268FE
:101BB000526892B24285428D92B2F2B14A6912F0F5
:101BC000040F08D00969426A541C44621170428DA6
:101BD000013A92B242850268516911F0400F08D073
:101BE0001169426A541C44621170428D013A92B2EA
:101BF0004285026C42F004020264026CA2B9282BF6
:101C000015D02A2B13D0292B11D0026B222A01D0F8
:101C1000222B17D100230363202280F83D2080F877
:101C20003E30FFF7A5FC0DE0FFF7ECFE0AE0074BA6
:101C3000C36200230363202280F83D2080F83E30F9
:101C4000FFF7D3FC002002B010BD00BF0000FFFF73
:101C5000F8B5054603689F695C695E6890F83E3098
:101C6000DBB2102B25D0402B23D04C4B234013B19B
:101C700016F4007F6ED14A4B234013B116F4007F57
:101C80006BD1484B3B40002B6FD0474B234033B1C7
:101C900016F4806F03D0454B2340002B61D0434B9B
:101CA000234053B316F4007F27D02846FEF75BFF8E
:101CB00023E014F0011F02D016F4007F1ED13C4B2C
:101CC000234013B116F4007F1CD1344B234013B1D1
:101CD00016F4007F1AD1334B3B401BB3324B2340E9
:101CE0002BB116F4806F02D0304B234093B12F4BB1
:101CF000234013B116F4007F10D1F8BD2846FEF73B
:101D000001FEE8E72846FEF742FEE4E72846FEF734
:101D100044FEE0E72846FFF7B4FCEEE72846FFF76D
:101D200053FDEAE7234B23402BB116F4806F02D01A
:101D30001E4B234053B11D4B2340002BDDD016F426
:101D4000007FDAD02846FFF7DAFDD6E72846FFF70E
:101D50008AFDD2E7FFF735FCCFE72846FFF7F8FE0C
:101D6000CBE72846FFF7DFFBC7E7124B23402BB139
:101D700016F4806F02D00D4B234053B10B4B234020
:101D8000002BBAD016F4007FB7D02846FEF7FAFE33
:101D9000B3E72846FFF7EDFBAFE700BF0200010005
:101DA0001000010004001000800001000400010088
:101DB000080001004000010070B5044603685D6939
:101DC0005E68314A154209D016F4807F06D0026C55
:101DD00042F0010202646FF480725A6115F4813F8F
:101DE0000AD016F4807F07D0236C43F002032364EB
:101DF00023686FF400725A6115F4823F1AD016F40A
:101E0000807F17D094F83E30DBB2628D91B294F8A7
:101E10003D20D2B2206B202B1DD0236C43F0040355
:101E2000236494F83E30DBB2102B22D023686FF489
:101E300080625A6115F4843F0AD016F4807F07D07F
:101E4000236C43F00803236423686FF400625A6133
:101E5000236CA3B970BD0029DFD1212A05D0292A1E
:101E600003D0282AD9D12128D7D12046FFF7BEFB9D
:101E7000E0E72268136843F400731360D6E7204656
:101E8000FFF7C0FDE6E700BF0001010008B5806B69
:101E90000268136823F48063136000234385426B58
:101EA0001365826B136590F83D30DBB2602B0DD06B
:101EB000202380F83D30002380F83E30026813680C
:101EC00023F001031360FFF79BFD08BD202380F87A
:101ED0003D30002380F83E3003640268136823F02D
:101EE00001031360FFF78DFDEFE790F83D007047A9
:101EF000006C7047002800F0BB8170B582B00446CA
:101F0000036813F0010F3BD0A74B9B6803F00C0351
:101F1000042B2CD0A44B9B6803F00C03082B21D07E
:101F20006368B3F5803F4FD0B3F5A02F52D09E4BDE
:101F30001A6822F480321A601A6822F480221A6029
:101F40006368002B50D0FEF75DFB0546964B1B687F
:101F500013F4003F14D1FEF755FB401B6428F5D95C
:101F600003208AE1904B5B6813F4800FD8D08E4B2E
:101F70001B6813F4003F03D06368002B00F07A81E4
:101F8000236813F0020F55D0874B9B6813F00C0F9A
:101F90003ED0854B9B6803F00C03082B33D0E368DD
:101FA000002B68D0814B01221A60FEF72BFB0546FF
:101FB0007D4B1B6813F0020F54D1FEF723FB401B2F
:101FC0000228F5D9032058E1774A136843F4803397
:101FD0001360B5E7744B1A6842F480221A601A68DD
:101FE00042F480321A60ABE7FEF70CFB05466E4BFD
:101FF0001B6813F4003FC3D0FEF704FB401B6428AA
:10200000F5D9032039E1684B5B6813F4800FC6D122
:10201000654B1B6813F0020F04D0E368012B01D05D
:1020200001202AE1604A136823F0F803216943EA9A
:10203000C1031360236813F0080F40D0636963B3D2
:102040005B4B01221A60FEF7DDFA0546564B5B6FCB
:1020500013F0020F33D1FEF7D5FA401B0228F5D951
:1020600003200AE1504A136823F0F803216943EA88
:10207000C1031360DEE74D4B00221A60FEF7C2FA7F
:102080000546494B1B6813F0020FD3D0FEF7BAFA8E
:10209000401B0228F5D90320EFE0454B00221A60CF
:1020A000FEF7B0FA0546404B5B6F13F0020F06D007
:1020B000FEF7A8FA401B0228F5D90320DDE02368CB
:1020C00013F0040F79D0384B1B6C13F0805F33D1C1
:1020D00000230193344B1A6C42F080521A641B6C3B
:1020E00003F080530193019B0125324B1B6813F4CD
:1020F000807F23D0A368012B34D0052B38D02A4B06
:102100001A6F22F001021A671A6F22F004021A678E
:10211000A368002B36D0FEF775FA0646224B1B6FDC
:1021200013F0020F48D1FEF76DFA801B41F288339D
:102130009842F3D90320A0E00025D6E71D4A136892
:1021400043F480731360FEF75DFA0646194B1B6873
:1021500013F4807FCED1FEF755FA801B0228F5D903
:1021600003208AE0104A136F43F001031367CFE79F
:102170000D4B1A6F42F004021A671A6F42F0010207
:102180001A67C5E7FEF73EFA0646074B1B6F13F0CA
:10219000020F11D0FEF736FA801B41F288339842C5
:1021A000F3D9032069E000BF003802400000474235
:1021B000800E474200700040E5B9A369002B5BD058
:1021C000304A926802F00C02082A58D0022B17D02D
:1021D0002D4B00221A60FEF715FA0446294B1B68A6
:1021E00013F0007F42D0FEF70DFA001B0228F5D94C
:1021F000032042E0234A136C23F080531364DCE78E
:10220000214B00221A60FEF7FDF905461D4B1B68A5
:1022100013F0007F06D0FEF7F5F9401B0228F5D930
:1022200003202AE0E369226A1343626A43EA8213C5
:10223000A26A5208013A43EA0243E26A43EA0263AD
:10224000104A5360104B01221A60FEF7DBF9044676
:102250000C4B1B6813F0007F06D1FEF7D3F9001B6F
:102260000228F5D9032008E0002006E0002004E061
:1022700001207047012000E0002002B070BD012065
:10228000FBE700BF0038024060004742324B9B68CA
:1022900003F00C03042B5CD0082B01D02F487047AF
:1022A0002DE9F04B2C4B5A6802F03F025B6813F4A7
:1022B000800F2BD0284B5B68C3F388131E46002782
:1022C0005C010025E41A65EB0705A90141EA946168
:1022D000A001001B61EB0501CB0043EA5073C40071
:1022E000A01943EB07014B0243EAD05344022046B6
:1022F00019460023FDF76CFF174B5B68C3F30143DE
:1023000001335B00B0FBF3F0BDE8F08B124B5B6870
:10231000C3F388131E4600275C010025E41A65EB11
:102320000705A90141EA9461A001001B61EB0501C9
:10233000CB0043EA5073C400A01943EB07018B02A2
:1023400043EA90538402204619460023FDF740FFDC
:10235000D2E70348704700BF003802400024F40071
:1023600000127A00002800F09D8070B504464F4BA3
:102370001B6803F00F038B4209D2CBB24B4A137098
:10238000136803F00F038B4201D0012070BD236856
:1023900013F0020F17D013F0040F04D0444A9368CF
:1023A00043F4E0539360236813F0080F04D0404ACD
:1023B000936843F4604393603D4A936823F0F003CD
:1023C000A068034393600D46236813F0010F32D0D9
:1023D0006368012B21D09A1E012A25D9344A12683C
:1023E00012F0020F60D032498A6822F003021343D0
:1023F0008B60FEF707F906462D4B9B6803F00C0334
:102400006268B3EB820F16D0FEF7FCF8801B41F236
:1024100088339842F0D90320B8E7254A126812F4AD
:10242000003FE0D10120B1E7214A126812F0007F9D
:10243000D9D10120AAE71D4B1B6803F00F03AB4263
:1024400009D9EAB2194B1A701B6803F00F03AB42AB
:1024500001D001209AE7236813F0040F06D0144A34
:10246000936823F4E053E1680B439360236813F00F
:10247000080F07D00E4A936823F46043216943EAAA
:10248000C1039360FFF702FF094B9B68C3F303137B
:10249000084AD35CD840084B18600020FEF768F863
:1024A000002073E70120704701206FE7003C0240E5
:1024B00000380240283B000808000020014B186843
:1024C000704700BF0800002008B5FFF7F7FF044B76
:1024D0009B68C3F38223034AD35CD84008BD00BF86
:1024E00000380240383B000808B5FFF7E7FF044B0F
:1024F0009B68C3F34233034AD35CD84008BD00BF96
:1025000000380240383B00082DE9F84304460168D2
:102510000A6922F44052C36813430B610168CA6818
:1025200022F4164222F00C028368006903436069BA
:102530000343E06903431343CB6021684A6922F4F3
:102540004072A36913434B61E369B3F5004F60D058
:102550002368B84A934200F0148102F580629342E6
:1025600000F00F81FFF7B0FF00EB800000EB800070
:102570006568AD00B0FBF5F5AF4FA7FB05356D09FC
:102580002E01FFF7A1FF00EB800000EB80006568E3
:10259000AD00B0FBF5F9FFF797FF00EB800000EB13
:1025A00080006568AD00B0FBF5F5A7FB05356D094A
:1025B0004FF0640808FB15952D013235A7FB053552
:1025C0006D0905F0F0053544FFF77EFF00EB800054
:1025D00000EB80006668B600B0FBF6F6FFF774FF0C
:1025E00000EB800000EB800063689B00B0FBF3F021
:1025F000A7FB0030400908FB10684FEA081808F1F3
:102600003208A7FB0837C7F3431723682F449F609E
:102610000DE12368874A93425BD002F580629342C2
:1026200057D0FFF751FF00EB800000EB800065689A
:102630006D00B0FBF5F5804FA7FB05356D092E0148
:10264000FFF742FF00EB800000EB800065686D0043
:10265000B0FBF5F9FFF738FF00EB800000EB8000DE
:1026600065686D00B0FBF5F5A7FB05356D094FF00A
:10267000640808FB1595ED003235A7FB05356D099B
:102680006D0005F4F8753544FFF71EFF00EB800080
:1026900000EB800066687600B0FBF6F6FFF714FFEB
:1026A00000EB800000EB800063685B00B0FBF3F39D
:1026B000A7FB03235B0908FB13684FEAC80808F16E
:1026C0003208A7FB0837C7F3421723682F449F60DF
:1026D000ADE0FFF709FF00EB800000EB80006568CC
:1026E0006D00B0FBF5F5544FA7FB05356D092E01C4
:1026F000FFF7FAFE00EB800000EB800065686D00DC
:10270000B0FBF5F9FFF7F0FE00EB800000EB800076
:1027100065686D00B0FBF5F5A7FB05356D094FF059
:10272000640808FB1595ED003235A7FB05356D09EA
:102730006D0005F4F8753544FFF7D6FE00EB800018
:1027400000EB800066687600B0FBF6F6FFF7CCFE83
:1027500000EB800000EB800063685B00B0FBF3F3EC
:10276000A7FB03235B0908FB13684FEAC80808F1BD
:102770003208A7FB0837C7F3421723682F449F602E
:1027800055E0FFF7B1FE00EB800000EB80006568CC
:10279000AD00B0FBF5F5284FA7FB05356D092E01FF
:1027A000FFF7A2FE00EB800000EB80006568AD0043
:1027B000B0FBF5F9FFF798FE00EB800000EB80001E
:1027C0006568AD00B0FBF5F5A7FB05356D094FF069
:1027D000640808FB15952D013235A7FB05356D09F9
:1027E00005F0F0053544FFF77FFE00EB800000EBBD
:1027F00080006668B600B0FBF6F6FFF775FE00EBEA
:10280000800000EB800063689B00B0FBF3F0A7FB47
:102810000030400908FB10684FEA081808F1320838
:10282000A7FB0837C7F3431723682F449F60BDE811
:10283000F88300BF001001401F85EB512DE9F041E6
:1028400005460F4616469846069C2B681B6837EAD5
:1028500003030CBF01230023B3421DD1B4F1FF3F9A
:10286000F3D02CB1FDF7CEFEA0EB0800A042ECD9CE
:102870002A68D36823F4D073D3602A68536923F09D
:1028800001035361202385F8393085F83A3000235D
:1028900085F83830032000E00020BDE8F08158B30F
:1028A00010B5044690F839300BB3242384F839303E
:1028B0002268D36823F40053D3602046FFF724FE38
:1028C0002268136923F4904313612268536923F04B
:1028D0002A0353612268D36843F40053D360002075
:1028E000E063202384F8393084F83A3010BD80F852
:1028F000383000F027FCD8E7012070472DE9F0417F
:1029000082B01E4690F83930DBB2202B55D10446F8
:102910000D469046002955D0002A55D090F8383001
:10292000012B53D0012380F838300023C3632123C7
:1029300080F83930FDF766FE0746A4F82480A4F835
:10294000268010E000963B46002280212046FFF7BB
:1029500075FF00283CD12B882268C3F3080353601D
:102960002369C3B90235E38C9BB2B3B1E38C013B5D
:102970009BB2E384A368B3F5805FE3D000963B4647
:10298000002280212046FFF759FF18BB2A782368D0
:102990005A600135E7E70135E5E700963B4600223E
:1029A00040212046FFF74AFF0346A8B9202284F8B9
:1029B0003920002284F8382000E00223184602B0B3
:1029C000BDE8F0810123F9E70123F7E70223F5E7EA
:1029D0000323F3E70323F1E70323EFE770B588B0A0
:1029E0005E4A537B127B5E49684600F089FC0024F6
:1029F0001D2C08D808AB234413F8203C0A2B03D025
:102A00000134E4B2F4E71E244FF6FF732246694610
:102A10005448FFF773FF514A137CD27B52496846F2
:102A200000F06EFC00261D2E08D808AB334413F8C6
:102A3000203C0A2B03D00136F6B2F4E726464FF6C7
:102A4000FF73B2B269464748FFF758FF434AD37C49
:102A5000927C4649684600F053FC00251D2D08D89D
:102A600008AB2B4413F8203C0A2B03D00135EDB200
:102A7000F4E735464FF6FF73AAB269463948FFF7C7
:102A80003DFF364B9A7A3A49684600F039FC0024FB
:102A90001D2C08D808AB234413F8203C0A2B03D084
:102AA0000134E4B2F4E72C464FF6FF73A2B2694654
:102AB0002C48FFF723FF294A137AD2792D4968461B
:102AC00000F01EFC00251D2D08D808AB2B4413F880
:102AD000203C0A2B03D00135EDB2F4E725464FF632
:102AE000FF73AAB269461F48FFF708FF1B4A5379D4
:102AF00012792149684600F003FC00241D2C08D8F7
:102B000008AB234413F8203C0A2B03D00134E4B271
:102B1000F4E72C464FF6FF73A2B269461148FFF75F
:102B2000EDFE0E4A937852781449684600F0E8FBAF
:102B300000221D2A08D808AB134413F8203C0A2BA6
:102B400003D00132D2B2F4E722464FF6FF7392B2BD
:102B500069460448FFF7D2FE08B070BDF8000020B7
:102B6000403B00080C010020503B0008603B00087F
:102B7000703B00087C3B00088C3B0008983B000839
:102B800030B58BB0002405940694079408940994FA
:102B900001941E4B1A6B42F080021A631A6B02F00A
:102BA00080020192019A02941A6B42F001021A63A8
:102BB0001A6B02F001020292029A03941A6B42F01D
:102BC00008021A631A6B02F008020392039A049433
:102BD0001A6B42F002021A631B6B03F002030493A8
:102BE000049B0B4D22464FF400412846FDF784FE1E
:102BF0004FF400430593012306930794089405A915
:102C00002846FDF795FD0BB030BD00BF00380240EF
:102C1000000C024008B50848084B03604FF4E1334C
:102C2000436000238360C36003610C2242618361BF
:102C3000C361FFF734FE08BD0C01002000440040D2
:102C400008B50948094B0360094B436000238360C2
:102C5000C3604FF48042026143618361C3610362D8
:102C6000FEF79AF908BD00BF9C0000200054004008
:102C7000A086010084B030B583B006AC84E80F00B4
:102C80009DF86C509DF874404FF4FA7300932346FE
:102C90001C9A294606A8FEF70DFA30B106A8FFF7E0
:102CA00027F90428F0D0002000E0012003B0BDE89F
:102CB000304004B0704784B030B583B006AC84E8CF
:102CC0000F009DF86C509DF874404FF4FA73009318
:102CD00023461C9A294606A8FEF7AEFA30B106A88C
:102CE000FFF706F90428F0D0002000E0012003B02F
:102CF000BDE8304004B07047F0B597B0144C0123E4
:102D00001393144B1293D027119704F11005442606
:102D100032462946684600F0DFFA94E80F00FFF7D4
:102D2000A9FF0F238DF8543000238DF8553002236E
:102D3000139315AB1293119732462946684600F05B
:102D4000CBFA94E80F00FFF795FF17B0F0BD00BF76
:102D50009C000020F00000202DE9F04796B08B4C3D
:102D60000123139314AB1293D0231193442204F143
:102D70001001684600F0B0FA94E80F00FFF77AFF00
:102D80008248FFF7B2F82028FAD1804C072313932A
:102D900014AB1293D0231193442204F1100168461E
:102DA00000F09AFA94E80F00FFF785FF9DF856307F
:102DB00003F00F0C1B0903EB83035A0094445FFAE2
:102DC0008CFC734880F811C09DF8553003F00F0754
:102DD0001B0903EB83035A001744FFB287739DF866
:102DE000543003F00F061B0903EB83035A0016440B
:102DF000F6B2C6729DF8533003F00F051B0903EBC2
:102E000083035A001544EDB245729DF8523003F029
:102E10000F041B0903EB83035A001444E4B28471CA
:102E20009DF8513003F00F011B0903EB83035A0097
:102E30001144C9B2C1709DF8503003F00F021B0954
:102E400003EB83034FEA430E7244D2B20270514B3C
:102E5000A3FB0CE84FEAD8085FFA88F9A3FB09AE98
:102E60004FEADE0E0EEB8E0E4FEA4E0AA9EB0A0970
:102E700009F1300980F8129008EB88084FEA480EF3
:102E8000ACEB0E0C0CF1300C80F813C0A3FB07CE9A
:102E90004FEADE0E5FFA8EF8A3FB089C4FEADC0CCB
:102EA0000CEB8C0C4FEA4C09A8EB090808F1300830
:102EB00080F80F800EEB8E0E4FEA4E0CA7EB0C073E
:102EC00030370774A3FB06C7FF085FFA87FEA3FB32
:102ED0000E8C4FEADC0C0CEB8C0C4FEA4C08AEEB82
:102EE000080E0EF1300E80F80CE007EB87074FEA72
:102EF000470CA6EB0C0630364673A3FB0576F608A6
:102F000006EB86067700ED1B30358572A3FB046562
:102F1000ED08EFB2A3FB07C6F60806EB86064FEAFC
:102F2000460CA7EB0C073037C77105EB85056E0023
:102F3000A41B30340472A3FB0154E408E6B2A3FBE3
:102F40000675ED0805EB85056F00F61B303606713A
:102F500004EB84046500491B30314171A3FB02413D
:102F6000C908CCB2A3FB0453DB0803EB83035D0069
:102F7000641B3034447001EB81014B00D21A3032B3
:102F80008270FFF72BFD16B0BDE8F0879C00002093
:102F9000F8000020CDCCCCCC30B595B0302200214B
:102FA00008A800F0A4F9002403940494059406945E
:102FB000079401941B4B1A6C42F080521A641B6CEC
:102FC00003F080530193019B0294174B1A6842F45B
:102FD00080421A601B6803F480430293029B012322
:102FE00008934FF48033099302250E954FF4800324
:102FF0000F9304231093A82211921295139308A8FB
:10300000FEF778FF0F230393049505944FF4A05324
:1030100006934FF480530793052103A8FFF7A2F905
:1030200015B030BD003802400070004000B587B0D8
:1030300001AC0F4D0FCD0FC42B682370FDF7BCFA08
:10304000FFF7AAFFFFF79CFDFFF7E4FDFFF7F8FD90
:10305000FFF752FE4FF6FF73102201A90548FFF754
:103060004DFCFFF779FE4FF47A70FDF7D1FAF8E7DF
:10307000A43B00080C01002082B0002100910B4B02
:103080005A6C42F480425A645A6C02F480420092B4
:10309000009A01911A6C42F080521A641B6C03F082
:1030A00080530193019B02B0704700BF003802407B
:1030B00030B589B0002303930493059306930793D7
:1030C00002681D4B9A4201D009B030BD0024019422
:1030D0001A4D2B6B43F002032B632B6B03F002039F
:1030E0000193019BC02303931223049301230593AF
:1030F000032306930423079303A91148FDF718FB44
:1031000002942B6C43F400132B642B6C03F4001318
:103110000293029B224621461F20FDF79FFA1F20A3
:10312000FDF7D0FA224621462020FDF797FA20200D
:10313000FDF7C8FAC8E700BF00540040003802405D
:103140000004024000B589B0002303930493059363
:10315000069307930268164B9A4202D009B05DF8B5
:1031600004FB0021019103F5FA331A6C42F400329A
:103170001A641A6C02F400320192019A02911A6BDD
:1031800042F001021A631B6B03F001030293029BDE
:103190000C23039302230493012305930323069333
:1031A0000723079303A90348FDF7C2FAD6E700BF38
:1031B00000440040000002407047FEE7FEE7FEE7E3
:1031C000FEE770477047704708B5FDF70FFA08BD76
:1031D00008B50248FEF73CFD08BD00BF9C0000207A
:1031E00008B50248FEF7E8FD08BD00BF9C000020BE
:1031F0000F49D1F8883043F47003C1F888300D4B83
:103200001A6842F001021A60002098601A6822F0E1
:10321000847222F480321A60074A5A601A6822F4D3
:1032200080221A60D8604FF000638B60704700BF47
:1032300000ED00E00038024010300024DFF834D008
:10324000002103E00C4B5B58435004310B480C4BFE
:1032500042189A42F6D30B4A02E0002342F8043B9C
:10326000094B9A42F9D3FFF7C3FF00F011F8FFF7BB
:10327000DDFE704700000220FC3B0008000000203B
:103280007000002070000020B4010020FEE7000064
:1032900070B50D4E0D4CA41BA4100025A54209D1FC
:1032A0000B4E0C4C00F034FCA41BA4100025A542CE
:1032B00005D170BD56F8253098470135EEE756F830
:1032C000253098470135F2E7F43B0008F43B00084D
:1032D000F43B0008F83B000810B5431E0A44914235
:1032E00000D110BD11F8014B03F8014FF7E702447C
:1032F0000346934200D1704703F8011BF9E7000031
:103300000EB400B59CB01DAB029006906FF000416A
:10331000094807910491094953F8042B0591006865
:10332000019302A900F066F8029B00221A701CB0FB
:103330005DF804EB03B070470C0000200802FFFFAB
:103340002DE9F0478E689E4282460C46904699468B
:1033500037D88A8912F4906F31D0256809696F1ABD
:103360006569022305EB450595FBF3F509F10103BA
:103370003B449D4238BF1D46530530D5294600F0D9
:103380001FFB064650B90C23CAF80030A38943F04E
:103390004003A3814FF0FF30BDE8F0873A46216932
:1033A000FFF79AFFA38923F4906343F08003A3817E
:1033B000266165613E44ED1B2660A5604E464E4584
:1033C00000D94E4632464146206800F091FAA36883
:1033D0009B1BA36023681E4426600020DCE72A466E
:1033E00000F048FB06460028E2D12169504600F073
:1033F00099FAC8E72DE9F04F9DB0804603938B8979
:103400001D060C4616460FD50B696BB9402100F01E
:10341000D7FA2060206128B90C23C8F800304FF09B
:10342000FF30C7E0402363610023099320238DF818
:10343000293030238DF82A304FF0010B37463D46B6
:1034400015F8013B0BB1252B3ED1B7EB060A0BD08B
:103450005346324621464046FFF772FF013000F0E6
:10346000A480099B534409933B78002B00F09D8076
:1034700000234FF0FF32CDE90523049307938DF825
:1034800053301A932F46052217F8011B4F48FDF7BA
:103490001FF8049BD0B9D90644BF20228DF85320D1
:1034A0001A0744BF2B228DF853202A782A2A15D0D8
:1034B000079A2F4600200A25394611F8013B303B78
:1034C000092B4DD9B8B10FE02F46B8E73F4A801A13
:1034D0000BFA00F0184304903D46D3E7039A111D00
:1034E00012680391002A01DB079204E0524243F084
:1034F0000203079204933B782E2B0CD17B782A2B66
:1035000033D1039B1A1D1B680392002BB8BF4FF0E9
:10351000FF33023705932E4D397803222846FCF7F6
:10352000D7FF38B14023401B03FA00F0049B03434C
:1035300001370493397827488DF8281006227E1C1D
:10354000FCF7C6FF002838D0234B13BB039B07337F
:1035500023F0070308330393099B4B4409936DE75A
:1035600005FB023201200F46A6E700230137059331
:1035700019460A25384610F8012B303A092A03D992
:10358000002BC8D00591C6E705FB012101230746A2
:10359000F0E703AB00932246104B04A94046AFF37B
:1035A0000080B0F1FF3F8146D6D1A3895B063FF58D
:1035B00036AF09981DB0BDE8F08F03AB00932246EB
:1035C000064B04A9404600F081F8EAE7B83B000842
:1035D000BE3B0008C23B0008000000004133000869
:1035E0002DE9F04791461F468A680B69DDF8208077
:1035F0009342B8BF1346C9F8003091F843200646FD
:103600000C4612B10133C9F800302368990642BF55
:10361000D9F800300233C9F80030256815F00605E6
:1036200007D104F1190AE368D9F800209B1AAB42CC
:1036300028DC94F843302268003318BF0123920637
:103640002DD404F1430239463046C047013020D022
:103650002368E568D9F8002003F00603042B08BFAF
:10366000AD1AA36822690CBF25EAE57500259342CF
:10367000C4BF9B1AED184FF000091A344D451AD1FA
:10368000002008E00123524639463046C047013049
:1036900003D14FF0FF30BDE8F0870135C3E7E118F3
:1036A0005A1C302081F84300224494F8451082F8D7
:1036B00043100233C5E70123224639463046C0474E
:1036C0000130E6D009F10109D8E700002DE9F04307
:1036D00001F1430C0C46097E85B06E29174606465B
:1036E00098460C9A00F0B38022D8632936D00AD8C5
:1036F000002900F0B980582900F0838004F14205C8
:1037000084F8421032E0642901D06929F6D120689A
:103710001368050603F104012AD51B681160002B0C
:1037200003DA2D225B4284F843206F480A2239E0F5
:10373000732900F09D8008D86F2920D07029DDD131
:10374000236843F02003236003E0752917D078290C
:10375000D4D1782384F84530644855E01368191DA6
:103760001B68116004F1420584F8423001238CE0AB
:103770001B68116010F0400F18BF1BB2CFE7136831
:103780002568181D1060280601D51B6802E0680630
:10379000FBD51B8854486F2914BF0A220822002138
:1037A00084F843106568A560002DC0F295802168FB
:1037B00021F004012160002B3DD1002D40F08E80CE
:1037C0006546082A0BD12368DB0708D523696268A0
:1037D0009A42DEBF302305F8013C05F1FF35ACEB22
:1037E00005032361CDF800803B4603AA21463046FD
:1037F000FFF7F6FE01304DD14FF0FF3005B0BDE8C8
:10380000F083394884F84510136821681D1D1B6832
:1038100015600A060BD5CA0744BF41F0200121609C
:103820001BB9226822F0200222601022B7E74D0661
:1038300048BF9BB2EFE76546B3FBF2F102FB1133E1
:10384000C35C05F8013D0B460029F5D1B9E71368C3
:1038500025686169181D106028061B6801D519606C
:1038600002E06A06FBD51980002323616546B9E7AB
:103870001368191D11601D68626800212846FCF755
:1038800027FE08B1401B606063682361002384F851
:103890004330A7E723692A4639463046C0470130FE
:1038A000AAD023689B0713D4E068039B9842B8BF53
:1038B0001846A3E701234A4639463046C04701303F
:1038C0009AD00135E368039A9B1AAB42F2DCEBE72E
:1038D000002504F11909F5E7002BACD1037884F831
:1038E000423004F142056CE7C93B0008DA3B0008AE
:1038F000884210B501EB020307D8421E99420AD054
:1039000011F8014B02F8014FF8E78342F5D981180D
:10391000D21AD34200D110BD13F8014D01F8014D68
:10392000F7E7000038B50546002945D051F8043CBA
:103930000C1F002BB8BFE41800F0D2F81F4A136820
:10394000104633B9636014602846BDE8384000F083
:10395000C8B8A3420CD921686218934204BF1A6800
:103960005B68636004BF521822600460ECE7134692
:103970005A680AB1A242FAD919685818A0420BD164
:1039800020680144581882421960DDD110685268DD
:103990005A6001441960D7E702D90C232B60D3E7A2
:1039A000206821188A4204BF11685268626004BF0F
:1039B000091821605C60C7E738BD00BF8C0000209B
:1039C00070B5CD1C25F0030508350C2D38BF0C252E
:1039D000002D064601DBA94203D90C2333600020E9
:1039E00070BD00F07DF8214A1468214691B9204C41
:1039F00023681BB9304600F063F820602946304642
:103A000000F05EF8431C24D10C233360304600F0F4
:103A100068F8E4E70B685B1B18D40B2B0FD90B601D
:103A2000CD50CC18304600F05CF804F10B00231D9B
:103A300020F00700C31AD3D05A42E250D0E78C429C
:103A40004B6816BF636013600C46EBE70C46496891
:103A5000CCE7C41C24F00304A04205D0211A304650
:103A600000F02EF80130CFD02560DBE78C0000207D
:103A700090000020F8B5074614460E4621B91146BD
:103A8000BDE8F840FFF79CBF22B9FFF74BFF254682
:103A90002846F8BD00F026F8A0420FD2214638464D
:103AA000FFF78EFF05460028F2D031462246FFF789
:103AB00013FC31463846FFF735FFE9E73546E7E7BF
:103AC00038B5064C002305460846236000F012F87E
:103AD000431C02D1236803B12B6038BDB001002024
:103AE0007047704751F8043C181F002BBCBF0B589F
:103AF000C0187047044A05491368002B08BF0B46DD
:103B0000184410601846704794000020B801002047
:103B1000F8B500BFF8BC08BC9E467047F8B500BFBA
:083B2000F8BC08BC9E4670478A
:103B28000000000000000000010203040607080965
:103B38000000000001020304446174653A20256313
:103B480025630D0A000000004D6F6E74683A202549
:103B58006325630D0A000000596561723A202563E8
:103B680025630D0A000000004461793A2025630DA1
:103B78000A000000486F75723A20256325630D0A14
:103B8800000000004D696E3A20256325630D0A0088
:103B98005365633A20256325630D0A005553415246
:103BA80054205472616E736D69740D0A0000000030
:103BB800232D302B2000686C4C006566674546470E
:103BC8000030313233343536373839414243444591
:103BD8004600303132333435363738396162636400
:043BE800656600000E
:083BEC0014C6FF7F0100000078
:043BF400B50100080F
:043BF800910100082F
:103BFC0001000000100000000024F4001000002060
:103C0C0000000000000000000000000000000000A8
:103C1C000000000000000000000000000000000098
:103C2C000000000000000000000000000000000088
:103C3C000000000000000000000000000000000078
:103C4C000000000000000000000000000000000068
:103C5C000000000000000000000000000000000058
:040000050800323D80
:00000001FF
