:020000040800F2
:10000000000002207D3E0008E53D0008E73D0008B5
:10001000E93D0008EB3D0008ED3D00080000000050
:10002000000000000000000000000000EF3D00089C
:10003000F13D000800000000F33D0008F53D000818
:10004000CD3E0008CD3E0008CD3E0008CD3E000864
:10005000CD3E0008CD3E0008CD3E0008CD3E000854
:10006000CD3E0008CD3E0008CD3E0008CD3E000844
:10007000CD3E0008CD3E0008CD3E0008CD3E000834
:10008000CD3E0008CD3E0008CD3E0008CD3E000824
:10009000CD3E0008CD3E0008CD3E0008CD3E000814
:1000A000CD3E0008CD3E0008CD3E0008CD3E000804
:1000B000CD3E0008CD3E0008013E0008CD3E0008C0
:1000C000CD3E0008113E0008213E0008CD3E00084C
:1000D000CD3E0008CD3E0008CD3E0008CD3E0008D4
:1000E000CD3E0008CD3E0008CD3E0008CD3E0008C4
:1000F000CD3E0008CD3E0008CD3E0008CD3E0008B4
:10010000CD3E0008CD3E0008CD3E0008CD3E0008A3
:10011000CD3E0008CD3E0008CD3E0008CD3E000893
:10012000CD3E0008CD3E0008CD3E0008CD3E000883
:10013000CD3E0008CD3E0008CD3E0008CD3E000873
:10014000CD3E0008CD3E0008CD3E0008CD3E000863
:10015000CD3E0008CD3E0008CD3E0008CD3E000853
:10016000CD3E0008CD3E0008CD3E0008CD3E000843
:10017000CD3E0008CD3E0008CD3E00080000000046
:08018000CD3E0008CD3E000851
:1001900010B5054C237833B9044B13B10448AFF3C1
:1001A00000800123237010BD7000002000000000BB
:1001B0004047000808B5034B1BB103490348AFF3A0
:1001C000008008BD000000007400002040470008C7
:1001D00053B94AB9002908BF00281CBF4FF0FF31AE
:1001E0004FF0FF3000F072B9ADF1080C6DE904CEAC
:1001F00000F006F8DDF804E0DDE9022304B0704702
:100200002DE9F047089E04468846002B4BD18A42D0
:10021000154667D9B2FA82F24AB1C2F1200701FA53
:1002200002F320FA07F7954047EA030894404FEAA3
:10023000154E230CB8FBFEF71FFA85FC0EFB178842
:1002400043EA084307FB0CF1994209D9EB1807F17F
:10025000FF3080F01B81994240F21881023F2B440D
:100260005B1AA4B2B3FBFEF00EFB103344EA034466
:1002700000FB0CFCA44509D92C1900F1FF3380F0D8
:100280000781A44540F2048102382C4440EA07402B
:10029000A4EB0C0400271EB1D4400023C6E90043A0
:1002A0003946BDE8F0878B4209D9002E00F0EB807B
:1002B0000027C6E9000138463946BDE8F087B3FAA1
:1002C00083F7002F47D18B4202D3824200F2FA809B
:1002D000841A61EB030301209846002EE0D0C6E9A2
:1002E0000048DDE702B9FFDEB2FA82F2002A40F0F0
:1002F0008F80491B4FEA154E1FFA85F80127B1FB85
:10030000FEFC230C0EFB1C1143EA014308FB0CF11D
:10031000994207D9EB180CF1FF3002D2994200F252
:10032000CD808446591AA3B2B1FBFEF00EFB101427
:1003300043EA044408FB00F8A04507D92C1900F152
:10034000FF3302D2A04500F2B6801846A4EB0804A1
:1003500040EA0C409FE7C7F1200CBB4022FA0CFE9C
:100360004EEA030E01FA07F420FA0CF521FA0CF319
:100370004FEA1E482543B3FBF8F92C0C08FB193350
:100380001FFA8EFA44EA034309FB0AF49C4202FA7C
:1003900007F200FA07F10BD91EEB030309F1FF3056
:1003A00080F087809C4240F28480A9F10209734466
:1003B0001B1BADB2B3FBF8F008FB103345EA034456
:1003C00000FB0AFAA24508D91EEB040400F1FF3332
:1003D0006BD2A24569D90238744440EA0940A0FBB7
:1003E0000289A4EB0A044C45C2464B4654D351D073
:1003F000002E69D0B1EB0A0564EB030404FA0CFC8F
:10040000FD40FC404CEA0505C6E90054002747E7DB
:10041000C2F1200320FA03F7954001FA02F021FA15
:1004200003F34FEA154E3843010CB3FBFEF71FFAF6
:1004300085F80EFB173341EA034107FB08F38B42B3
:1004400004FA02F407D9691807F1FF3C2FD28B4256
:100450002DD9023F2944CB1A81B2B3FBFEF00EFB2B
:10046000103341EA034100FB08F38B4207D96918B6
:1004700000F1FF3C17D28B4215D902382944C91A22
:1004800040EA07473BE73746304609E70746E7E6D5
:100490001846FBE64145ABD2B8EB020A69EB0E0207
:1004A00001381346A4E76046E9E7184695E7674632
:1004B000D1E781467CE702382C4447E7ACF1020CD7
:1004C0002B442FE7384608E73746E9E6704700BF78
:1004D00001F0FF01102A2BDB10F0070F08D010F8F5
:1004E000013B013A8B422DD010F0070F42B3F6D1F9
:1004F000F0B441EA012141EA014122F007047FF012
:1005000000070023F0E80256083C85EA010586EA68
:10051000010685FA47F5A3FA87F586FA47F6A5FAA4
:1005200087F68EB9EED1F0BC01F0FF0102F00702B0
:1005300032B110F8013B013A83EA010313B1F8D15B
:100540000020704701387047002D06BF354603383C
:10055000073815F0010F07D1013015F4807F02BF75
:10056000013015F4C03F0130F0BC0138704700BFC6
:1005700010B504460E4B18784FF47A73B3FBF0F3C2
:100580000C4A1068B0FBF3F000F0A8F868B90F2C23
:1005900001D901200AE0002221464FF0FF3000F08F
:1005A0005DF8034B5C60002000E0012010BD00BF3F
:1005B000000000200800002008B50B4B1A6842F428
:1005C00000721A601A6842F480621A601A6842F473
:1005D00080721A60032000F02FF80020FFF7C8FF98
:1005E00003F0EEFA002008BD003C0240034A116807
:1005F000034B1B780B441360704700BFB000002012
:1006000000000020014B1868704700BFB0000020B8
:1006100038B50446FFF7F6FF0546B4F1FF3F02D0B8
:10062000044B1B781C44FFF7EDFF401BA042FAD39C
:1006300038BD00BF00000020074AD36823F4E06300
:100640001B041B0C000200F4E060184340F0BF6084
:1006500040F40030D060704700ED00E030B4174B3C
:10066000DB68C3F30223C3F10704042C28BF04246E
:100670001D1D062D18D9033B4FF0FF3505FA04F474
:1006800021EA0401994005FA03F322EA030319431E
:1006900000280BDB0901C9B200F1604000F56140A0
:1006A00080F8001330BC70470023E5E700F00F002E
:1006B0000901C9B2024B1954F4E700BF00ED00E094
:1006C00014ED00E000F01F02400901239340024AAC
:1006D00042F82030704700BF00E100E00138B0F17F
:1006E000807F0AD2064B5860064AF02182F8231018
:1006F0000020986007221A6070470120704700BFF1
:1007000010E000E000ED00E0042805D0054A136881
:1007100023F0040313607047024A136843F0040394
:100720001360704710E000E0704708B5FFF7FCFF6A
:1007300008BD70B110B50446037933B102232371AB
:10074000002020610123237110BD437103F082FA60
:10075000F4E7012070474379012B31D010B4012315
:10076000437102220271046822688B4013432360A4
:10077000B1B902681168136803F0380311F0040F6F
:1007800001D0382B07D00123037100234371184691
:100790005DF8044B7047536843F001035360F2E780
:1007A00002681168136803F4601311F4802FEAD013
:1007B000B3F5601FE7D1536843F002035360E2E7EB
:1007C0000220704710B404682368012202FA01F184
:1007D00023EA01032360027100205DF8044B704797
:1007E0004379012B1FD070B4012545710223037199
:1007F0000668336840F6FE74944023EA04040B68EC
:1008000049680B4393402343336004682368C02145
:1008100001FA02F223EA0202226005710023437109
:10082000184670BC70470220704710B483B0002493
:1008300001940068019051B101990A441432019267
:10084000019A1360002003B05DF8044B70470199D2
:100850000A4408320192F3E790F83530DBB2022BFC
:1008600003D08023436501207047052380F835308D
:100870000268136823F00103136000207047000032
:1008800000230F2B00F2D780F0B482B039E00722AA
:1008900000E00022B2403A430234674E46F824207A
:1008A000664A1468EA4302EA04064F6817F4803F78
:1008B00001D045EA0406614C2660646802EA040639
:1008C0004F6817F4003F01D045EA04065B4C6660B0
:1008D000A46802EA04064F6817F4801F01D045EAB5
:1008E0000406564CA660E46822404E6816F4001FC9
:1008F00001D045EA0402514CE26001330F2B00F2B3
:10090000978001229A400C6804EA0205AA42F4D1B9
:100910004C68022C01D0122C10D1DE08083650F899
:1009200026C003F00704A7000F24BC402CEA040CE7
:100930000C69BC4044EA0C0440F8264004685F009F
:100940000326BE40F64306EA040C4C6804F0030498
:10095000BC4044EA0C0404604C6804F1FF3CBCF168
:10096000010F03D9112C01D0122C10D1846806EA92
:10097000040CCC68BC4044EA0C048460446824EA5B
:1009800002024C68C4F300149C4014434460C268E3
:1009900016408A68BA403243C2604A6812F0805FEB
:1009A000ABD000220192264A546C44F48044546433
:1009B000526C02F480420192019A9C08A61C1E4AC5
:1009C00052F8267003F0030296000F22B24027EA85
:1009D00002071C4A90423FF45CAF02F580629042ED
:1009E0001AD002F58062904218D002F580629042DF
:1009F00016D002F58062904214D002F580629042D7
:100A000012D002F58062904210D002F580629042CE
:100A10003FF43DAF08223DE701223BE7022239E7E0
:100A2000032237E7042235E7052233E7062231E7C0
:100A300002B0F0BC7047704700380140003C0140F4
:100A400000380240000002400369194201D1002031
:100A500070470120704712B90904816170478161B4
:100A6000704790F83E30DBB2402B13D00369B3F5EA
:100A7000804F1ED0036D002B2DD0036D012B33D181
:100A8000436CC3F3C813026803F0060343F0F10399
:100A9000136129E0036D2BB9436C026803F0FE0378
:100AA000136121E0436C026843F00103DBB2136180
:100AB0001AE090F83D30DBB2212B06D0436C02687F
:100AC00043F00103DBB213610EE0436C026803F0F4
:100AD000FE03136108E0436CC3F3C813026803F01C
:100AE000060343F0F003136100207047436C026873
:100AF000DBB213610020704710B48BB090F83E3029
:100B0000DAB2C16A046B90F83D30DBB2222B0CD014
:100B10000023099303685A6909929B690993099B09
:100B200000200BB05DF8044B7047036D0BB9402AF1
:100B300017D0036D1BB90369B3F5404F19D0438D2E
:100B40009BB2002B25D1029303685A6902929A69DD
:100B50000292029A1A6842F400721A600023036536
:100B6000DEE7009303685A6900929B690093009B3B
:100B7000D6E70023019303685A6901929A690192AA
:100B8000019A1A6842F480721A60036D013303659A
:100B9000C6E7438D9BB2012B1AD0438D9BB2022B2B
:100BA0006BD00268136843F48063136003685A686B
:100BB00012F4006F03D05A6842F480525A60002346
:100BC000089303685A6908929B690893089BC5E7D4
:100BD00011F5803F16D004293DD008293BD0122CB6
:100BE00039D0C36A022B30D00268136823F48063C3
:100BF00013600023059303685A6905929B69059366
:100C0000059BABE70268136823F4806313600368F5
:100C10005A6812F4006F0CD01A6822F480621A60CD
:100C20000023039303685A6903929B690393039B10
:100C300094E7002204925A6904929A690492049AF1
:100C40001A6842F400721A6088E70268136843F475
:100C500080631360CDE70268136823F48063136038
:100C60000023069303685A6906929A690692069AC7
:100C70001A6842F400721A6070E7C36A022B1BD034
:100C80000268136823F4806313600268136843F4F6
:100C90000063136003685A6812F4006F03D05A6847
:100CA00042F480525A600023079303685A690792FE
:100CB0009B690793079B51E70268136843F48063BD
:100CC0001360E7E7438D9BB24BB1436A5A1C426203
:100CD00002681B781361438D013B9BB24385002062
:100CE0007047438D9BB24BB103681A69436A591C24
:100CF00041621A70438D013B9BB2438500207047CF
:100D000003685A6912F4806F0DD06FF480625A61E3
:100D10000423036400230363202280F83D2080F82D
:100D20003C300120704700207047F8B506460C465D
:100D300017461D461EE02DB1FFF764FC069BC01A46
:100D4000A84217D900233363202286F83D2086F875
:100D50003E3086F83C3003201AE033685B6924EAB1
:100D600003039BB2B3FA83F35B099F420FD1B5F142
:100D7000FF3FE0D1C4F30743012BEED033689B69FA
:100D800024EA03039BB2B3FA83F35B09EDE7002087
:100D9000F8BDF8B504460D4616461F4632E01A68FF
:100DA00042F400721A6023686FF480625A6104236F
:100DB000236400232363202284F83D2084F83C3000
:100DC00001202DE026B1FFF71DFCC01BB04219D950
:100DD00000232363202284F83D2084F83C30032044
:100DE0001EE023685B6925EA03039BB2003318BF4A
:100DF0000123A3B123685A6912F4806FCFD1B6F1F1
:100E0000FF3FDFD1C5F30743012BEAD023689B697D
:100E100025EA03039BB2003318BF0123E9E7002052
:100E2000F8BD0000F0B583B004460D4616461F46D7
:100E3000C36A042B0DD0012B0BD013F5803F08D0D3
:100E4000036B122B0AD10268136843F4807313609A
:100E500004E02268136843F48073136000973346FC
:100E600000224FF001112046FFF75FFF58BB2369B6
:100E7000B3F5804F10D1236805F0FE051D613B4698
:100E8000324615492046FFF784FF0346E0B1236C44
:100E9000042B1ED1012317E0EB11226803F0060397
:100EA00043F0F00313613B4632460C492046FFF7FE
:100EB00070FF20B1236C042B09D1012304E02368C7
:100EC000EDB21D61DBE70323184603B0F0BD032339
:100ED000FAE70323F8E700BF020001000800010061
:100EE0002DE9F04184B004460D4616461F46C26AFD
:100EF00001680B6843F480630B60042A0DD0012A5B
:100F00000BD012F5803F08D0036B112B0AD1026879
:100F1000136843F48073136004E02268136843F499
:100F2000807313600097334600224FF00111204672
:100F3000FFF7FBFE002852D12369B3F5804F12D191
:100F4000236845F00105EDB21D613B4632462A4952
:100F50002046FFF71EFF0346002841D0236C042BD8
:100F600048D101233CE04FEAE51808F00608236861
:100F700048F0F0021A613B46324620492046FFF70E
:100F800008FF20B1236C042B2ED1012328E0236815
:100F9000EDB21D613B46324617492046FFF7F9FE88
:100FA00020B1236C042B21D1012319E000220392EC
:100FB000236859690391996903910399196841F468
:100FC00080711960009733464FF001112046FFF7FA
:100FD000ACFE68B9226848F0F1031361B5E703235A
:100FE000184604B0BDE8F0810323F9E70323F7E7CF
:100FF0000323F5E70323F3E70200010008000100E3
:1010000070B504460D46164623685B6913F0800FE1
:1010100019D12046FFF774FEB8B9B5F1FF3FF3D000
:1010200025B1FFF7EFFA801BA842EDD9236C43F0FE
:101030002003236400232363202284F83D2084F8C6
:101040003C30032000E0002070BD0120FCE770B5BB
:1010500004460D46164623685B6913F0040F19D148
:101060002046FFF74DFEB8B9B5F1FF3FF3D025B1EB
:10107000FFF7C8FA801BA842EDD9236C43F0200388
:10108000236400232363202284F83D2084F83C302D
:10109000032000E0002070BD0120FCE770B505468C
:1010A0000C4616462B685A6912F0400F22D15A6935
:1010B00012F0100F11D124B1FFF7A4FA801BA04247
:1010C000F0D92B6C43F020032B64202385F83D30AE
:1010D000002385F83C30032070BD6FF010025A6188
:1010E00000232B642B63202285F83D2085F83C30BB
:1010F0000120F1E70020EFE7002800F0828010B522
:10110000044690F83D30002B41D0242384F83D3034
:101110002268136823F00103136001F085FA3A4B4B
:10112000A3FB00239B0C226853606168374A9142FD
:1011300032D80133226813626368344A934235D847
:101140005B00B0FBF3F0C0F30B03032B00D80420CB
:101150002368D861E369216A22680B43136023691D
:10116000E16822680B4393606369A16922680B43BD
:10117000D3602268136843F00103136000202064E9
:10118000202384F83D30206384F83E0010BD80F8B1
:101190003C3002F083FDB8E74FF4967202FB03F394
:1011A0001B4AA2FB03239B090133C3E7A16889B94A
:1011B00003EB4302B0FBF2F2C2F30B02B2FA82F28B
:1011C0005209E2B991B903EB4303B0FBF3F040F4E9
:1011D0000040BDE703EB830202EB8202B0FBF2F2B8
:1011E000C2F30B02B2FA82F25209EAE703EB83037D
:1011F00003EB8303B0FBF3F040F44040A8E7012089
:10120000A6E70120704700BF83DE1B43A0860100D4
:10121000D34D62102DE9F04184B004460E4690464D
:101220001F46FFF7EFF994F83D30DBB2202B04D0D6
:101230000226304604B0BDE8F0810546009019232F
:10124000012254492046FFF770FD002840F09980A4
:1012500094F83C30012B00F09680012384F83C3058
:1012600023681A6812F0010F03D11A6842F00102D4
:101270001A602268136823F400631360212384F842
:101280003D30102384F83E3000232364C4F82480CA
:101290006785A3F58033E362638D23852B460A9A25
:1012A00031462046FFF7BEFD064660B1236C042B95
:1012B00004D1002384F83C300126BAE7002384F8E7
:1012C0003C300326B5E70023039323685A69039251
:1012D0009B690393039B10E0236C042B55D1226878
:1012E000136843F4007313600126A2E72A460A99A3
:1012F0002046FFF7ACFE00282BD1238D002B32D0E7
:101300002A460A992046FFF77BFE0028E4D1636A4B
:101310005A1C626222681B781361638D013B9BB289
:101320006385238D013B9BB223852268516911F0AF
:10133000040FDBD0002BD9D0636A591C61621B7883
:101340001361638D013B9BB26385238D013B238534
:10135000CCE7236C042B1AD12268136843F4007382
:101360001360012665E72268136843F40073136075
:10137000202384F83D30002384F83E3084F83C304C
:1013800057E7022655E7022653E7032651E70326CF
:101390004FE700BF020010002DE9F04186B004467F
:1013A0000E4690461F46FFF72DF994F83D30DBB20C
:1013B000202B04D00226304606B0BDE8F081054659
:1013C0000090192301228C492046FFF7AEFC00282B
:1013D00040F04B8194F83C30012B00F04881012310
:1013E00084F83C3023681A6812F0010F03D11A68A0
:1013F00042F001021A602268136823F4006313604C
:10140000222384F83D30102384F83E3000232364E7
:10141000C4F824806785A3F58033E362638D238558
:101420002B460C9A31462046FFF75AFD064660B11E
:10143000236C042B04D1002384F83C300126BAE746
:10144000002384F83C300326B5E7238D5BB9029373
:1014500023685A6902929A690292029A1A6842F4BF
:1014600000721A607AE0012B0FD0022B1FD0226885
:10147000136843F4806313600023059323685A695B
:1014800005929B690593059B68E02268136823F425
:10149000806313600023039323685A6903929A6957
:1014A0000392039A1A6842F400721A6056E02268A6
:1014B000136823F4806313602268136843F40063A5
:1014C00013600023049323685A6904929B69049370
:1014D000049B43E02A460C992046FFF7DFFD68B9DC
:1014E00023681A69636A591C61621A70238D013B73
:1014F0002385638D013B9BB263852FE0236C202BFA
:1015000001D0012657E7032655E700950C9B0022E2
:101510003A492046FFF709FC002840F0AA802268DB
:10152000136843F40073136023681A69636A591CD3
:1015300061621A70238D013B2385638D013B9BB251
:10154000638523681A69636A591C61621A70238D66
:10155000013B2385638D013B9BB26385238D002B6B
:101560007AD0032B4CD8012BB4D0022BCDD00095D0
:101570000C9B002221492046FFF7D7FB00287AD197
:101580002268136823F48063136023681A69636A0E
:10159000591C61621A70238D013B2385638D013BC9
:1015A0009BB2638500950C9B002214492046FFF7EF
:1015B000BCFB002861D12268136843F400731360F8
:1015C00023681A69636A591C61621A70238D013B92
:1015D0002385638D013B9BB2638523681A69636A27
:1015E000591C61621A70238D013B2385638D013B79
:1015F0009BB26385B2E700BF020010000400010047
:101600002A460C992046FFF749FDF0B923681A696C
:10161000636A591C61621A70238D013B2385638DB7
:10162000013B9BB2638523685A6912F0040F95D081
:101630001A69636A591C61621A70238D013B238504
:10164000638D013B9BB2638588E7236C202B01D01F
:101650000126B0E60326AEE6202384F83D300023C1
:1016600084F83E3084F83C30A5E60226A3E6022644
:10167000A1E603269FE603269DE603269BE600BF20
:1016800070477047704708B590F83D30DAB2438D27
:101690009BB273B1436A591C416201681B780B61AC
:1016A000438D013B9BB24385438D9BB20BB9292AE5
:1016B00001D0002008BD0268536823F480635360A2
:1016C00021230363282380F83D30FFF7DBFFF0E799
:1016D000704790F83D30DAB2438D9BB2F3B110B54C
:1016E00003681969436A5C1C44621970438D013BAD
:1016F0009BB24385438D9BB20BB92A2A01D00020AF
:1017000010BD0268536823F480635360222303638F
:10171000282380F83D30FFF7DBFFF0E7002070471B
:10172000704708B503689A6912F0040F09D00021C8
:101730009B6913F0800F06D0028BFFF7F1FF0020AA
:1017400008BD0121F4E78289F7E7704708B590F8F2
:101750003D30DBB2C26A042A01D0082A01D1282B0D
:1017600007D0212B1FD003686FF480625A610020DC
:1017700008BD1A4BC3620268536823F4E0635360E8
:1017800003686FF480625A610268136823F480630F
:10179000136000230363202280F83D2080F83E3050
:1017A000FFF7D3FFE3E70D4BC3622123036320233D
:1017B00080F83D30002380F83E300268536823F4FF
:1017C000E063536003686FF480625A6102681368D3
:1017D00023F480631360FFF755FFC8E70000FFFFA5
:1017E000704710B590F83D30DBB290F83E20D2B291
:1017F000C46A018D09B9212B05D0212B3CD0402A88
:1018000038D0002010BD042C04D0082C02D014F5D0
:10181000803F19D10268536823F4E0635360026883
:10182000136843F40073136000230363202380F8DC
:101830003D3090F83E30DBB2402B15D0002380F8CD
:101840003E30FFF71DFFDCE70268536823F4E063D6
:10185000536011230363002380F83E30202380F877
:101860003D30FFF70DFFCCE7002380F83E30FFF757
:10187000B7FFC6E7222BC4D1438D9BB27BB190F852
:101880003E30DBB2402B10D0436A5A1C42620268E1
:101890001B781361438D013B9BB24385B1E702681E
:1018A000536823F480635360ABE7036D9BB9C36C4B
:1018B000012B08D0836CC3F3072302681361036D07
:1018C000013303659DE7836C0268DBB21361036D2E
:1018D0000233036595E7036D012B17D0036D022BCF
:1018E0008FD190F83D30DBB2222B17D090F83D30ED
:1018F000DBB2212B85D1436A5A1C426202681B78F5
:101900001361438D013B9BB243857AE7836C026888
:10191000DBB21361036D0133036572E7026813687C
:1019200043F4807313606CE708B5C26A90F83D30E9
:10193000DBB2212B01D0002008BD438D9BB203BB3D
:10194000042A04D0082A02D012F5803F24D102686C
:10195000536823F4E06353600268136843F4007330
:10196000136000230363202380F83D3090F83E305D
:10197000DBB2402B20D0002380F83E30FFF780FE02
:10198000D9E7436A5A1C426202681B781361438D8F
:10199000013B9BB24385CEE70268536823F4E063C2
:1019A000536011230363002380F83E30202380F826
:1019B0003D30FFF765FEBEE7002380F83E30FFF7BD
:1019C0000FFFB8E7704708B590F83D30DBB2222B27
:1019D00001D0002008BD438D9BB2032B13D90368AF
:1019E0001A69436A591C41621A70438D013B9BB2CC
:1019F0004385438D9BB2032BEBD10268536823F4DC
:101A000080635360E5E7012BE3D80268136823F491
:101A1000806313600268536823F4E06353600368D3
:101A20001A69436A591C41621A70438D013B9BB28B
:101A30004385202380F83D300023036390F83E3037
:101A4000DBB2402B05D0002380F83E30FFF719FEB3
:101A5000BFE7002380F83E30FFF7B4FFB9E708B5D1
:101A6000C26A438D9BB2042B13D0438D9BB2032BD0
:101A70001FD0438D9BB2022B30D003681A69436A92
:101A8000591C41621A70438D013B9BB24385002073
:101A900008BD0268536823F48063536003681A69C1
:101AA000436A591C41621A70438D013B9BB24385C6
:101AB000EDE70268536823F480635360026813689B
:101AC00023F48063136003681A69436A591C4162F6
:101AD0001A70438D013B9BB24385D8E7013A012A36
:101AE0002DD90268136843F40073136003681A6900
:101AF000436A591C41621A70438D013B9BB2438576
:101B000003681A69436A591C41621A70438D013B8C
:101B10009BB243850268536823F4407353602023CB
:101B200080F83D300023036390F83E30DBB2402B59
:101B300010D0002380F83E30FFF7A3FDA7E702682E
:101B4000136823F4806313600268136843F480739E
:101B50001360CBE7002380F83E30FFF733FF96E7B2
:101B60007047704710B5044690F83D30293B012B73
:101B700037D990F83D30DBB2602B07D003685B6843
:101B800013F4006F02D1202380F83D30002323633B
:101B900084F83E302268136823F4006313602368DE
:101BA0005A6812F4006F3FD05A6822F400625A60FB
:101BB000626B92F83530DBB2012B18D03A4B1365CB
:101BC000606BFEF749FE00283FD02268136823F0BF
:101BD00001031360202384F83D30606B036D984748
:101BE00033E000230363282380F83D30D2E7A36B62
:101BF0002D4A1A65A06BFEF72FFE30B323685A6991
:101C000012F0400F04D01A69636A591C61621A709D
:101C10002268136823F001031360202384F83D3009
:101C2000A06B036D984710E094F83D20D2B2602A73
:101C300011D05A6912F0400F04D01A69636A591C16
:101C400061621A702046FFF78BFF94F83D30DBB2DB
:101C5000282B17D010BD202284F83D2000222264BA
:101C60005A6912F0400F04D01A69636A591C616204
:101C70001A702268136823F0010313602046FFF7EF
:101C800070FFE2E7236C13F0040FE3D0074BE3622D
:101C900000232363202284F83D2084F83E30204630
:101CA000FFF753FDD6E700BFED1F00080000FFFF60
:101CB00010B582B090F83D30DBB201684A6822F47A
:101CC000E0624A6000220192026851690191116844
:101CD00041F001011160019A01680A6822F48062F2
:101CE0000A6001684A6812F4006F14D090F83D2031
:101CF000D2B2222A0AD090F83D20D2B22A2A05D0A8
:101D0000426B1268526892B2428504E0826B12689C
:101D1000526892B24285428D92B2F2B14A6912F093
:101D2000040F08D00969426A541C44621170428D44
:101D3000013A92B242850268516911F0400F08D011
:101D40001169426A541C44621170428D013A92B288
:101D50004285026C42F004020264026CA2B9282B94
:101D600015D02A2B13D0292B11D0026B222A01D097
:101D7000222B17D100230363202280F83D2080F816
:101D80003E30FFF7A5FC0DE0FFF7ECFE0AE0074B45
:101D9000C36200230363202280F83D2080F83E3098
:101DA000FFF7D3FC002002B010BD00BF0000FFFF12
:101DB000F8B5054603689F695C695E6890F83E3037
:101DC000DBB2102B25D0402B23D04C4B234013B13A
:101DD00016F4007F6ED14A4B234013B116F4007FF6
:101DE0006BD1484B3B40002B6FD0474B234033B166
:101DF00016F4806F03D0454B2340002B61D0434B3A
:101E0000234053B316F4007F27D02846FEF75AFF2D
:101E100023E014F0011F02D016F4007F1ED13C4BCA
:101E2000234013B116F4007F1CD1344B234013B16F
:101E300016F4007F1AD1334B3B401BB3324B234087
:101E40002BB116F4806F02D0304B234093B12F4B4F
:101E5000234013B116F4007F10D1F8BD2846FEF7D9
:101E600000FEE8E72846FEF741FEE4E72846FEF7D5
:101E700043FEE0E72846FFF7B4FCEEE72846FFF70D
:101E800053FDEAE7234B23402BB116F4806F02D0B9
:101E90001E4B234053B11D4B2340002BDDD016F4C5
:101EA000007FDAD02846FFF7DAFDD6E72846FFF7AD
:101EB0008AFDD2E7FFF735FCCFE72846FFF7F8FEAB
:101EC000CBE72846FFF7DFFBC7E7124B23402BB1D8
:101ED00016F4806F02D00D4B234053B10B4B2340BF
:101EE000002BBAD016F4007FB7D02846FEF7F9FED3
:101EF000B3E72846FFF7EDFBAFE700BF02000100A4
:101F00001000010004001000800001000400010026
:101F1000080001004000010070B5044603685D69D7
:101F20005E68314A154209D016F4807F06D0026CF3
:101F300042F0010202646FF480725A6115F4813F2D
:101F40000AD016F4807F07D0236C43F00203236489
:101F500023686FF400725A6115F4823F1AD016F4A8
:101F6000807F17D094F83E30DBB2628D91B294F846
:101F70003D20D2B2206B202B1DD0236C43F00403F4
:101F8000236494F83E30DBB2102B22D023686FF428
:101F900080625A6115F4843F0AD016F4807F07D01E
:101FA000236C43F00803236423686FF400625A61D2
:101FB000236CA3B970BD0029DFD1212A05D0292ABD
:101FC00003D0282AD9D12128D7D12046FFF7BEFB3C
:101FD000E0E72268136843F400731360D6E72046F5
:101FE000FFF7C0FDE6E700BF0001010008B5806B08
:101FF0000268136823F48063136000234385426BF7
:102000001365826B136590F83D30DBB2602B0DD009
:10201000202380F83D30002380F83E3002681368AA
:1020200023F001031360FFF79BFD08BD202380F818
:102030003D30002380F83E3003640268136823F0CB
:1020400001031360FFF78DFDEFE790F83D00704747
:10205000006C7047002800F0BB8170B582B0044668
:10206000036813F0010F3BD0A74B9B6803F00C03F0
:10207000042B2CD0A44B9B6803F00C03082B21D01D
:102080006368B3F5803F4FD0B3F5A02F52D09E4B7D
:102090001A6822F480321A601A6822F480221A60C8
:1020A0006368002B50D0FEF7ADFA0546964B1B68CF
:1020B00013F4003F14D1FEF7A5FA401B6428F5D9AC
:1020C00003208AE1904B5B6813F4800FD8D08E4BCD
:1020D0001B6813F4003F03D06368002B00F07A8183
:1020E000236813F0020F55D0874B9B6813F00C0F39
:1020F0003ED0854B9B6803F00C03082B33D0E3687C
:10210000002B68D0814B01221A60FEF77BFA05464E
:102110007D4B1B6813F0020F54D1FEF773FA401B7E
:102120000228F5D9032058E1774A136843F4803335
:102130001360B5E7744B1A6842F480221A601A687B
:1021400042F480321A60ABE7FEF75CFA05466E4B4C
:102150001B6813F4003FC3D0FEF754FA401B6428F9
:10216000F5D9032039E1684B5B6813F4800FC6D1C1
:10217000654B1B6813F0020F04D0E368012B01D0FC
:1021800001202AE1604A136823F0F803216943EA39
:10219000C1031360236813F0080F40D0636963B371
:1021A0005B4B01221A60FEF72DFA0546564B5B6F1A
:1021B00013F0020F33D1FEF725FA401B0228F5D9A0
:1021C00003200AE1504A136823F0F803216943EA27
:1021D000C1031360DEE74D4B00221A60FEF712FACE
:1021E0000546494B1B6813F0020FD3D0FEF70AFADD
:1021F000401B0228F5D90320EFE0454B00221A606E
:10220000FEF700FA0546404B5B6F13F0020F06D055
:10221000FEF7F8F9401B0228F5D90320DDE023681A
:1022200013F0040F79D0384B1B6C13F0805F33D15F
:1022300000230193344B1A6C42F080521A641B6CD9
:1022400003F080530193019B0125324B1B6813F46B
:10225000807F23D0A368012B34D0052B38D02A4BA4
:102260001A6F22F001021A671A6F22F004021A672D
:10227000A368002B36D0FEF7C5F90646224B1B6F2C
:1022800013F0020F48D1FEF7BDF9801B41F28833ED
:102290009842F3D90320A0E00025D6E71D4A136831
:1022A00043F480731360FEF7ADF90646194B1B68C3
:1022B00013F4807FCED1FEF7A5F9801B0228F5D953
:1022C00003208AE0104A136F43F001031367CFE73E
:1022D0000D4B1A6F42F004021A671A6F42F00102A6
:1022E0001A67C5E7FEF78EF90646074B1B6F13F01A
:1022F000020F11D0FEF786F9801B41F28833984215
:10230000F3D9032069E000BF0038024000004742D3
:10231000800E474200700040E5B9A369002B5BD0F6
:10232000304A926802F00C02082A58D0022B17D0CB
:102330002D4B00221A60FEF765F90446294B1B68F5
:1023400013F0007F42D0FEF75DF9001B0228F5D99B
:10235000032042E0234A136C23F080531364DCE72C
:10236000214B00221A60FEF74DF905461D4B1B68F4
:1023700013F0007F06D0FEF745F9401B0228F5D97F
:1023800003202AE0E369226A1343626A43EA821364
:10239000A26A5208013A43EA0243E26A43EA02634C
:1023A000104A5360104B01221A60FEF72BF90446C5
:1023B0000C4B1B6813F0007F06D1FEF723F9001BBE
:1023C0000228F5D9032008E0002006E0002004E000
:1023D00001207047012000E0002002B070BD012004
:1023E000FBE700BF0038024060004742324B9B6869
:1023F00003F00C03042B5CD0082B01D02F4870474E
:102400002DE9F04B2C4B5A6802F03F025B6813F445
:10241000800F2BD0284B5B68C3F388131E46002720
:102420005C010025E41A65EB0705A90141EA946106
:10243000A001001B61EB0501CB0043EA5073C4000F
:10244000A01943EB07014B0243EAD0534402204654
:1024500019460023FDF7BCFE174B5B68C3F301432D
:1024600001335B00B0FBF3F0BDE8F08B124B5B680F
:10247000C3F388131E4600275C010025E41A65EBB0
:102480000705A90141EA9461A001001B61EB050168
:10249000CB0043EA5073C400A01943EB07018B0241
:1024A00043EA90538402204619460023FDF790FE2C
:1024B000D2E70348704700BF003802400024F40010
:1024C00000127A00002800F09D8070B504464F4B42
:1024D0001B6803F00F038B4209D2CBB24B4A137037
:1024E000136803F00F038B4201D0012070BD2368F5
:1024F00013F0020F17D013F0040F04D0444A93686E
:1025000043F4E0539360236813F0080F04D0404A6B
:10251000936843F4604393603D4A936823F0F0036B
:10252000A068034393600D46236813F0010F32D077
:102530006368012B21D09A1E012A25D9344A1268DA
:1025400012F0020F60D032498A6822F0030213436E
:102550008B60FEF757F806462D4B9B6803F00C0383
:102560006268B3EB820F16D0FEF74CF8801B41F285
:1025700088339842F0D90320B8E7254A126812F44C
:10258000003FE0D10120B1E7214A126812F0007F3C
:10259000D9D10120AAE71D4B1B6803F00F03AB4202
:1025A00009D9EAB2194B1A701B6803F00F03AB424A
:1025B00001D001209AE7236813F0040F06D0144AD3
:1025C000936823F4E053E1680B439360236813F0AE
:1025D000080F07D00E4A936823F46043216943EA49
:1025E000C1039360FFF702FF094B9B68C3F303131A
:1025F000084AD35CD840084B18600020FDF7B8FFAC
:10260000002073E70120704701206FE7003C024083
:1026100000380240B4C0020808000020014B1868CE
:10262000704700BF0800002008B5FFF7F7FF044B14
:102630009B68C3F38223034AD35CD84008BD00BF24
:1026400000380240C4C0020808B5FFF7E7FF044B9A
:102650009B68C3F34233034AD35CD84008BD00BF34
:1026600000380240C4C0020810B4036A046A24F0AF
:1026700001040462846924F0F00444EA021223F0A5
:102680000A030B43826103625DF8044B704710B488
:10269000036A23F0100303628469036A24F470441C
:1026A00044EA023223F0A00343EA01138261036289
:1026B0005DF8044B7047836823F0700341F0070115
:1026C00019438160704710B4846824F47F4442EA5F
:1026D00003230B43234383605DF8044B7047026878
:1026E000D36843F00103D3600268136843F0010329
:1026F0001360002070470268D36823F00103D360A1
:102700000368196A41F21112114208D1196A40F2A4
:102710004442114203D11A6822F001021A600020DB
:10272000704790F83830012B7DD010B50446012356
:1027300080F83830022380F839300268936823F437
:102740007F4323F0770393600B68402B57D010D959
:10275000702B3ED01FD8502B47D0602B32D1CA6887
:1027600049680068FFF793FF60212068FFF7A3FF27
:1027700028E0102B4DD008D9202B4FD0302B21D161
:1027800030210068FFF797FF1CE0DBB900210068EB
:10279000FFF791FF16E0B3F5805F0ED0B3F5005F51
:1027A00010D1CB684A6889680068FFF78CFF2268FF
:1027B000936843F48043936004E00268936823F0D5
:1027C00007039360012384F83930002084F838002F
:1027D00010BDCB684A6889680068FFF774FF2268FB
:1027E000936843F077039360ECE7CA684968006830
:1027F000FFF73AFF50212068FFF75DFFE2E7CA6864
:1028000049680068FFF730FF40212068FFF753FF59
:10281000D8E710210068FFF74EFFD3E720210068BA
:10282000FFF749FFCEE702207047704770477047B7
:10283000704710B5044603681A6912F0020F11D0F0
:10284000DA6812F0020F0DD06FF002021A61012354
:10285000037603689B6913F0030F70D0FFF7E6FF60
:102860000023237623681A6912F0040F12D0DA6865
:1028700012F0040F0ED06FF004021A6102232376C7
:1028800023689B6913F4407F5FD02046FFF7CEFF9B
:102890000023237623681A6912F0080F12D0DA6831
:1028A00012F0080F0ED06FF008021A61042323768D
:1028B0002368DB6913F0030F4ED02046FFF7B6FF05
:1028C0000023237623681A6912F0100F12D0DA68F9
:1028D00012F0100F0ED06FF010021A610823237649
:1028E0002368DB6913F4407F3DD02046FFF79EFF4D
:1028F0000023237623681A6912F0010F03D0DA68E7
:1029000012F0010F36D123681A6912F0800F03D03C
:10291000DA6812F0800F34D123681A6912F0400F80
:1029200003D0DA6812F0400F32D123681A6912F02E
:10293000200F03D0DA6812F0200F30D110BDFFF75E
:1029400074FF2046FFF773FF8AE72046FFF76DFF0D
:102950002046FFF76CFF9BE72046FFF766FF204607
:10296000FFF765FFACE72046FFF75FFF2046FFF764
:102970005EFFBDE76FF001021A61204600F0F8FB30
:10298000C1E76FF080021A61204600F0B2F8C3E799
:102990006FF040021A612046FFF74AFFC5E76FF06B
:1029A00020021A61204600F0A3F8C7E703682E4A08
:1029B000904212D0B0F1804F0FD0A2F57C429042ED
:1029C0000BD002F58062904207D002F580629042FF
:1029D00003D002F57842904203D123F070034A6895
:1029E0001343214A90422AD0B0F1804F27D0A2F55C
:1029F0007C42904223D002F5806290421FD002F5C3
:102A0000806290421BD002F57842904217D002F5C6
:102A10007052904213D002F5806290420FD002F5BE
:102A2000806290420BD0A2F59832904207D002F516
:102A30008062904203D002F58062904203D123F479
:102A40004073CA68134303608B68C3620B68836278
:102A5000054B984203D003F58063984201D10B697E
:102A6000036301234361704700000140A8B110B522
:102A7000044690F839305BB1022384F83930211DC7
:102A80002068FFF793FF012384F83930002010BD40
:102A900080F8383001F05CF9EEE70120704790F8DB
:102AA0003830012B22D030B4012280F838200223A4
:102AB00080F839300468636823F070036360046849
:102AC00063680D682B4363600468A36823F0800388
:102AD000A3600468A36849680B43A36080F83920A9
:102AE000002380F83830184630BC70470220704709
:102AF000704770472DE9F843044601680A6922F4DB
:102B00004052C36813430B610168CA6822F416423D
:102B100022F00C0283680069034360690343E069A3
:102B200003431343CB6021684A6922F44072A369CE
:102B300013434B61E369B3F5004F60D02368B84A93
:102B4000934200F0148102F58062934200F00F81FD
:102B5000FFF76AFD00EB800000EB80006568AD00C8
:102B6000B0FBF5F5AF4FA7FB05356D092E01FFF75B
:102B70005BFD00EB800000EB80006568AD00B0FB02
:102B8000F5F9FFF751FD00EB800000EB8000656870
:102B9000AD00B0FBF5F5A7FB05356D094FF06408F6
:102BA00008FB15952D013235A7FB05356D0905F09C
:102BB000F0053544FFF738FD00EB800000EB8000A6
:102BC0006668B600B0FBF6F6FFF72EFD00EB80005E
:102BD00000EB800063689B00B0FBF3F0A7FB0030C4
:102BE000400908FB10684FEA081808F13208A7FBF3
:102BF0000837C7F3431723682F449F600DE123680C
:102C0000874A93425BD002F58062934257D0FFF728
:102C10000BFD00EB800000EB800065686D00B0FBF1
:102C2000F5F5804FA7FB05356D092E01FFF7FCFC7C
:102C300000EB800000EB800065686D00B0FBF5F9EB
:102C4000FFF7F2FC00EB800000EB800065686D0090
:102C5000B0FBF5F5A7FB05356D094FF0640808FBDF
:102C60001595ED003235A7FB05356D096D0005F4AE
:102C7000F8753544FFF7D8FC00EB800000EB8000CE
:102C800066687600B0FBF6F6FFF7CEFC00EB80003E
:102C900000EB800063685B00B0FBF3F3A7FB03234A
:102CA0005B0908FB13684FEAC80808F13208A7FB64
:102CB0000837C7F3421723682F449F60ADE0FFF742
:102CC000C3FC00EB800000EB800065686D00B0FB8A
:102CD000F5F5544FA7FB05356D092E01FFF7B4FC40
:102CE00000EB800000EB800065686D00B0FBF5F93B
:102CF000FFF7AAFC00EB800000EB800065686D0028
:102D0000B0FBF5F5A7FB05356D094FF0640808FB2E
:102D10001595ED003235A7FB05356D096D0005F4FD
:102D2000F8753544FFF790FC00EB800000EB800065
:102D300066687600B0FBF6F6FFF786FC00EB8000D5
:102D400000EB800063685B00B0FBF3F3A7FB032399
:102D50005B0908FB13684FEAC80808F13208A7FBB3
:102D60000837C7F3421723682F449F6055E0FFF7E9
:102D70006BFC00EB800000EB80006568AD00B0FBF1
:102D8000F5F5284FA7FB05356D092E01FFF75CFC13
:102D900000EB800000EB80006568AD00B0FBF5F94A
:102DA000FFF752FC00EB800000EB80006568AD008F
:102DB000B0FBF5F5A7FB05356D094FF0640808FB7E
:102DC00015952D013235A7FB05356D0905F0F00588
:102DD0003544FFF739FC00EB800000EB80006668AB
:102DE000B600B0FBF6F6FFF72FFC00EB800000EB1F
:102DF000800063689B00B0FBF3F0A7FB0030400944
:102E000008FB10684FEA081808F13208A7FB0837DA
:102E1000C7F3431723682F449F60BDE8F88300BFC2
:102E2000001001401F85EB512DE9F04105460F468A
:102E300016469846069C2B681B6837EA03030CBFAE
:102E400001230023B3421DD1B4F1FF3FF3D02CB1D5
:102E5000FDF7D8FBA0EB0800A042ECD92A68D368A4
:102E600023F4D073D3602A68536923F001035361BC
:102E7000202385F8393085F83A30002385F838303A
:102E8000032000E00020BDE8F08158B310B50446EF
:102E900090F839300BB3242384F839302268D36892
:102EA00023F40053D3602046FFF724FE2268136901
:102EB00023F4904313612268536923F02A0353617A
:102EC0002268D36843F40053D3600020E0632023DA
:102ED00084F8393084F83A3010BD80F8383000F08A
:102EE00057FFD8E7012070472DE9F04182B01E4618
:102EF00090F83930DBB2202B55D104460D46904670
:102F0000002955D0002A55D090F83830012B53D0E5
:102F1000012380F838300023C363212380F839303F
:102F2000FDF770FB0746A4F82480A4F8268010E083
:102F300000963B46002280212046FFF775FF0028BF
:102F40003CD12B882268C3F3080353602369C3B9BB
:102F50000235E38C9BB2B3B1E38C013B9BB2E384BB
:102F6000A368B3F5805FE3D000963B460022802142
:102F70002046FFF759FF18BB2A7823685A600135AD
:102F8000E7E70135E5E700963B4600224021204671
:102F9000FFF74AFF0346A8B9202284F8392000220F
:102FA00084F8382000E00223184602B0BDE8F08122
:102FB0000123F9E70123F7E70223F5E70323F3E70A
:102FC0000323F1E70323EFE700B585B000F0F0033A
:102FD0000001C0B243F00C028DF80C2043F008034E
:102FE0008DF80D3040F00C038DF80E3040F00800E5
:102FF0008DF80F0064230093042303AA4E21034895
:10300000FEF708F905B05DF804FB00BFF0000020F2
:1030100000B585B000F0F0030001C0B243F00D022E
:103020008DF80C2043F009038DF80D3040F00D03AE
:103030008DF80E3040F009008DF80F0064230093E6
:10304000042303AA4E210348FEF7E4F805B05DF817
:1030500004FB00BFF000002008B50220FFF7B4FF1A
:103060002820FFF7B1FF0C20FFF7AEFF8020FFF70D
:10307000ABFF08BD10B5044602E00134FFF7C8FFFE
:1030800020780028F9D110BD80B500AF0246C31DDD
:1030900023F00703ADEB030D0449684600F048FF39
:1030A0006846FFF7E7FFBD4680BD00BFCCC0020801
:1030B00008B50120FFF788FF08BD000070B58AB091
:1030C00000240194264B1A6B42F080021A631A6B9B
:1030D00002F080020192019A02941A6B42F00102FE
:1030E0001A631A6B02F001020292029A03941A6B9D
:1030F00042F002021A631A6B02F002020392039A70
:1031000004941A6B42F008021A631B6B03F0080365
:103110000493049B134D22464FF480512846FDF73B
:103120009AFC48F20113059306940226079605A916
:103130000D48FDF7A5FB372305930694079605A9CF
:103140000A48FDF79DFB4FF4805305930123069336
:103150000794089405A92846FDF792FB0AB070BDB4
:1031600000380240000C024000000240000402400F
:103170000268164B9A4200D0704710B5144C236871
:10318000144AD35C002211461348FDF74EFB236816
:1031900001332360114A934206D001211048FDF704
:1031A00053FC012803D010BD00222260F5E70D4832
:1031B000FFF7A1FA00210848FDF704FB01224FF4B4
:1031C00080510948FDF747FCEDE700BF00080040CB
:1031D0008C000020584700089801002040E10100C1
:1031E00000000240B4000020000C024084B030B562
:1031F00083B006AC84E80F009DF86C509DF87440D5
:103200004FF4FA73009323461C9A294606A8FEF74A
:1032100001F830B106A8FEF71BFF0428F0D000200B
:1032200000E0012003B0BDE8304004B0704784B036
:1032300030B583B006AC84E80F009DF86C509DF863
:1032400074404FF4FA73009323461C9A294606A84B
:10325000FEF7A2F830B106A8FEF7FAFE0428F0D077
:10326000002000E0012003B0BDE8304004B070470A
:1032700010B596B00F238DF8543000238DF85530DB
:10328000094C0223139315AB1293D02311934422BC
:1032900004F11001684600F03FFE94E80F00FFF7CC
:1032A000A5FF16B010BD00BF440100202DE9F04F6E
:1032B00099B006468B4600238DF85C302E4DA5FB59
:1032C0000213DB0803EB83004100521A42EA0312A7
:1032D0008DF85D20294C0227139717AB12934FF0FE
:1032E000D00ACDF844A004F110084FF044094A4632
:1032F0004146684600F010FE94E80F00FFF776FFA5
:1033000001238DF85830A5FB0B23DB0803EB830169
:103310004A00ABEB020B4BEA031B8DF859B0139735
:1033200016AB1293CDF844A04A464146684600F0D9
:10333000F3FD94E80F00FFF759FF8DF85470A5FBDB
:103340000635ED0805EB85025300F61A46EA051529
:103350008DF85550139715AB1293CDF844A04A46FB
:103360004146684600F0D8FD94E80F00FFF73EFFA5
:1033700019B0BDE8F08F00BFCDCCCCCC440100200B
:10338000024B987059701A70704700BF6C02002091
:10339000FEE7000000B583B01248134B0360FDF751
:1033A000C8F980B900220092019269460D48FDF7E4
:1033B00017FA68B9102269460A48FDF711FA60B990
:1033C00003B05DF804FB4FF40B710848FFF7E0FF12
:1033D00040F235210548FFF7DBFF4FF40F7103483A
:1033E000FFF7D6FF9801002000740040D0C002080B
:1033F00000B587B01748184B0360142343600023BF
:1034000083606322C2600361FFF730FB98B906A9AD
:103410004FF4805341F8103D0E48FFF782F978B918
:1034200000230093019369460A48FFF738FB60B90F
:1034300007B05DF804FB40F277210848FFF7A8FFCA
:1034400040F27D210548FFF7A3FF4FF421710348A7
:10345000FFF79EFFB400002000080040D0C0020823
:1034600008B5144B1A78144B1B789A4200D008BD4B
:10347000104BDA78104B5B789A42F8D10D4B9A7961
:103480000D4B9B789A42F2D101224FF400410B4838
:10349000FDF7E1FA0A4B01225A60FFF77BFFFFF7C5
:1034A000A7FF0848FFF71BF900210748FDF753F96C
:1034B000DDE700BFB40100206C020020000C0240D8
:1034C0008C000020B40000209801002010B596B0B8
:1034D000FFF7C6FF374C0123139314AB1293D0238D
:1034E0001193442204F11001684600F015FD94E8A0
:1034F0000F00FFF77BFE2F48FEF7A7FD2028FAD12B
:103500002C4C0723139314AB1293D0231193442212
:1035100004F11001684600F0FFFC94E80F00FFF78B
:1035200086FE9DF8563003F00F021B0903EB830360
:1035300059005318204A53749DF8553003F00F0179
:103540001B0903EB830358000B1893739DF8543049
:1035500003F00F011B0903EB830358000B18D37210
:103560009DF8533003F00F011B0903EB8303580050
:103570000B1853729DF8523003F00F011B0903EB37
:10358000830358000B1893719DF8513003F00F011D
:103590001B0903EB830358000B18D3709DF85030C0
:1035A00003F00F011B0903EB830358000B18137082
:1035B00016B010BD44010020B401002008B50C482D
:1035C0000C4B03600C4B436000238360C3604FF4DB
:1035D0008042026143618361C3610362FDF78CFD38
:1035E00000B908BD4FF414710448FFF7D1FE00BFC5
:1035F000F000002000540040A0860100D0C0020866
:1036000008B50C480C4B03600C4B436000238360EF
:10361000C3604FF48042026143618361C36103620E
:10362000FDF76AFD00B908BD4FF419710448FFF7B2
:10363000AFFE00BF4401002000580040A0860100FA
:10364000D0C0020808B50B480B4B03604FF4E133C0
:10365000436000238360C36003610C224261836185
:10366000C361FFF712FC00B908BD40F2972103487F
:10367000FFF78EFEC801002000440040D0C00208C1
:1036800000B595B0002101912B4B1A6C42F080528D
:103690001A641B6C03F080530193019B0291274B2A
:1036A0001A6842F480421A601B6803F48043029354
:1036B000029B012308934FF48033099302220E9258
:1036C0004FF480030F9304231093A42111911292BD
:1036D000139308A8FEF7BEFC20BB0F23039302231D
:1036E0000493002305934FF4A05306934FF48053A3
:1036F0000793052103A8FEF7E5FEC0B9FEF78EFF8C
:103700000F4BA3FB00308009FCF7E8FF0420FCF717
:10371000FBFF002211464FF0FF30FCF79FFF15B072
:103720005DF804FB4FF401710648FFF731FE40F2EB
:1037300012210448FFF72CFE0038024000700040C0
:10374000D34D6210D0C002082DE9F04788B003AC19
:10375000C44D0FCD0FC42B682370FCF72DFFFFF76E
:103760008FFFFFF7ABFCFFF729FFFFF749FFFFF7DC
:1037700069FFFFF70FFEFFF76FFCFFF779FD0027EA
:10378000B94B1F724FF6FF73102203A9B748FFF71A
:10379000ABFBB946B8463E463D463C4664E0022493
:1037A00062E000224FF48051B148FDF754F9022D38
:1037B00064D0B04B9B79092B63D9AE4B9B79092B15
:1037C0006FD88220FFF700FCAB48FFF753FCA94BF2
:1037D000DB78092B6ED9A74BDB78092B7AD88520AB
:1037E000FFF7F2FBA448FFF745FCA24B1B78092B1F
:1037F00079D9A04B1B78092B00F285809D4B5B7A11
:10380000092B40F289809B4B5B7A0A2B00F2948053
:10381000C220FFF7D9FB9948FFF72CFC954B9B7B07
:10382000092B40F29280C520FFF7CEFB9348FFF7AB
:1038300021FCC620FFF7C8FB02218E4B587CFFF706
:1038400023FC4FF47A70FCF7E3FE012520218C481D
:10385000FDF7FAF8012800F0A9814FF4807189483A
:10386000FDF7F2F801289AD0FFF730FE012C7CD04A
:10387000022C00F01981002CE8D192E7FFF718FC28
:1038800097E78020FFF7A0FB01210020FFF7FCFB5A
:103890008120FFF799FB0121764B9879FFF7F4FB24
:1038A0008BE78020FFF790FB0221724B9879FFF79E
:1038B000EBFB86E78320FFF787FB01210020FFF762
:1038C000E3FB8420FFF780FB01216A4BD878FFF7E8
:1038D000DBFB80E78320FFF777FB0221654BD8787D
:1038E000FFF7D2FB7BE78620FFF76EFB012100206C
:1038F000FFF7CAFB8720FFF767FB01215D4B1878B4
:10390000FFF7C2FB75E78620FFF75EFB0221594BEC
:103910001878FFF7B9FB71E7C020FFF755FB0121CD
:103920000020FFF7B1FBC120FFF74EFB0121514BF7
:10393000587AFFF7A9FB66E7C020FFF745FB022195
:103940004C4B587AFFF7A0FB62E7C320FFF73CFB24
:1039500001210020FFF798FBC420FFF735FB012170
:10396000444B987BFFF790FB5DE701224FF48051B9
:103970003F48FDF770F8012D35D08020FFF724FB7C
:103980004148FFF777FB092F30DD092F3DDCC220CE
:10399000FFF71AFB3848FFF76DFB092E3DDD092EB6
:1039A0004ADC4FF47A70FCF733FE04213448FDF70B
:1039B0004BF8012848D002213148FDF745F801288D
:1039C00044D010212E48FDF73FF8012840D0192F90
:1039D00040D03C2E41D001212948FDF735F801287F
:1039E00054D0022532E7FFF763FBC6E7C020FFF79C
:1039F000EBFA01210020FFF747FBC120FFF7E4FAB3
:103A000001213846FFF740FBBFE7C020FFF7DCFA93
:103A100002213846FFF738FBB9E7C320FFF7D4FA95
:103A200001210020FFF730FBC420FFF7CDFA012170
:103A30003046FFF729FBB2E7C320FFF7C5FA0221A2
:103A40003046FFF721FBACE70024B4E70137B8E7C5
:103A50000136BCE7FFF72CFBBBE7FFF729FB00268D
:103A6000B9E700BF04C102088C000020C801002093
:103A7000000C0240B4010020E0C00208E4C00208CB
:103A80000004024000000240E8C0020848494B7AA6
:103A90000A7A897A0091F1B20020FFF707FC00262C
:103AA000022534463746D1E6012D37D08020FFF776
:103AB0008BFA4048FFF7DEFAB8F1090F31DDB8F1B3
:103AC000090F3DDCC220FFF77FFA3B48FFF7D2FA2F
:103AD000B9F1090F3CDDB9F1090F48DC4FF47A70F8
:103AE000FCF796FD02213548FCF7AEFF012846D0D1
:103AF00010213248FCF7A8FF012843D001212F48AC
:103B0000FCF7A2FF012840D0A24604212B48FCF775
:103B10009BFF012847D02546544697E6FFF7C8FA91
:103B2000C4E7C020FFF750FA01210020FFF7ACFAEC
:103B3000C120FFF749FA01214046FFF7A5FABEE789
:103B4000C020FFF741FA02214046FFF79DFAB9E78E
:103B5000C320FFF739FA01210020FFF795FAC420AE
:103B6000FFF732FA01214846FFF78EFAB3E7C32088
:103B7000FFF72AFA02214846FFF786FAAEE708F176
:103B80000108B5E709F10109B8E709494B7A0A7A52
:103B9000897A00915FFA89F15FFA88F0FFF7F0FB0C
:103BA0004FF0000AB1E7254600244FE6012454E611
:103BB0008C000020FCC00208E0C0020800040240A3
:103BC00010B582B000240094214B5A6C42F480421C
:103BD0005A645A6C02F480420092009A01941A6C62
:103BE00042F080521A641B6C03F080530193019BD6
:103BF0000320FCF721FD224621466FF00B00FCF765
:103C00002DFD224621466FF00A00FCF727FD2246D3
:103C100021466FF00900FCF721FD224621466FF096
:103C20000400FCF71BFD224621466FF00300FCF761
:103C300015FD224621466FF00100FCF70FFD2246DC
:103C400021464FF0FF30FCF709FD02B010BD00BF68
:103C50000038024002680F4B9A4200D0704700B50E
:103C600087B00021009103F5E2331A6C42F0005254
:103C70001A641B6C03F000530093009B30230193E4
:103C800003230293039101A90348FCF7F9FD07B050
:103C90005DF804FB007400400000024010B588B0DD
:103CA0000368274A934204D0264A93421CD008B0A6
:103CB00010BDC02303931223049301230593032310
:103CC00006930423079303A91F48FCF7D9FD00239B
:103CD00001931E4B1A6C42F400121A641B6C03F41D
:103CE00000130193019BE2E74FF440630393122317
:103CF000049301230593032306930423079303A945
:103D00001148FCF7BDFD00240294104B1A6C42F4DC
:103D100080021A641B6C03F480030293029B224608
:103D200021462120FCF79AFC2120FCF7CBFC2246FF
:103D300021462220FCF792FC2220FCF7C3FCB6E7C8
:103D40000054004000580040000402400038024087
:103D500002680E4B9A4200D0704700B583B0002134
:103D6000019103F50C331A6C42F004021A641B6CC7
:103D700003F004030193019B0A461E20FCF76EFC2E
:103D80001E20FCF79FFC03B05DF804FB0008004018
:103D90000268114B9A4200D0704700B587B00023EB
:103DA00000930E4B1A6C42F400321A641B6C03F43D
:103DB00000330093009B0C23019302230293012301
:103DC0000393032304930723059301A90448FCF7F5
:103DD00057FD07B05DF804FB004400400038024086
:103DE000000002407047FEE7FEE7FEE7FEE770478F
:103DF0007047704708B5FCF7F9FBFCF796FC08BD67
:103E000008B50248FEF715FD08BD00BFB40000204C
:103E100008B50248FDF7CCFF08BD00BF44010020F3
:103E200008B50248FEF778F808BD00BF440100203D
:103E30000F49D1F8883043F47003C1F888300D4B36
:103E40001A6842F001021A60002098601A6822F095
:103E5000847222F480321A60074A5A601A6822F487
:103E600080221A60D8604FF000638B60704700BFFB
:103E700000ED00E00038024010300024DFF834D0BC
:103E8000002103E00C4B5B58435004310B480C4BB2
:103E900042189A42F6D30B4A02E0002342F8043B50
:103EA000094B9A42F9D3FFF7C3FF00F011F8FFF76F
:103EB0004BFC7047000002205CC10208000000209B
:103EC000700000207000002078020020FEE7000053
:103ED00070B50D4E0D4CA41BA4100025A54209D1B0
:103EE0000B4E0C4C00F02CFCA41BA4100025A5428A
:103EF00005D170BD56F8253098470135EEE756F8E4
:103F0000253098470135F2E754C1020854C1020830
:103F100054C1020858C1020810B5431E0A44914218
:103F200000D110BD11F8014B03F8014FF7E7000075
:103F30000EB400B59CB01DAB029006906FF000412E
:103F4000094807910491094953F8042B0591006829
:103F5000019302A900F066F8029B00221A701CB0BF
:103F60005DF804EB03B070470C0000200802FFFF6F
:103F70002DE9F0478E689E4282460C46904699464F
:103F800037D88A8912F4906F31D0256809696F1A81
:103F90006569022305EB450595FBF3F509F101037E
:103FA0003B449D4238BF1D46530530D5294600F09D
:103FB0001FFB064650B90C23CAF80030A38943F012
:103FC0004003A3814FF0FF30BDE8F0873A462169F6
:103FD000FFF7A2FFA38923F4906343F08003A3813A
:103FE000266165613E44ED1B2660A5604E464E4548
:103FF00000D94E4632464146206800F091FAA36847
:104000009B1BA36023681E4426600020DCE72A4631
:1040100000F048FB06460028E2D12169504600F036
:1040200099FAC8E72DE9F04F9DB0804603938B893C
:104030001D060C4616460FD50B696BB9402100F0E2
:10404000D7FA2060206128B90C23C8F800304FF05F
:10405000FF30C7E0402363610023099320238DF8DC
:10406000293030238DF82A304FF0010B37463D467A
:1040700015F8013B0BB1252B3ED1B7EB060A0BD04F
:104080005346324621464046FFF772FF013000F0AA
:10409000A480099B534409933B78002B00F09D803A
:1040A00000234FF0FF32CDE90523049307938DF8E9
:1040B00053301A932F46052217F8011B4F48FCF77F
:1040C00007FA049BD0B9D90644BF20228DF85320AB
:1040D0001A0744BF2B228DF853202A782A2A15D09C
:1040E000079A2F4600200A25394611F8013B303B3C
:1040F000092B4DD9B8B10FE02F46B8E73F4A801AD7
:104100000BFA00F0184304903D46D3E7039A111DC3
:1041100012680391002A01DB079204E0524243F047
:104120000203079204933B782E2B0CD17B782A2B29
:1041300033D1039B1A1D1B680392002BB8BF4FF0AD
:10414000FF33023705932E4D397803222846FCF7BA
:10415000BFF938B14023401B03FA00F0049B03432E
:1041600001370493397827488DF8281006227E1CE1
:10417000FCF7AEF9002838D0234B13BB039B073361
:1041800023F0070308330393099B4B4409936DE71E
:1041900005FB023201200F46A6E7002301370593F5
:1041A00019460A25384610F8012B303A092A03D956
:1041B000002BC8D00591C6E705FB01210123074666
:1041C000F0E703AB00932246104B04A94046AFF33F
:1041D0000080B0F1FF3F8146D6D1A3895B063FF551
:1041E00036AF09981DB0BDE8F08F03AB00932246AF
:1041F000064B04A9404600F081F8EAE718C102081E
:104200001EC1020822C1020800000000713F000820
:104210002DE9F04791461F468A680B69DDF820803A
:104220009342B8BF1346C9F8003091F843200646C0
:104230000C4612B10133C9F800302368990642BF19
:10424000D9F800300233C9F80030256815F00605AA
:1042500007D104F1190AE368D9F800209B1AAB4290
:1042600028DC94F843302268003318BF01239206FB
:104270002DD404F1430239463046C047013020D0E6
:104280002368E568D9F8002003F00603042B08BF73
:10429000AD1AA36822690CBF25EAE5750025934293
:1042A000C4BF9B1AED184FF000091A344D451AD1BE
:1042B000002008E00123524639463046C04701300D
:1042C00003D14FF0FF30BDE8F0870135C3E7E118B7
:1042D0005A1C302081F84300224494F8451082F89B
:1042E00043100233C5E70123224639463046C04712
:1042F0000130E6D009F10109D8E700002DE9F043CB
:1043000001F1430C0C46097E85B06E29174606461E
:1043100098460C9A00F0B38022D8632936D00AD888
:10432000002900F0B980582900F0838004F142058B
:1043300084F8421032E0642901D06929F6D120685E
:104340001368050603F104012AD51B681160002BD0
:1043500003DA2D225B4284F843206F480A2239E0B9
:10436000732900F09D8008D86F2920D07029DDD1F5
:10437000236843F02003236003E0752917D07829D0
:10438000D4D1782384F84530644855E01368191D6A
:104390001B68116004F1420584F8423001238CE06F
:1043A0001B68116010F0400F18BF1BB2CFE71368F5
:1043B0002568181D1060280601D51B6802E06806F4
:1043C000FBD51B8854486F2914BF0A2208220021FC
:1043D00084F843106568A560002DC0F295802168BF
:1043E00021F004012160002B3DD1002D40F08E8092
:1043F0006546082A0BD12368DB0708D52369626864
:104400009A42DEBF302305F8013C05F1FF35ACEBE5
:1044100005032361CDF800803B4603AA21463046C0
:10442000FFF7F6FE01304DD14FF0FF3005B0BDE88B
:10443000F083394884F84510136821681D1D1B68F6
:1044400015600A060BD5CA0744BF41F02001216060
:104450001BB9226822F0200222601022B7E74D0625
:1044600048BF9BB2EFE76546B3FBF2F102FB1133A5
:10447000C35C05F8013D0B460029F5D1B9E7136887
:1044800025686169181D106028061B6801D5196030
:1044900002E06A06FBD51980002323616546B9E76F
:1044A0001368191D11601D68626800212846FCF719
:1044B0000FF808B1401B606063682361002384F833
:1044C0004330A7E723692A4639463046C0470130C2
:1044D000AAD023689B0713D4E068039B9842B8BF17
:1044E0001846A3E701234A4639463046C047013003
:1044F0009AD00135E368039A9B1AAB42F2DCEBE7F2
:10450000002504F11909F5E7002BACD1037884F8F4
:10451000423004F142056CE729C102083AC10208A1
:10452000884210B501EB020307D8421E99420AD017
:1045300011F8014B02F8014FF8E78342F5D98118D1
:10454000D21AD34200D110BD13F8014D01F8014D2C
:10455000F7E7000038B50546002945D051F8043C7E
:104560000C1F002BB8BFE41800F0D2F81F4A1368E4
:10457000104633B9636014602846BDE8384000F047
:10458000C8B8A3420CD921686218934204BF1A68C4
:104590005B68636004BF521822600460ECE7134656
:1045A0005A680AB1A242FAD919685818A0420BD128
:1045B00020680144581882421960DDD110685268A1
:1045C0005A6001441960D7E702D90C232B60D3E766
:1045D000206821188A4204BF11685268626004BFD3
:1045E000091821605C60C7E738BD00BFA400002047
:1045F00070B5CD1C25F0030508350C2D38BF0C25F2
:10460000002D064601DBA94203D90C2333600020AC
:1046100070BD00F07DF8214A1468214691B9204C04
:1046200023681BB9304600F063F820602946304605
:1046300000F05EF8431C24D10C233360304600F0B8
:1046400068F8E4E70B685B1B18D40B2B0FD90B60E1
:10465000CD50CC18304600F05CF804F10B00231D5F
:1046600020F00700C31AD3D05A42E250D0E78C4260
:104670004B6816BF636013600C46EBE70C46496855
:10468000CCE7C41C24F00304A04205D0211A304614
:1046900000F02EF80130CFD02560DBE7A400002029
:1046A000A8000020F8B5074614460E4621B9114669
:1046B000BDE8F840FFF79CBF22B9FFF74BFF254646
:1046C0002846F8BD00F026F8A0420FD22146384611
:1046D000FFF78EFF05460028F2D031462246FFF74D
:1046E0001BFC31463846FFF735FFE9E73546E7E77B
:1046F00038B5064C002305460846236000F012F842
:10470000431C02D1236803B12B6038BD7402002022
:104710007047704751F8043C181F002BBCBF0B5862
:10472000C0187047044A05491368002B08BF0B46A0
:104730001844106018467047AC0000207802002032
:10474000F8B500BFF8BC08BC9E467047F8B500BF7E
:08475000F8BC08BC9E4670474E
:10475800524946465479020057415645666D7420C1
:10476800100000000100020044AC0000885801005D
:104778000200080064617461307902007F807F7FE5
:104788007F7F7F7F81818181838387878B8B9190D6
:1047980095959797A1A1B3B2BEBECAC9DAD9E6E684
:1047A800EDEDF2F2F5F5F3F3EBEBDFDFCECEB8B8D3
:1047B800A0A081815F5F44442B2C1A1B10100303B7
:1047C800000005050E0E20202D2D36375050686844
:1047D800676765666262575755554E4F4546484864
:1047E8004E4F4F4F515157575C5C676774747F7FCA
:1047F8009292ABABBBBBC4C4CACAC7C7C9C9CCCCED
:10480800C4C4BFBFBABAB3B3AEAEA3A392928383F4
:1048180073735F604E4E45453E3E3636333334340F
:10482800383841414A4A52525A5A5F5F6969767626
:1048380088879C9CA8A8B3B3BCBCBFBFC1C1BFBF7D
:10484800BABAB5B5ADADA0A09191808070706A6A12
:104858006767666664645B5C5E5E656569697272FB
:104868007A7A828291919C9BA2A2A7A7A5A6A1A1D0
:104878009A9A93938D8D828278786F6F6464575774
:104888004C4D474743434242434345454D4D585895
:104898005E5F676772727C7C8A8A9898A5A5B0B0BB
:1048A800B5B5BABABABABBBBBBBBB7B7B3B3AFAF90
:1048B800AAAAA6A6A3A3A2A29F9F9C9B9B9B9A9AE7
:1048C800969693938C8C858580807B7B7A797A7990
:1048D8007B7A7A7A777776767474737372726F6F7D
:1048E8006C6C696965656060595A51514A4B44441A
:1048F8003D3E3A3A3A3A3B3B3C3C404046464F4FB5
:104908005C5C6868757581818B8B95959D9DA4A469
:10491800A8A8A5A5A1A29D9D979794948C8C838304
:104928007C7C73736D6D68686464636366666767CF
:1049380067676C6C72727C7C8A899696A4A4B2B202
:10494800BCBBC0C0C1C1BDBDBABAB7B7AFAFA7A7DE
:104958009E9E94948E8E888882827E7D78787474E8
:1049680071716F6F6F6F6C6C6A6A6C6C6E6E707061
:10497800747474747676787879797B7B7D7D7E7EA5
:10498800808081818181818181817F7F7A7A727340
:1049980068695F5F55554C4C44444040404044442E
:1049A8004B4B53535E5E6E6D7B7B88889797A5A5AE
:1049B800B1B1BDBDC6C6CECED7D6DCDCDFDFDFDF0A
:1049C800DBDBD5D5CCCCBFBFAFAFA0A08F8F8080AD
:1049D800727266665E5D5857545352525353575617
:1049E80059595D5D64646A6A707075767A7A7D7DFE
:1049F800808080807F7F7E7E7D7D7A7A77777373F3
:104A08006F706D6D696A6667646563636161606034
:104A18005B5B555652534F4F4B4C4B4B4D4D515181
:104A280057575D5E64646F6F7A7A85859090979723
:104A38009C9CA1A1A1A1A1A19E9E989895959493B3
:104A4800919190908C8C878781817A7A777774742A
:104A5800747476767A7A808087878F8F9898A3A3E4
:104A6800ADADB5B5BDBDC4C4C7C7C7C7C3C3BABA62
:104A7800B2B2A7A79B9B909083837676696A5C5CA9
:104A8800505046463E3E393937373535363639394E
:104A98003B3B3E3E43434B4B53535D5D66666F6FF6
:104AA800797983838E8E9A9AA5A5AFAFB8B7BDBD25
:104AB800BEBEBCBCB6B6AEAEA4A498988D8D83839A
:104AC800797971716B6B6969676768686C6C71710A
:104AD80077777F7F8787908F9898A1A0A8A8B0B094
:104AE800B8B8BDBDC1C1BFBFB9B9B2B2A6A7989881
:104AF8008A8A7C7C6F6F6363595951514C4C4C4C7A
:104B08004B4B4E4E55545D5C6666707077777D7D75
:104B1800838388878D8D8F8F8F8F8C8C85857E7E04
:104B28007474696A606056564F4F49494545434316
:104B380040403E3E3E3E3D3D3E3E404045454C4C5D
:104B480053535E5E6C6C7D7D9191A2A2B1B1C0C0E1
:104B5800CBCBD5D5DBDBDEDEE0E0DEDED8D8CFCFD1
:104B6800C6C6BBBBAFAFA4A497978B8B7F7F74746B
:104B78006A6B62625C5C5A5A5D5D5F5F64646C6C10
:104B88007474807F8A8A94939B9A9D9D9F9F9F9F10
:104B98009A9A93938A8A7E7E727265665A5A5050A0
:104BA80046463F403C3C3C3C3F3F44444D4D5959B0
:104BB80066667474828290909B9BA3A3A9A9ACACEF
:104BC800AEAEAFAFADADABABA7A7A2A29B9B949483
:104BD8008C8C84847D7D75756C6C666661615B5BAD
:104BE800585858585A5A63636C6B757581818C8B09
:104BF8009998A6A6B1B1BBBBC3C3C8C8CCCBCCCC13
:104C0800CBCBC9C9C5C5BEBEB4B4A9A99B9B8C8C66
:104C18007B7B67675555444436362B2B2424222248
:104C2800212123232A2A32323B3C474752525D5DD9
:104C380069697373797A7E7F80807E7E79797272F2
:104C4800696963635C5C54544F4F4C4C4C4D5151F3
:104C5800575761616E6E7E7D8C8C9A9AA5A5B1B10D
:104C6800BEBDC7C7D0CFD6D5D8D8D9D9D7D7D5D52F
:104C7800D0D0C9C9C0C0B7B7ABAB9F9F9292868648
:104C880079796F6F676762625D5D5B5B5B5B5B5BDE
:104C98005A5A5C5C5E5E626268686C6C71717978A5
:104CA800808087878E8E94949A9A9F9EA1A1A1A1B5
:104CB800A0A09D9D97978E8E85857A7A6F6F646484
:104CC80058584E4E474741413F3F3E3E404046467A
:104CD8004E4E5959666672727E7E88889191979772
:104CE8009E9EA3A3A4A4A3A3A1A19D9D9A9A9797CE
:104CF800939391918F8F8E8E8F8F909092929494A0
:104D0800969598989A9A9F9FA2A2A4A4A6A6A7A6A9
:104D1800A6A6A5A5A3A3A0A09C9C96958D8D8585E8
:104D28007E7E76766E6E67675E5F595954544E4E36
:104D38004848444440403C3C3838333330302E2EC9
:104D48002F2F333338383F3F46464F4F5B5B6868F9
:104D58007676858591919E9EAAAAB2B2B8B8BCBC57
:104D6800BCBCB9B9B3B3ABABA2A297978B8B7F7F0F
:104D780073736969646462625F60626166666D6CC0
:104D880076757F7F898994939C9CA6A5AEAEB4B4B2
:104D9800BABABEBEC0C0BFBFBDBDBABAB6B5B0B064
:104DA800A9A9A1A19A9A93938B8B83837C7C76760D
:104DB80071716D6D6B6B6868646462625F5F61617D
:104DC800656567676B6B707074747A7A7D7D7F7FB9
:104DD80082828585838380807C7C74746C6C61623C
:104DE80055564A4A3F40373731322D2E2D2D323213
:104DF8003A3A4646555569697D7D9291A8A8BFBF44
:104E0800D3D3E4E4F2F2FAFAFFFFFFFFFAFAF0F084
:104E1800E3E3D2D2C0C1ADAD999986867474656555
:104E28005A5A50504A4A44444141414144444B4BE8
:104E380053535C5C65656B6B74747B7B8080858584
:104E480087878687848480817C7D777771716A6B98
:104E5800636460605C5C5859555550504D4D4D4DDC
:104E68004C4C4D4D515156565C5D64656E6E79796A
:104E7800858591919B9BA4A4AAAAAFAFB2B2AFAF0C
:104E8800A9AAA3A39A9A90908585797A6F6F656588
:104E98005D5D595956565656595960606B6B7A7A0A
:104EA8008D8CA09FB1B1C3C3D4D4E1E1ECEBF4F392
:104EB800F7F7F6F6F1F1E6E6D8D8C9C9B6B6A1A172
:104EC8008B8B757561614F4F3D3D2F2F25251F1F1A
:104ED8001D1D1F1F24242D2C38384343504F5D5D62
:104EE800696973737B7B828287878B8B8C8D8C8CB3
:104EF8008B8B8A8A88888787848481817E7E7A7A68
:104F0800757571716D6E6A6A686869696E6E7474B8
:104F18007F7E878791919C9CA6A6B2B2BCBCC4C474
:104F2800CBCACECECECECCCCC8C8C1C1B5B5A6A64C
:104F38009797868676766565545446463A3A32326D
:104F48003030313137373F3F4949545461617272CB
:104F580081818F8F9B9BA4A4ADADB4B4B5B5B5B515
:104F6800AFAFA6A69C9C8C8D7A7B6A6A5959494931
:104F78003B3B2F2F27272323232327272D2D363667
:104F88003F3F46465050595963636F6F7B7B878715
:104F980094949E9EA6A6AEAEB6B6BBBBC0C0C2C217
:104FA800C2C2C2C2BFBFB9B9B3B3ACACA5A59F9FBB
:104FB800999893938E8E8989868685858686898831
:104FC8008C8C909094949A9AA2A2A7A7AAAAACAC07
:104FD800ABABA8A8A2A29A9A9191858579796C6CB5
:104FE800606055554B4B43433A3A3232303030309B
:104FF8002E2E3232383841414D4E5C5C6C6C7B7BD6
:10500800888894949C9CA3A3A7A7A9AAA8A8A2A2AD
:105018009E9E9A9A949491918C8C8888858581819A
:105028007E7E7C7C7878757571716E6F6D6D6D6D37
:105038006F6F6F6F727277777D7D82828A8A9191A6
:105048009998A0A0A7A7AEAEB4B4BABABDBDBFBF69
:10505800BCBCB7B7AEAEA3A39696888879796A6BBD
:105068005C5D5151474740403B3B383838383A3A05
:105078003D3D4242494951515B5B666670707979A2
:1050880080808585868684847E7E77776F6F656568
:105098005B5C52524A4A4444424243434A4A555549
:1050A80061616E6E7E7E8D8D9C9CAAA9B3B3BBBBDD
:1050B800C4C4CACACECED1D1D1D1D0D0CCCCC8C824
:1050C800C3C3BDBDB6B6AEAEA6A69E9E96968E8E40
:1050D80085857C7C74746D6D666661615D5D5A5A08
:1050E800585859595D5D656570707B7B86869090D0
:1050F8009797A0A0A6A6A9A9AAAAA7A7A1A1999986
:105108008E8F82837575666658584A4A3E3E353595
:105118002C2C2626232426262E2E38384646585848
:105128006B6B7E7E90909F9FABABB6B6BBBBBCBC97
:10513800BABAB4B4ABAB9F9F949489887F7E7776D4
:105148006F6F6B6A6A696C6A716E7874807C898526
:10515800928D9D97A7A2B0ABB8B3BCB8BEBBBFBD7C
:10516800BEBCBBBBB6B8AFB3A8AD9FA5959A898F97
:105178007E847178646A585D4A4F3F4335382B2DD9
:1051880022241C1D1719181A1C1E2123292C3335FB
:1051980040424F515E606D6F7E7F8C8D9999A4A4BB
:1051A800ADACB4B2B7B5B7B4B3AFACA9A29F959242
:1051B8008683777467645A58504E4A4848474B4B21
:1051C80051525A5C6A6C7D7F8F92A3A6B4B8C3C64D
:1051D800CFD2D8DBDEE0DFE1DCDED6D7CCCDC1C173
:1051E800B4B3A7A599978B887E7B74716C68666346
:1051F800625F615E615F646368676C6C73737A7A1F
:10520800808187888B8C8F909294939593949292B7
:105218008F8F8B8A85847E7C75736B6A615F565528
:105228004C4B44433D3C39393435323330323032DB
:105238003235373A3F42494D555962666F737F831D
:105248009093A1A5B3B7C3C7D1D5DCDFE2E5E4E706
:10525800E2E4DBDDD0D2C1C2B3B3A3A393918380D0
:1052680073706762605A5C555C556159675F706816
:105278007A72827B8A84918C97939A979C9A9A994E
:10528800989693918B8A818077766D6C6261595874
:105298005050494943443F413D3F3D403F434247C9
:1052A800454C4B52535A5A616269676E6D74747AF1
:1052B8007A7E7F82838586878888888787858683A4
:1052C8008783888388838983878286818480817D98
:1052D8007D7A7A797877747471716F706D6F6E708A
:1052E800707376797F828B8E999BA9ABB9BAC8C83F
:1052F800D6D5E0DEE6E4EAE7EAE7E6E2DDDAD2CEB2
:10530800C2C0B3B1A3A293918483757567675B5CD0
:105318005152494B45474345414441444446474817
:105328004C4D525356565A5A5D5C5F5E62606563D7
:1053380069666966696669666865686568666867F2
:1053480069686A6B6D6E707372767479787D7A802D
:105358007C8280858389878C8A8F8D908E919293A9
:1053680096979B9AA1A0A7A5ADAAB3B0B8B5BCB9AA
:10537800BFBCC1BEBFBCB8B6B0AEA4A2949484846E
:1053880074756566585A4F504748434443434646E8
:105398004D4C5554605E6C6A797683808D899692FF
:1053A8009C98A09DA29FA19E9E9B98968F8E858576
:1053B80078796A6C5E60515445493B4034382E32E6
:1053C8002B2F2A2E2C303135383B40434A4C53552D
:1053D8005E5F696A7574807F8C8A96949F9DA6A487
:1053E800ADABB2B0B4B3B5B5B6B6B5B6B6B8B6B877
:1053F800B5B8B6B8B5B7B0B3AAADA3A59B9D9596F9
:105408008F908A8A87868484848387858D8A9693F9
:10541800A09DABA7B3AFB9B5BDB8BCB8B8B4B0AD73
:10542800A4A2979688877776646552533F413032B5
:105438002325191C1517151716191B1D24262F307F
:105448003D3E4D4E5F5F727285849594A2A0ACAAD2
:10545800B2B0B5B3B4B3B0AFAAA9A1A197978B8BDB
:105468007F80737468695E61565951554F53505423
:1054780054585A5E61656A6D757780818B8B9696F4
:10548800A19FA8A6ADABB2AFB6B3B9B6BDB9C0BC03
:10549800C2BEC3BFC1BDBCB9B4B1A9A69D9B908F04
:1054A800807F717162635556494A41423C3E3C3D9A
:1054B8004041474750505B5A65656F6E78767E7DF0
:1054C800848287858886868482807B79706F64630E
:1054D80057574B4B3E403335292C22261F23202477
:1054E800252A2E333B404B4F5E627276888B9DA0F7
:1054F800B1B4C2C4D1D2DCDCE5E4ECEAEDEAEAE717
:10550800E3E0D8D5CBC8BDBAAEABA09D9391878652
:105518007E7E7878747573747476757777797A7C0B
:105528007C7E7E80808181828283838386858A884F
:105538008E8C939097939A969C979B979994949016
:105548008E8A85827A786D6C5F5F5354484A3F41F2
:10555800383B33362F342E333035363A3E42494DB8
:10556800545861636E707B7B888792919A98A09E4D
:10557800A3A0A2A09F9C9996908E86857C7B73732E
:105588006A6B62645D605A5E595E5A6060666870F4
:10559800727A7F888E969CA4ABB2B9BFC4C9CDD0AD
:1055A800D2D3D4D3D3D0CFC9C7C0BDB5B2A8A59BD9
:1055B800988E8D838278786F70686862615C5B58BA
:1055C800555450504A4B444640423D3F3C3E3D3E78
:1055D8003F40424245444B4A53515B5966636F6CA6
:1055E80077747E7B8380858488878A8A898A88897C
:1055F80084877F83797E73796C73656D5F675B637E
:105608005A625A615D6363676A6D73747F7F8D8BBD
:105618009C99AAA5B7B2C2BCCBC5D0CAD3CDD3CEAC
:10562800D2CDCECAC7C4BEBCB2B2A6A79A9C8E922F
:1056380084887B80757A727771767377777A7B7CCA
:105648007E7E807F81808280827F817D7F7A7C7769
:1056580078737570726E716D716E7170727172722D
:1056680070716D6F696C65686063595D53574E5210
:10567800484C42453D403A3C383A393A3C3C434232
:105688004A4853515D5A68647671847F928DA09B15
:10569800ADA8B8B4C2BEC6C5C8C7C7C8C3C6BDC111
:1056A800B4BAAAB19EA7919B85907B86727D6C76D1
:1056B8006870666D676D6C6F74757E7D8985948E74
:1056C8009E97A59DA9A1ACA5ACA5A8A2A29D9895B9
:1056D8008E8B838279776E6D65645D5C565551500B
:1056E8004C4B4A4847454643454244414340444061
:1056F800454247454A48504F57575F5F6969747438
:105708007E7F86898E919497989C9BA09DA29EA24D
:105718009CA0989C93978D90868880817A7B7374DF
:105728006D6D6969676668666C6A72707B78848279
:105738008F8D9B9AA8A8B7B7C5C6D1D3DBDEE1E4A5
:10574800E5E7E4E6E0E2D8D9CBCBBBBBAAA99796BC
:105758008482716F605D524F46433F3C3C393D3A0D
:10576800413E46444D4C57566060696A717277797C
:105778007D7E7F817F807D7F7B7C7878747570707B
:105788006B6B676661605C5A5654524F4D4A494686
:105798004744464447464A4A4F5056575E61686BED
:1057A80073767E828B8F989CA5A8B0B3B8BBC0C116
:1057B800C5C5C8C8CAC9C9C7C6C4C1BEB9B6AFACD1
:1057C800A3A1969589887C7B6F6F6364585B50555D
:1057D8004B504A4F4B5150565960656B72778185D3
:1057E80091939E9FA8A8B1B0B7B4B9B5B7B2B0AB02
:1057F800A5A096918580726D605C514C423E37330E
:105808002E2A282528252B29302E383641404B4A68
:10581800555460606B6C76778182898A8F919496F3
:1058280097999B9D9D9F9D9F9D9E9A9B96979393CD
:105838008E8F8A8B868783858184818483858588FA
:10584800888B8C8F9194979A9DA0A2A5A8A9ADAE9C
:10585800B1B1B5B4B8B7BBB9BEBBC0BEC0BEBEBCA3
:10586800BBB9B5B3ADACA4A399978C8B7D7C6E6D99
:105878005F5E504F434137362E2C2726232324239F
:10588800282830303B3B494A5758656672737C7EFE
:1058980086878D8E909192918F8F8B8984827C7A66
:1058A80074726D6B676663626260605F605F61609F
:1058B800636365666A6B707176787C7E8386898C93
:1058C800909396999B9D9FA1A3A5A6A7A8A7A8A6D4
:1058D800A6A4A3A09E9B9B9799949691948F928D32
:1058E8008F8B8D898A878785848380807C7D787972
:1058F800737570726E716D716C706B706C706E72A6
:105908007377787B7D8182858487878A888A878870
:10591800858581807A79716F67655B59504E4443FC
:105928003B3A35343231333237373E3E47475252AD
:105938005F5E6B6B7877868492919C9BA5A4ACABD9
:10594800B0B0B5B5B8B9BBBBBDBDBDBEBCBCB8B9C0
:10595800B3B4ADAEA7A8A0A29B9D9798939590933A
:105968008F928E918E918F928F938F928D908D8F33
:105978008B8D8A8B898988868785878487848884A4
:1059880089858A868A868986878484827F7E7978D3
:1059980072716A68616057564D4C44423B393634DF
:1059A8003230312F3332393841424D4F5A5D686BAE
:1059B800767A83888F94989D9EA3A1A59FA49C9F87
:1059C80096998E9085867D7D75746E6B6764625E30
:1059D8005E5A5D585E58615B65606A65716D7B777C
:1059E800868493929FA0ABADB5B8BDC1C4C9C9CEDA
:1059F800CBD0CCCFC9CCC3C6BBBCB2B2A8A89D9CE7
:105A0800939088867F7B76726D6A64615C5A555381
:105A18004E4D4948454543434344454646484A4C0C
:105A28004F5156585D6066697072787B80828689AE
:105A38008C8D909091918F8E8B8985837D7A736FF1
:105A480068645E5955514F4B4B484C4A504F585813
:105A580065667375818591959FA5AEB4BBC2C7CDA8
:105A6800D0D7D6DDD9E0DADFD6DBD0D4C7CABDBE01
:105A7800B1B0A4A297938A857B756E67645C5C5508
:105A8800595159515B55625D6A6773717B7B858695
:105A98008D9095999BA09FA4A2A6A2A6A0A39B9D2A
:105AA80095978F8F8786807E78756F6C65625C5856
:105AB800524F4A4745413F3C3B39373534323432FF
:105AC80034343536393A3F41474A52555E626C7133
