:020000040800F2
:1000000000000220ED380008593800085B3800086D
:100010005D3800085F380008613800080000000003
:10002000000000000000000000000000633800082D
:1000300065380008000000006738000869380008CB
:100040003D3900083D3900083D3900083D390008B8
:100050003D3900083D3900083D3900083D390008A8
:100060003D3900083D3900083D3900083D39000898
:100070003D3900083D3900083D3900083D39000888
:100080003D3900083D3900083D3900083D39000878
:100090003D3900083D3900083D3900083D39000868
:1000A0003D3900083D3900083D3900083D39000858
:1000B0003D3900083D390008713800083D39000815
:1000C0003D39000881380008913800083D390008A2
:1000D0003D3900083D3900083D3900083D39000828
:1000E0003D3900083D3900083D3900083D39000818
:1000F0003D3900083D3900083D3900083D39000808
:100100003D3900083D3900083D3900083D390008F7
:100110003D3900083D3900083D3900083D390008E7
:100120003D3900083D3900083D3900083D390008D7
:100130003D3900083D3900083D3900083D390008C7
:100140003D3900083D3900083D3900083D390008B7
:100150003D3900083D3900083D3900083D390008A7
:100160003D3900083D3900083D3900083D39000897
:100170003D3900083D3900083D3900080000000005
:080180003D3900083D3900087B
:1001900010B5054C237833B9044B13B10448AFF3C1
:1001A00000800123237010BD7000002000000000BB
:1001B000C041000808B5034B1BB103490348AFF326
:1001C000008008BD0000000074000020C04100084D
:1001D00053B94AB9002908BF00281CBF4FF0FF31AE
:1001E0004FF0FF3000F072B9ADF1080C6DE904CEAC
:1001F00000F006F8DDF804E0DDE9022304B0704702
:100200002DE9F047089E04468846002B4BD18A42D0
:10021000154667D9B2FA82F24AB1C2F1200701FA53
:1002200002F320FA07F7954047EA030894404FEAA3
:10023000154E230CB8FBFEF71FFA85FC0EFB178842
:1002400043EA084307FB0CF1994209D9EB1807F17F
:10025000FF3080F01B81994240F21881023F2B440D
:100260005B1AA4B2B3FBFEF00EFB103344EA034466
:1002700000FB0CFCA44509D92C1900F1FF3380F0D8
:100280000781A44540F2048102382C4440EA07402B
:10029000A4EB0C0400271EB1D4400023C6E90043A0
:1002A0003946BDE8F0878B4209D9002E00F0EB807B
:1002B0000027C6E9000138463946BDE8F087B3FAA1
:1002C00083F7002F47D18B4202D3824200F2FA809B
:1002D000841A61EB030301209846002EE0D0C6E9A2
:1002E0000048DDE702B9FFDEB2FA82F2002A40F0F0
:1002F0008F80491B4FEA154E1FFA85F80127B1FB85
:10030000FEFC230C0EFB1C1143EA014308FB0CF11D
:10031000994207D9EB180CF1FF3002D2994200F252
:10032000CD808446591AA3B2B1FBFEF00EFB101427
:1003300043EA044408FB00F8A04507D92C1900F152
:10034000FF3302D2A04500F2B6801846A4EB0804A1
:1003500040EA0C409FE7C7F1200CBB4022FA0CFE9C
:100360004EEA030E01FA07F420FA0CF521FA0CF319
:100370004FEA1E482543B3FBF8F92C0C08FB193350
:100380001FFA8EFA44EA034309FB0AF49C4202FA7C
:1003900007F200FA07F10BD91EEB030309F1FF3056
:1003A00080F087809C4240F28480A9F10209734466
:1003B0001B1BADB2B3FBF8F008FB103345EA034456
:1003C00000FB0AFAA24508D91EEB040400F1FF3332
:1003D0006BD2A24569D90238744440EA0940A0FBB7
:1003E0000289A4EB0A044C45C2464B4654D351D073
:1003F000002E69D0B1EB0A0564EB030404FA0CFC8F
:10040000FD40FC404CEA0505C6E90054002747E7DB
:10041000C2F1200320FA03F7954001FA02F021FA15
:1004200003F34FEA154E3843010CB3FBFEF71FFAF6
:1004300085F80EFB173341EA034107FB08F38B42B3
:1004400004FA02F407D9691807F1FF3C2FD28B4256
:100450002DD9023F2944CB1A81B2B3FBFEF00EFB2B
:10046000103341EA034100FB08F38B4207D96918B6
:1004700000F1FF3C17D28B4215D902382944C91A22
:1004800040EA07473BE73746304609E70746E7E6D5
:100490001846FBE64145ABD2B8EB020A69EB0E0207
:1004A00001381346A4E76046E9E7184695E7674632
:1004B000D1E781467CE702382C4447E7ACF1020CD7
:1004C0002B442FE7384608E73746E9E6704700BF78
:1004D00001F0FF01102A2BDB10F0070F08D010F8F5
:1004E000013B013A8B422DD010F0070F42B3F6D1F9
:1004F000F0B441EA012141EA014122F007047FF012
:1005000000070023F0E80256083C85EA010586EA68
:10051000010685FA47F5A3FA87F586FA47F6A5FAA4
:1005200087F68EB9EED1F0BC01F0FF0102F00702B0
:1005300032B110F8013B013A83EA010313B1F8D15B
:100540000020704701387047002D06BF354603383C
:10055000073815F0010F07D1013015F4807F02BF75
:10056000013015F4C03F0130F0BC0138704700BFC6
:1005700010B504460E4B18784FF47A73B3FBF0F3C2
:100580000C4A1068B0FBF3F000F0A8F868B90F2C23
:1005900001D901200AE0002221464FF0FF3000F08F
:1005A0005DF8034B5C60002000E0012010BD00BF3F
:1005B000000000200800002008B50B4B1A6842F428
:1005C00000721A601A6842F480621A601A6842F473
:1005D00080721A60032000F02FF80020FFF7C8FF98
:1005E00003F01AF8002008BD003C0240034A1168DD
:1005F000034B1B780B441360704700BFAC00002016
:1006000000000020014B1868704700BFAC000020BC
:1006100038B50446FFF7F6FF0546B4F1FF3F02D0B8
:10062000044B1B781C44FFF7EDFF401BA042FAD39C
:1006300038BD00BF00000020074AD36823F4E06300
:100640001B041B0C000200F4E060184340F0BF6084
:1006500040F40030D060704700ED00E030B4174B3C
:10066000DB68C3F30223C3F10704042C28BF04246E
:100670001D1D062D18D9033B4FF0FF3505FA04F474
:1006800021EA0401994005FA03F322EA030319431E
:1006900000280BDB0901C9B200F1604000F56140A0
:1006A00080F8001330BC70470023E5E700F00F002E
:1006B0000901C9B2024B1954F4E700BF00ED00E094
:1006C00014ED00E000F01F02400901239340024AAC
:1006D00042F82030704700BF00E100E00138B0F17F
:1006E000807F0AD2064B5860064AF02182F8231018
:1006F0000020986007221A6070470120704700BFF1
:1007000010E000E000ED00E070B110B504460379A0
:1007100033B102232371002020610123237110BD16
:10072000437102F095FFF4E7012070474379012BF4
:1007300031D010B40123437102220271046822688F
:100740008B4013432360B1B902681168136803F04A
:10075000380311F0040F01D0382B07D001230371A7
:100760000023437118465DF8044B7047536843F00B
:1007700001035360F2E702681168136803F4601321
:1007800011F4802FEAD0B3F5601FE7D1536843F02E
:1007900002035360E2E7022070474379012B1FD028
:1007A00070B401254571022303710668336840F671
:1007B000FE74944023EA04040B6849680B43934099
:1007C0002343336004682368C02101FA02F223EA5C
:1007D00002022260057100234371184670BC704705
:1007E0000220704710B483B0002401940068019087
:1007F00051B101990A4414320192019A1360002008
:1008000003B05DF8044B704701990A440832019225
:10081000F3E790F83530DBB2022B03D08023436539
:1008200001207047052380F835300268136823F0F3
:10083000010313600020704700230F2B00F2D780C4
:10084000F0B482B039E0072200E00022B2403A431F
:100850000234674E46F82420664A1468EA4302EAE6
:1008600004064F6817F4803F01D045EA0406614C46
:100870002660646802EA04064F6817F4003F01D05E
:1008800045EA04065B4C6660A46802EA04064F6809
:1008900017F4801F01D045EA0406564CA660E468B0
:1008A00022404E6816F4001F01D045EA0402514C64
:1008B000E26001330F2B00F2978001229A400C680E
:1008C00004EA0205AA42F4D14C68022C01D0122C91
:1008D00010D1DE08083650F826C003F00704A70040
:1008E0000F24BC402CEA040C0C69BC4044EA0C0404
:1008F00040F8264004685F000326BE40F64306EA3F
:10090000040C4C6804F00304BC4044EA0C0404608A
:100910004C6804F1FF3CBCF1010F03D9112C01D04C
:10092000122C10D1846806EA040CCC68BC4044EA5E
:100930000C048460446824EA02024C68C4F3001486
:100940009C4014434460C26816408A68BA403243EF
:10095000C2604A6812F0805FABD000220192264A42
:10096000546C44F480445464526C02F4804201920A
:10097000019A9C08A61C1E4A52F8267003F0030236
:1009800096000F22B24027EA02071C4A90423FF429
:100990005CAF02F5806290421AD002F5806290420C
:1009A00018D002F58062904216D002F58062904223
:1009B00014D002F58062904212D002F5806290421B
:1009C00010D002F5806290423FF43DAF08223DE72F
:1009D00001223BE7022239E7032237E7042235E709
:1009E000052233E7062231E702B0F0BC70477047BA
:1009F00000380140003C0140003802400000024045
:100A00000369194201D1002070470120704712B9D3
:100A10000904816170478161704790F83E30DBB214
:100A2000402B13D00369B3F5804F1ED0036D002B0C
:100A30002DD0036D012B33D1436CC3F3C81302686F
:100A400003F0060343F0F103136129E0036D2BB9B2
:100A5000436C026803F0FE03136121E0436C0268FB
:100A600043F00103DBB213611AE090F83D30DBB2D2
:100A7000212B06D0436C026843F00103DBB2136103
:100A80000EE0436C026803F0FE03136108E0436C60
:100A9000C3F3C813026803F0060343F0F0031361C5
:100AA00000207047436C0268DBB21361002070477E
:100AB00010B48BB090F83E30DAB2C16A046B90F893
:100AC0003D30DBB2222B0CD00023099303685A6916
:100AD00009929B690993099B00200BB05DF8044BB8
:100AE0007047036D0BB9402A17D0036D1BB903691A
:100AF000B3F5404F19D0438D9BB2002B25D1029303
:100B000003685A6902929A690292029A1A6842F438
:100B100000721A6000230365DEE7009303685A69D8
:100B200000929B690093009BD6E700230193036822
:100B30005A6901929A690192019A1A6842F4807284
:100B40001A60036D01330365C6E7438D9BB2012B29
:100B50001AD0438D9BB2022B6BD00268136843F40A
:100B60008063136003685A6812F4006F03D05A68F8
:100B700042F480525A600023089303685A6908922D
:100B80009B690893089BC5E711F5803F16D004299F
:100B90003DD008293BD0122C39D0C36A022B30D06B
:100BA0000268136823F480631360002305930368CD
:100BB0005A6905929B690593059BABE70268136828
:100BC00023F48063136003685A6812F4006F0CD03A
:100BD0001A6822F480621A600023039303685A693A
:100BE00003929B690393039B94E7002204925A6942
:100BF00004929A690492049A1A6842F400721A6084
:100C000088E70268136843F480631360CDE70268E5
:100C1000136823F4806313600023069303685A6902
:100C200006929A690692069A1A6842F400721A604D
:100C300070E7C36A022B1BD00268136823F4806339
:100C400013600268136843F40063136003685A6812
:100C500012F4006F03D05A6842F480525A600023A5
:100C6000079303685A6907929B690793079B51E7AB
:100C70000268136843F480631360E7E7438D9BB217
:100C80004BB1436A5A1C426202681B781361438D60
:100C9000013B9BB2438500207047438D9BB24BB113
:100CA00003681A69436A591C41621A70438D013BFB
:100CB0009BB243850020704703685A6912F4806F25
:100CC0000DD06FF480625A61042303640023036330
:100CD000202280F83D2080F83C3001207047002021
:100CE0007047F8B506460C4617461D461EE02DB166
:100CF000FFF788FC069BC01AA84217D9002333636C
:100D0000202286F83D2086F83E3086F83C300320CD
:100D10001AE033685B6924EA03039BB2B3FA83F3F6
:100D20005B099F420FD1B5F1FF3FE0D1C4F3074308
:100D3000012BEED033689B6924EA03039BB2B3FA1C
:100D400083F35B09EDE70020F8BDF8B504460D46D6
:100D500016461F4632E01A6842F400721A60236891
:100D60006FF480625A6104232364002323632022EA
:100D700084F83D2084F83C3001202DE026B1FFF7B7
:100D800041FCC01BB04219D900232363202284F800
:100D90003D2084F83C3003201EE023685B6925EA8F
:100DA00003039BB2003318BF0123A3B123685A6920
:100DB00012F4806FCFD1B6F1FF3FDFD1C5F3074307
:100DC000012BEAD023689B6925EA03039BB2003319
:100DD00018BF0123E9E70020F8BD0000F0B583B09B
:100DE00004460D4616461F46C36A042B0DD0012B40
:100DF0000BD013F5803F08D0036B122B0AD1026889
:100E0000136843F48073136004E02268136843F4AA
:100E1000807313600097334600224FF00111204683
:100E2000FFF75FFF58BB2369B3F5804F10D12368EC
:100E300005F0FE051D613B46324615492046FFF789
:100E400084FF0346E0B1236C042B1ED1012317E07D
:100E5000EB11226803F0060343F0F00313613B46F5
:100E600032460C492046FFF770FF20B1236C042B5B
:100E700009D1012304E02368EDB21D61DBE7032300
:100E8000184603B0F0BD0323FAE70323F8E700BFD9
:100E900002000100080001002DE9F04184B0044681
:100EA0000D4616461F46C26A01680B6843F480630C
:100EB0000B60042A0DD0012A0BD012F5803F08D018
:100EC000036B112B0AD10268136843F4807313601B
:100ED00004E02268136843F480731360009733467C
:100EE00000224FF001112046FFF7FBFE002852D1EF
:100EF0002369B3F5804F12D1236845F00105EDB2A7
:100F00001D613B4632462A492046FFF71EFF034635
:100F1000002841D0236C042B48D101233CE04FEA48
:100F2000E51808F00608236848F0F0021A613B460D
:100F3000324620492046FFF708FF20B1236C042BDE
:100F40002ED1012328E02368EDB21D613B463246D5
:100F500017492046FFF7F9FE20B1236C042B21D15D
:100F6000012319E0002203922368596903919969CA
:100F700003910399196841F4807119600097334611
:100F80004FF001112046FFF7ACFE68B9226848F027
:100F9000F1031361B5E70323184604B0BDE8F081FF
:100FA0000323F9E70323F7E70323F5E70323F3E735
:100FB000020001000800010070B504460D46164607
:100FC00023685B6913F0800F19D12046FFF774FE88
:100FD000B8B9B5F1FF3FF3D025B1FFF713FB801B84
:100FE000A842EDD9236C43F020032364002323633C
:100FF000202284F83D2084F83C30032000E00020CB
:1010000070BD0120FCE770B504460D461646236806
:101010005B6913F0040F19D12046FFF74DFEB8B9F4
:10102000B5F1FF3FF3D025B1FFF7ECFA801BA842E2
:10103000EDD9236C43F02003236400232363202293
:1010400084F83D2084F83C30032000E0002070BD8F
:101050000120FCE770B505460C4616462B685A6918
:1010600012F0400F22D15A6912F0100F11D124B1A1
:10107000FFF7C8FA801BA042F0D92B6C43F0200385
:101080002B64202385F83D30002385F83C30032075
:1010900070BD6FF010025A6100232B642B63202275
:1010A00085F83D2085F83C300120F1E70020EFE78E
:1010B000002800F0828010B5044690F83D30002BE7
:1010C00041D0242384F83D302268136823F00103C3
:1010D000136001F085FA3A4BA3FB00239B0C2268B6
:1010E00053606168374A914232D8013322681362F3
:1010F0006368344A934235D85B00B0FBF3F0C0F329
:101100000B03032B00D804202368D861E369216A0C
:1011100022680B4313602369E16822680B439360E4
:101120006369A16922680B43D3602268136843F0A6
:101130000103136000202064202384F83D302063E5
:1011400084F83E0010BD80F83C3002F0B5FAB8E7F4
:101150004FF4967202FB03F31B4AA2FB03239B0985
:101160000133C3E7A16889B903EB4302B0FBF2F294
:10117000C2F30B02B2FA82F25209E2B991B903EB5F
:101180004303B0FBF3F040F40040BDE703EB830200
:1011900002EB8202B0FBF2F2C2F30B02B2FA82F26D
:1011A0005209EAE703EB830303EB8303B0FBF3F09D
:1011B00040F44040A8E70120A6E70120704700BFA7
:1011C00083DE1B43A0860100D34D62102DE9F04160
:1011D00084B004460E4690461F46FFF713FA94F873
:1011E0003D30DBB2202B04D00226304604B0BDE8EF
:1011F000F081054600901923012254492046FFF74B
:1012000070FD002840F0998094F83C30012B00F0EC
:101210009680012384F83C3023681A6812F0010F8D
:1012200003D11A6842F001021A602268136823F49D
:1012300000631360212384F83D30102384F83E308E
:1012400000232364C4F824806785A3F58033E36218
:10125000638D23852B460A9A31462046FFF7BEFD53
:10126000064660B1236C042B04D1002384F83C3083
:101270000126BAE7002384F83C300326B5E70023B3
:10128000039323685A6903929B690393039B10E0BD
:10129000236C042B55D12268136843F40073136048
:1012A0000126A2E72A460A992046FFF7ACFE00284D
:1012B0002BD1238D002B32D02A460A992046FFF7E6
:1012C0007BFE0028E4D1636A5A1C626222681B78A4
:1012D0001361638D013B9BB26385238D013B9BB200
:1012E00023852268516911F0040FDBD0002BD9D07F
:1012F000636A591C61621B781361638D013B9BB269
:101300006385238D013B2385CCE7236C042B1AD105
:101310002268136843F400731360012665E72268AE
:10132000136843F400731360202384F83D300023D6
:1013300084F83E3084F83C3057E7022655E7022611
:1013400053E7032651E703264FE700BF02001000D2
:101350002DE9F04186B004460E4690461F46FFF741
:1013600051F994F83D30DBB2202B04D002263046F0
:1013700006B0BDE8F08105460090192301228C4992
:101380002046FFF7AEFC002840F04B8194F83C303B
:10139000012B00F04881012384F83C3023681A684F
:1013A00012F0010F03D11A6842F001021A6022689C
:1013B000136823F400631360222384F83D30102364
:1013C00084F83E3000232364C4F824806785A3F5A5
:1013D0008033E362638D23852B460C9A3146204689
:1013E000FFF75AFD064660B1236C042B04D100239D
:1013F00084F83C300126BAE7002384F83C30032609
:10140000B5E7238D5BB9029323685A6902929A6902
:101410000292029A1A6842F400721A607AE0012B72
:101420000FD0022B1FD02268136843F4806313602F
:101430000023059323685A6905929B690593059BD0
:1014400068E02268136823F4806313600023039329
:1014500023685A6903929A690392039A1A6842F4BC
:1014600000721A6056E02268136823F480631360E8
:101470002268136843F40063136000230493236815
:101480005A6904929B690493049B43E02A460C9991
:101490002046FFF7DFFD68B923681A69636A591CA3
:1014A00061621A70238D013B2385638D013B9BB2E2
:1014B00063852FE0236C202B01D0012657E70326FC
:1014C00055E700950C9B00223A492046FFF709FC9E
:1014D000002840F0AA802268136843F40073136068
:1014E00023681A69636A591C61621A70238D013B73
:1014F0002385638D013B9BB2638523681A69636A08
:10150000591C61621A70238D013B2385638D013B59
:101510009BB26385238D002B7AD0032B4CD8012BF3
:10152000B4D0022BCDD000950C9B0022214920463F
:10153000FFF7D7FB00287AD12268136823F4806371
:10154000136023681A69636A591C61621A70238DDB
:10155000013B2385638D013B9BB2638500950C9B0A
:10156000002214492046FFF7BCFB002861D1226805
:10157000136843F40073136023681A69636A591C83
:1015800061621A70238D013B2385638D013B9BB201
:10159000638523681A69636A591C61621A70238D16
:1015A000013B2385638D013B9BB26385B2E700BF9E
:1015B00002001000040001002A460C992046FFF7A3
:1015C00049FDF0B923681A69636A591C61621A708F
:1015D000238D013B2385638D013B9BB2638523688B
:1015E0005A6912F0040F95D01A69636A591C616236
:1015F0001A70238D013B2385638D013B9BB263856C
:1016000088E7236C202B01D00126B0E60326AEE646
:10161000202384F83D30002384F83E3084F83C30A9
:10162000A5E60226A3E60226A1E603269FE60326F8
:101630009DE603269BE600BF70477047704708B5DC
:1016400090F83D30DAB2438D9BB273B1436A591CB6
:10165000416201681B780B61438D013B9BB243855E
:10166000438D9BB20BB9292A01D0002008BD026826
:10167000536823F48063536021230363282380F895
:101680003D30FFF7DBFFF0E7704790F83D30DAB20E
:10169000438D9BB2F3B110B503681969436A5C1CB2
:1016A00044621970438D013B9BB24385438D9BB2CD
:1016B0000BB92A2A01D0002010BD0268536823F418
:1016C0008063536022230363282380F83D30FFF7B3
:1016D000DBFFF0E700207047704708B503689A69A0
:1016E00012F0040F09D000219B6913F0800F06D07F
:1016F000028BFFF7F1FF002008BD0121F4E782898A
:10170000F7E7704708B590F83D30DBB2C26A042AAB
:1017100001D0082A01D1282B07D0212B1FD0036824
:101720006FF480625A61002008BD1A4BC3620268E0
:10173000536823F4E063536003686FF480625A6176
:101740000268136823F4806313600023036320227C
:1017500080F83D2080F83E30FFF7D3FFE3E70D4BE4
:10176000C36221230363202380F83D30002380F8E7
:101770003E300268536823F4E063536003686FF4FB
:1017800080625A610268136823F480631360FFF774
:1017900055FFC8E70000FFFF704710B590F83D30D7
:1017A000DBB290F83E20D2B2C46A018D09B9212B78
:1017B00005D0212B3CD0402A38D0002010BD042C6D
:1017C00004D0082C02D014F5803F19D10268536868
:1017D00023F4E06353600268136843F400731360FA
:1017E00000230363202380F83D3090F83E30DBB2C5
:1017F000402B15D0002380F83E30FFF71DFFDCE7BB
:101800000268536823F4E0635360112303630023E9
:1018100080F83E30202380F83D30FFF70DFFCCE705
:10182000002380F83E30FFF7B7FFC6E7222BC4D174
:10183000438D9BB27BB190F83E30DBB2402B10D091
:10184000436A5A1C426202681B781361438D013B54
:101850009BB24385B1E70268536823F48063536009
:10186000ABE7036D9BB9C36C012B08D0836CC3F34A
:10187000072302681361036D013303659DE7836CE1
:101880000268DBB21361036D0233036595E7036DF4
:10189000012B17D0036D022B8FD190F83D30DBB2B6
:1018A000222B17D090F83D30DBB2212B85D1436A33
:1018B0005A1C426202681B781361438D013B9BB244
:1018C00043857AE7836C0268DBB21361036D0133F1
:1018D000036572E70268136843F4807313606CE772
:1018E00008B5C26A90F83D30DBB2212B01D0002050
:1018F00008BD438D9BB203BB042A04D0082A02D042
:1019000012F5803F24D10268536823F4E0635360EA
:101910000268136843F400731360002303632023F9
:1019200080F83D3090F83E30DBB2402B20D00023D1
:1019300080F83E30FFF780FED9E7436A5A1C4262C6
:1019400002681B781361438D013B9BB24385CEE750
:101950000268536823F4E063536011230363002398
:1019600080F83E30202380F83D30FFF765FEBEE76B
:10197000002380F83E30FFF70FFFB8E7704708B547
:1019800090F83D30DBB2222B01D0002008BD438D02
:101990009BB2032B13D903681A69436A591C41622D
:1019A0001A70438D013B9BB24385438D9BB2032B41
:1019B000EBD10268536823F480635360E5E7012BA1
:1019C000E3D80268136823F48063136002685368E5
:1019D00023F4E063536003681A69436A591C416247
:1019E0001A70438D013B9BB24385202380F83D3024
:1019F0000023036390F83E30DBB2402B05D0002378
:101A000080F83E30FFF719FEBFE7002380F83E3034
:101A1000FFF7B4FFB9E708B5C26A438D9BB2042B48
:101A200013D0438D9BB2032B1FD0438D9BB2022B4F
:101A300030D003681A69436A591C41621A70438D99
:101A4000013B9BB24385002008BD0268536823F424
:101A50008063536003681A69436A591C41621A70B3
:101A6000438D013B9BB24385EDE70268536823F445
:101A7000806353600268136823F480631360036813
:101A80001A69436A591C41621A70438D013B9BB22B
:101A90004385D8E7013A012A2DD90268136843F437
:101AA0000073136003681A69436A591C41621A7013
:101AB000438D013B9BB2438503681A69436A591CF5
:101AC00041621A70438D013B9BB2438502685368A3
:101AD00023F440735360202380F83D3000230363D8
:101AE00090F83E30DBB2402B10D0002380F83E301F
:101AF000FFF7A3FDA7E70268136823F48063136070
:101B00000268136843F480731360CBE7002380F806
:101B10003E30FFF733FF96E77047704710B5044635
:101B200090F83D30293B012B37D990F83D30DBB29E
:101B3000602B07D003685B6813F4006F02D1202389
:101B400080F83D300023236384F83E302268136818
:101B500023F40063136023685A6812F4006F3FD0C7
:101B60005A6822F400625A60626B92F83530DBB238
:101B7000012B18D03A4B1365606BFEF74AFE002824
:101B80003FD02268136823F001031360202384F8F8
:101B90003D30606B036D984733E0002303632823D7
:101BA00080F83D30D2E7A36B2D4A1A65A06BFEF793
:101BB00030FE30B323685A6912F0400F04D01A691E
:101BC000636A591C61621A702268136823F001036A
:101BD0001360202384F83D30A06B036D984710E01C
:101BE00094F83D20D2B2602A11D05A6912F0400F09
:101BF00004D01A69636A591C61621A702046FFF7A3
:101C00008BFF94F83D30DBB2282B17D010BD20227B
:101C100084F83D20002222645A6912F0400F04D05B
:101C20001A69636A591C61621A702268136823F08A
:101C3000010313602046FFF770FFE2E7236C13F007
:101C4000040FE3D0074BE36200232363202284F8D0
:101C50003D2084F83E302046FFF753FDD6E700BF15
:101C6000A51F00080000FFFF10B582B090F83D30BE
:101C7000DBB201684A6822F4E0624A600022019205
:101C8000026851690191116841F001011160019AE6
:101C900001680A6822F480620A6001684A6812F4E6
:101CA000006F14D090F83D20D2B2222A0AD090F8CA
:101CB0003D20D2B22A2A05D0426B1268526892B2F5
:101CC000428504E0826B1268526892B24285428D6E
:101CD00092B2F2B14A6912F0040F08D00969426A5F
:101CE000541C44621170428D013A92B242850268DE
:101CF000516911F0400F08D01169426A541C4462C6
:101D00001170428D013A92B24285026C42F0040297
:101D10000264026CA2B9282B15D02A2B13D0292BD0
:101D200011D0026B222A01D0222B17D1002303638A
:101D3000202280F83D2080F83E30FFF7A5FC0DE022
:101D4000FFF7ECFE0AE0074BC36200230363202287
:101D500080F83D2080F83E30FFF7D3FC002002B031
:101D600010BD00BF0000FFFFF8B5054603689F697E
:101D70005C695E6890F83E30DBB2102B25D0402BBA
:101D800023D04C4B234013B116F4007F6ED14A4B45
:101D9000234013B116F4007F6BD1484B3B40002B1E
:101DA0006FD0474B234033B116F4806F03D0454BBF
:101DB0002340002B61D0434B234053B316F4007FE4
:101DC00027D02846FEF75AFF23E014F0011F02D067
:101DD00016F4007F1ED13C4B234013B116F4007F54
:101DE0001CD1344B234013B116F4007F1AD1334B6E
:101DF0003B401BB3324B23402BB116F4806F02D013
:101E0000304B234093B12F4B234013B116F4007F86
:101E100010D1F8BD2846FEF700FEE8E72846FEF799
:101E200041FEE4E72846FEF743FEE0E72846FFF7D9
:101E3000B4FCEEE72846FFF753FDEAE7234B2340C7
:101E40002BB116F4806F02D01E4B234053B11D4BB3
:101E50002340002BDDD016F4007FDAD02846FFF7B0
:101E6000DAFDD6E72846FFF78AFDD2E7FFF735FC13
:101E7000CFE72846FFF7F8FECBE72846FFF7DFFB62
:101E8000C7E7124B23402BB116F4806F02D00D4BE5
:101E9000234053B10B4B2340002BBAD016F4007FE4
:101EA000B7D02846FEF7F9FEB3E72846FFF7EDFB6B
:101EB000AFE700BF020001001000010004001000A5
:101EC0008000010004000100080001004000010042
:101ED00070B5044603685D695E68314A154209D0F1
:101EE00016F4807F06D0026C42F0010202646FF4A7
:101EF00080725A6115F4813F0AD016F4807F07D0B2
:101F0000236C43F00203236423686FF400725A6168
:101F100015F4823F1AD016F4807F17D094F83E3023
:101F2000DBB2628D91B294F83D20D2B2206B202BAF
:101F30001DD0236C43F00403236494F83E30DBB2DD
:101F4000102B22D023686FF480625A6115F4843F0D
:101F50000AD016F4807F07D0236C43F00803236473
:101F600023686FF400625A61236CA3B970BD002925
:101F7000DFD1212A05D0292A03D0282AD9D1212826
:101F8000D7D12046FFF7BEFBE0E72268136843F491
:101F900000731360D6E72046FFF7C0FDE6E700BFF9
:101FA0000001010008B5806B0268136823F48063A8
:101FB000136000234385426B1365826B136590F8B1
:101FC0003D30DBB2602B0DD0202380F83D30002364
:101FD00080F83E300268136823F001031360FFF7B6
:101FE0009BFD08BD202380F83D30002380F83E3063
:101FF00003640268136823F001031360FFF78DFD8B
:10200000EFE790F83D007047006C7047002800F043
:10201000BB8170B582B00446036813F0010F3BD05A
:10202000A74B9B6803F00C03042B2CD0A44B9B689C
:1020300003F00C03082B21D06368B3F5803F4FD029
:10204000B3F5A02F52D09E4B1A6822F480321A604A
:102050001A6822F480221A606368002B50D0FEF7C1
:10206000D1FA0546964B1B6813F4003F14D1FEF7D6
:10207000C9FA401B6428F5D903208AE1904B5B68BC
:1020800013F4800FD8D08E4B1B6813F4003F03D09D
:102090006368002B00F07A81236813F0020F55D09B
:1020A000874B9B6813F00C0F3ED0854B9B6803F069
:1020B0000C03082B33D0E368002B68D0814B01223E
:1020C0001A60FEF79FFA05467D4B1B6813F0020F5E
:1020D00054D1FEF797FA401B0228F5D9032058E1A6
:1020E000774A136843F480331360B5E7744B1A687A
:1020F00042F480221A601A6842F480321A60ABE718
:10210000FEF780FA05466E4B1B6813F4003FC3D000
:10211000FEF778FA401B6428F5D9032039E1684BB3
:102120005B6813F4800FC6D1654B1B6813F0020F78
:1021300004D0E368012B01D001202AE1604A136832
:1021400023F0F803216943EAC1031360236813F005
:10215000080F40D0636963B35B4B01221A60FEF73E
:1021600051FA0546564B5B6F13F0020F33D1FEF761
:1021700049FA401B0228F5D903200AE1504A1368A6
:1021800023F0F803216943EAC1031360DEE74D4BF6
:1021900000221A60FEF736FA0546494B1B6813F019
:1021A000020FD3D0FEF72EFA401B0228F5D90320E8
:1021B000EFE0454B00221A60FEF724FA0546404B3B
:1021C0005B6F13F0020F06D0FEF71CFA401B0228CB
:1021D000F5D90320DDE0236813F0040F79D0384BE4
:1021E0001B6C13F0805F33D100230193344B1A6CC6
:1021F00042F080521A641B6C03F080530193019BE0
:102200000125324B1B6813F4807F23D0A368012B78
:1022100034D0052B38D02A4B1A6F22F001021A67EE
:102220001A6F22F004021A67A368002B36D0FEF75B
:10223000E9F90646224B1B6F13F0020F48D1FEF757
:10224000E1F9801B41F288339842F3D90320A0E0E2
:102250000025D6E71D4A136843F480731360FEF728
:10226000D1F90646194B1B6813F4807FCED1FEF7D7
:10227000C9F9801B0228F5D903208AE0104A136FA0
:1022800043F001031367CFE70D4B1A6F42F00402CE
:102290001A671A6F42F001021A67C5E7FEF7B2F932
:1022A0000646074B1B6F13F0020F11D0FEF7AAF979
:1022B000801B41F288339842F3D9032069E000BFC4
:1022C0000038024000004742800E47420070004044
:1022D000E5B9A369002B5BD0304A926802F00C028A
:1022E000082A58D0022B17D02D4B00221A60FEF777
:1022F00089F90446294B1B6813F0007F42D0FEF792
:1023000081F9001B0228F5D9032042E0234A136C0F
:1023100023F080531364DCE7214B00221A60FEF7A0
:1023200071F905461D4B1B6813F0007F06D0FEF7C0
:1023300069F9401B0228F5D903202AE0E369226AE3
:102340001343626A43EA8213A26A5208013A43EADB
:102350000243E26A43EA0263104A5360104B0122CF
:102360001A60FEF74FF904460C4B1B6813F0007F10
:1023700006D1FEF747F9001B0228F5D9032008E033
:10238000002006E0002004E001207047012000E06A
:10239000002002B070BD0120FBE700BF0038024002
:1023A00060004742324B9B6803F00C03042B5CD067
:1023B000082B01D02F4870472DE9F04B2C4B5A6861
:1023C00002F03F025B6813F4800F2BD0284B5B6850
:1023D000C3F388131E4600275C010025E41A65EB51
:1023E0000705A90141EA9461A001001B61EB050109
:1023F000CB0043EA5073C400A01943EB07014B0222
:1024000043EAD0534402204619460023FDF7E0FE7C
:10241000174B5B68C3F3014301335B00B0FBF3F080
:10242000BDE8F08B124B5B68C3F388131E46002790
:102430005C010025E41A65EB0705A90141EA9461F6
:10244000A001001B61EB0501CB0043EA5073C400FF
:10245000A01943EB07018B0243EA90538402204604
:1024600019460023FDF7B4FED2E70348704700BFCA
:10247000003802400024F40000127A00002800F026
:102480009D8070B504464F4B1B6803F00F038B42D1
:1024900009D2CBB24B4A1370136803F00F038B427F
:1024A00001D0012070BD236813F0020F17D013F084
:1024B000040F04D0444A936843F4E05393602368C4
:1024C00013F0080F04D0404A936843F460439360CC
:1024D0003D4A936823F0F003A068034393600D46E0
:1024E000236813F0010F32D06368012B21D09A1EAC
:1024F000012A25D9344A126812F0020F60D03249FD
:102500008A6822F0030213438B60FEF77BF80646CD
:102510002D4B9B6803F00C036268B3EB820F16D05F
:10252000FEF770F8801B41F288339842F0D90320FF
:10253000B8E7254A126812F4003FE0D10120B1E764
:10254000214A126812F0007FD9D10120AAE71D4B61
:102550001B6803F00F03AB4209D9EAB2194B1A709A
:102560001B6803F00F03AB4201D001209AE72368F8
:1025700013F0040F06D0144A936823F4E053E16883
:102580000B439360236813F0080F07D00E4A93683B
:1025900023F46043216943EAC1039360FFF702FF1C
:1025A000094B9B68C3F30313084AD35CD840084B1C
:1025B00018600020FDF7DCFF002073E70120704762
:1025C00001206FE7003C0240003802401823020857
:1025D00008000020014B1868704700BF0800002069
:1025E00008B5FFF7F7FF044B9B68C3F38223034A48
:1025F000D35CD84008BD00BF003802402823020841
:1026000008B5FFF7E7FF044B9B68C3F34233034A67
:10261000D35CD84008BD00BF003802402823020820
:1026200010B4036A046A24F001040462846924F08B
:10263000F00444EA021223F00A030B4382610362AE
:102640005DF8044B704710B4036A23F01003036273
:102650008469036A24F4704444EA023223F0A0033C
:1026600043EA0113826103625DF8044B704783689B
:1026700023F0700341F0070119438160704710B4E3
:10268000846824F47F4442EA03230B43234383609A
:102690005DF8044B70470268D36843F00103D360D0
:1026A0000268136843F0010313600020704790F83C
:1026B0003830012B7DD010B50446012380F8383026
:1026C000022380F839300268936823F47F4323F0B3
:1026D000770393600B68402B57D010D9702B3ED0F6
:1026E0001FD8502B47D0602B32D1CA684968006888
:1026F000FFF7A9FF60212068FFF7B9FF28E0102B42
:102700004DD008D9202B4FD0302B21D1302100685B
:10271000FFF7ADFF1CE0DBB900210068FFF7A7FF62
:1027200016E0B3F5805F0ED0B3F5005F10D1CB6833
:102730004A6889680068FFF7A2FF2268936843F43B
:102740008043936004E00268936823F0070393607A
:10275000012384F83930002084F8380010BDCB689C
:102760004A6889680068FFF78AFF2268936843F027
:1027700077039360ECE7CA6849680068FFF750FF89
:1027800050212068FFF773FFE2E7CA6849680068D4
:10279000FFF746FF40212068FFF769FFD8E71021C7
:1027A0000068FFF764FFD3E720210068FFF75FFFB1
:1027B000CEE702207047704770477047704710B5EA
:1027C000044603681A6912F0020F11D0DA6812F099
:1027D000020F0DD06FF002021A6101230376036825
:1027E0009B6913F0030F70D0FFF7E6FF00232376F9
:1027F00023681A6912F0040F12D0DA6812F0040F7D
:102800000ED06FF004021A610223237623689B69BD
:1028100013F4407F5FD02046FFF7CEFF00232376DE
:1028200023681A6912F0080F12D0DA6812F0080F44
:102830000ED06FF008021A61042323762368DB6947
:1028400013F0030F4ED02046FFF7B6FF0023237688
:1028500023681A6912F0100F12D0DA6812F0100F04
:102860000ED06FF010021A61082323762368DB690B
:1028700013F4407F3DD02046FFF79EFF00232376D0
:1028800023681A6912F0010F03D0DA6812F0010F01
:1028900036D123681A6912F0800F03D0DA6812F07B
:1028A000800F34D123681A6912F0400F03D0DA6820
:1028B00012F0400F32D123681A6912F0200F03D0B2
:1028C000DA6812F0200F30D110BDFFF774FF2046F8
:1028D000FFF773FF8AE72046FFF76DFF2046FFF7FB
:1028E0006CFF9BE72046FFF766FF2046FFF765FF7A
:1028F000ACE72046FFF75FFF2046FFF75EFFBDE72E
:102900006FF001021A61204600F04CFBC1E76FF046
:1029100080021A61204600F0B2F8C3E76FF040026F
:102920001A612046FFF74AFFC5E76FF020021A61DF
:10293000204600F0A3F8C7E703682E4A904212D061
:10294000B0F1804F0FD0A2F57C4290420BD002F53F
:102950008062904207D002F58062904203D002F577
:102960007842904203D123F070034A681343214A0E
:1029700090422AD0B0F1804F27D0A2F57C429042FD
:1029800023D002F5806290421FD002F5806290420F
:102990001BD002F57842904217D002F57052904257
:1029A00013D002F5806290420FD002F5806290420F
:1029B0000BD0A2F59832904207D002F58062904287
:1029C00003D002F58062904203D123F44073CA68B9
:1029D000134303608B68C3620B688362054B9842A4
:1029E00003D003F58063984201D10B69036301238F
:1029F0004361704700000140A8B110B5044690F84B
:102A000039305BB1022384F83930211D2068FFF78B
:102A100093FF012384F83930002010BD80F838304E
:102A200000F0C0FEEEE70120704790F83830012B2F
:102A300022D030B4012280F83820022380F83930C7
:102A40000468636823F070036360046863680D685A
:102A50002B4363600468A36823F08003A3600468C9
:102A6000A36849680B43A36080F83920002380F8ED
:102A70003830184630BC70470220704770477047A6
:102A80002DE9F843044601680A6922F44052C368FC
:102A900013430B610168CA6822F4164222F00C024B
:102AA00083680069034360690343E0690343134398
:102AB000CB6021684A6922F44072A36913434B61D9
:102AC000E369B3F5004F60D02368B84A934200F041
:102AD000148102F58062934200F00F81FFF780FDC0
:102AE00000EB800000EB80006568AD00B0FBF5F501
:102AF000AF4FA7FB05356D092E01FFF771FD00EB08
:102B0000800000EB80006568AD00B0FBF5F9FFF7D1
:102B100067FD00EB800000EB80006568AD00B0FB56
:102B2000F5F5A7FB05356D094FF0640808FB159511
:102B30002D013235A7FB05356D0905F0F00535444B
:102B4000FFF74EFD00EB800000EB80006668B600EA
:102B5000B0FBF6F6FFF744FD00EB800000EB8000D1
:102B600063689B00B0FBF3F0A7FB0030400908FB53
:102B700010684FEA081808F13208A7FB0837C7F3B6
:102B8000431723682F449F600DE12368874A9342CF
:102B90005BD002F58062934257D0FFF721FD00EB36
:102BA000800000EB800065686D00B0FBF5F5804F9C
:102BB000A7FB05356D092E01FFF712FD00EB800024
:102BC00000EB800065686D00B0FBF5F9FFF708FDCC
:102BD00000EB800000EB800065686D00B0FBF5F550
:102BE000A7FB05356D094FF0640808FB1595ED004E
:102BF0003235A7FB05356D096D0005F4F8753544D0
:102C0000FFF7EEFC00EB800000EB800066687600CA
:102C1000B0FBF6F6FFF7E4FC00EB800000EB800071
:102C200063685B00B0FBF3F3A7FB03235B0908FBBE
:102C300013684FEAC80808F13208A7FB0837C7F342
:102C4000421723682F449F60ADE0FFF7D9FC00EBEB
:102C5000800000EB800065686D00B0FBF5F5544F17
:102C6000A7FB05356D092E01FFF7CAFC00EB8000BC
:102C700000EB800065686D00B0FBF5F9FFF7C0FC64
:102C800000EB800000EB800065686D00B0FBF5F59F
:102C9000A7FB05356D094FF0640808FB1595ED009D
:102CA0003235A7FB05356D096D0005F4F87535441F
:102CB000FFF7A6FC00EB800000EB80006668760062
:102CC000B0FBF6F6FFF79CFC00EB800000EB800009
:102CD00063685B00B0FBF3F3A7FB03235B0908FB0E
:102CE00013684FEAC80808F13208A7FB0837C7F392
:102CF000421723682F449F6055E0FFF781FC00EBEB
:102D0000800000EB80006568AD00B0FBF5F5284F52
:102D1000A7FB05356D092E01FFF772FC00EB800063
:102D200000EB80006568AD00B0FBF5F9FFF768FCCB
:102D300000EB800000EB80006568AD00B0FBF5F5AE
:102D4000A7FB05356D094FF0640808FB15952D01AB
:102D50003235A7FB05356D0905F0F0053544FFF761
:102D60004FFC00EB800000EB80006668B600B0FB13
:102D7000F6F6FFF745FC00EB800000EB800063688F
:102D80009B00B0FBF3F0A7FB0030400908FB106884
:102D90004FEA081808F13208A7FB0837C7F34317B2
:102DA00023682F449F60BDE8F88300BF00100140F6
:102DB0001F85EB5158B310B5044690F839300BB36A
:102DC000242384F839302268D36823F40053D36075
:102DD0002046FFF755FE2268136923F490431361E0
:102DE0002268536923F02A0353612268D36843F4AD
:102DF0000053D3600020E063202384F8393084F846
:102E00003A3010BD80F8383000F0ECFCD8E70120F3
:102E10007047000000B585B000F0F0030001C0B2BB
:102E200043F00C028DF80C2043F008038DF80D30B0
:102E300040F00C038DF80E3040F008008DF80F00C4
:102E400064230093042303AA4E210348FEF7BEF92E
:102E500005B05DF804FB00BFEC00002000B585B0B4
:102E600000F0F0030001C0B243F00D028DF80C2019
:102E700043F009038DF80D3040F00D038DF80E304E
:102E800040F009008DF80F0064230093042303AA87
:102E90004E210348FEF79AF905B05DF804FB00BF28
:102EA000EC00002010B5044602E00134FFF7D6FF25
:102EB00020780028F9D110BD80B500AF0246C31DAF
:102EC00023F00703ADEB030D0449684600F070FDE5
:102ED0006846FFF7E7FFBD4680BD00BF302302080C
:102EE00008B50120FFF796FF08BD000070B58AB055
:102EF0000024059406940794089409940194254BA2
:102F00001A6B42F080021A631A6B02F0800201927F
:102F1000019A02941A6B42F001021A631A6B02F0D2
:102F200001020292029A03941A6B42F002021A639F
:102F30001A6B02F002020392039A04941A6B42F095
:102F400008021A631B6B03F008030493049B124EE0
:102F500022464FF470413046FDF759FD0125059595
:102F60000694079405A90D48FDF766FC059506949F
:102F7000079405A90A48FDF75FFC4FF470430593D9
:102F800006950794089405A93046FDF755FC0AB04C
:102F900070BD00BF00380240000C0240000002403B
:102FA0000004024002680C4B9A4200D0704710B5F2
:102FB0000A4C23680A4AD35C002211460948FDF7EF
:102FC00011FC236801332360074A934200D010BDEF
:102FD00000222260FBE700BF000800408C000020B8
:102FE000D84100089401002040E1010084B030B5D0
:102FF00083B006AC84E80F009DF86C509DF87440D7
:103000004FF4FA73009323461C9A294606A8FEF74C
:10301000DDF830B106A8FEF7F7FF0428F0D0002055
:1030200000E0012003B0BDE8304004B0704784B038
:1030300030B583B006AC84E80F009DF86C509DF865
:1030400074404FF4FA73009323461C9A294606A84D
:10305000FEF77EF930B106A8FEF7D6FF0428F0D0BF
:10306000002000E0012003B0BDE8304004B070470C
:103070002DE9F04F99B006468B4600238DF85C3061
:103080002E4DA5FB0213DB0803EB83004100521A0F
:1030900042EA03128DF85D20294C0227139717ABE3
:1030A00012934FF0D00ACDF844A004F110084FF06D
:1030B00044094A464146684600F066FC94E80F0021
:1030C000FFF794FF01238DF85830A5FB0B23DB0895
:1030D00003EB83014A00ABEB020B4BEA031B8DF8B9
:1030E00059B0139716AB1293CDF844A04A46414607
:1030F000684600F049FC94E80F00FFF777FF8DF871
:103100005470A5FB0635ED0805EB85025300F61A51
:1031100046EA05158DF85550139715AB1293CDF867
:1031200044A04A464146684600F02EFC94E80F0051
:10313000FFF75CFF19B0BDE8F08F00BFCDCCCCCC61
:1031400040010020024B987059701A70704700BF00
:1031500068020020FEE7000000B583B00023009362
:1031600001930E480E4B0360FDF7CEFA80B90022A2
:103170000092019269460948FDF70FFB50B91022F1
:1031800069460648FDF709FB30B903B05DF804FB5A
:10319000FFF7E0FFFFF7DEFFFFF7DCFF9401002001
:1031A0000074004000B587B000230293039304939A
:1031B0000593009301931348134A0260532242601F
:1031C00083603B22C2600361FFF716FC98B906A931
:1031D0004FF4805341F8103D0A48FFF768FA60B990
:1031E00000230093019369460648FFF71EFC30B99F
:1031F00007B05DF804FBFFF7ADFFFFF7ABFFFFF78C
:10320000A9FF00BFB00000200008004008B5144B23
:103210001A78144B1B789A4200D008BD104BDA780C
:10322000104B5B789A42F8D10D4B9A790D4B9B78F5
:103230009A42F2D101224FF400410B48FDF7E7FB1F
:103240000A4B01225A60FFF787FFFFF7ABFF0848E0
:10325000FFF721FA00210748FDF768FADDE700BF14
:10326000B001002068020020000C02408C00002009
:10327000B00000209401002010B596B0FFF7C6FF03
:10328000374C0123139314AB1293D0231193442290
:1032900004F11001684600F077FB94E80F00FFF797
:1032A000A5FE2F48FEF7ADFE2028FAD12C4C0723AF
:1032B000139314AB1293D0231193442204F1100101
:1032C000684600F061FB94E80F00FFF7B0FE9DF840
:1032D000563003F00F021B0903EB83035900531808
:1032E000204A53749DF8553003F00F011B0903EB7E
:1032F000830358000B1893739DF8543003F00F01AB
:103300001B0903EB830358000B18D3729DF853304D
:1033100003F00F011B0903EB830358000B185372D2
:103320009DF8523003F00F011B0903EB8303580093
:103330000B1893719DF8513003F00F011B0903EB3B
:10334000830358000B18D3709DF8503003F00F0121
:103350001B0903EB830358000B18137016B010BD44
:1033600040010020B001002008B50A480A4B036064
:103370000A4B436000238360C3604FF480420261C4
:1033800043618361C3610362FDF792FE00B908BD2A
:10339000FFF7E0FEEC00002000540040A086010092
:1033A00008B50A480A4B03600A4B43600023836058
:1033B000C3604FF48042026143618361C361036271
:1033C000FDF776FE00B908BDFFF7C4FE40010020FE
:1033D00000580040A086010008B50A480A4B036067
:1033E0004FF4E133436000238360C36003610C2228
:1033F00042618361C361FFF7DDFC00B908BDFFF7DF
:10340000A9FE00BFC40100200044004000B595B0F3
:103410003022002108A800F0C2FA0023039304938D
:103420000593069307930193204A116C41F0805154
:103430001164126C02F080520192019A02931C4BAB
:103440001A6842F480421A601B6803F480430293B6
:10345000029B012308934FF48033099302220E92BA
:103460004FF480030F9304231093A421119112921F
:10347000139308A8FEF7CAFD98B90F2303930223FC
:103480000493002305934FF4A05306934FF4805305
:103490000793052103A8FEF7F1FF20B915B05DF8E9
:1034A00004FBFFF757FEFFF755FE00BF0038024050
:1034B00000700040F0B583B0FDF77EF8FFF7A6FF7F
:1034C000FFF714FDFFF750FFFFF76AFFFFF784FFD8
:1034D000494C062323721B2363720423A372132611
:1034E000E6722673112767730A22A2730125E5731A
:1034F000257400952B4639463046FFF7B9FD2673F3
:1035000067730D22A273E573257400952B46394627
:103510003046FFF717FE2A464FF400513748FDF7B3
:1035200076FA00252C463DE001243BE000224FF4D2
:1035300080513248FDF76BFA022D53D08020FFF7FF
:1035400069FC2F4D0221A879FFF7B6FC8220FFF716
:1035500061FC2C4E3046FFF7A5FC8320FFF75AFC98
:103560000221E878FFF7A8FC8520FFF753FC3046DE
:10357000FFF798FC8620FFF74DFC02212878FFF723
:103580009BFCC020FFF746FC1F48FFF78BFC4FF465
:103590007A70FDF73DF8012501211C48FDF730FA4E
:1035A0000128C1D0FFF768FE002CBFD0002CF3D05B
:1035B00001224FF480511148FDF729FA012D14D052
:1035C0008020FFF727FC1248FFF76CFC4FF47A705D
:1035D000FDF71EF801210F48FDF712FA012807D068
:1035E0000225D9E7FFF77CFCA8E7FFF779FCE7E7BE
:1035F00002250024D0E700BF8C000020000C024010
:10360000B0010020342302083823020800000240E1
:103610004C2302080004024082B0002100910B4BB1
:103620005A6C42F480425A645A6C02F4804200920E
:10363000009A01911A6C42F080521A641B6C03F0DC
:1036400080530193019B02B0704700BF00380240D5
:1036500000B589B000230393049305930693079361
:103660000268134B9A4202D009B05DF804FB0021B6
:10367000019103F5E2331A6C42F000521A641A6C9D
:1036800002F000520192019A02911A6B42F001027B
:103690001A631B6B03F001030293029B3023039315
:1036A0000323049303A90348FDF7C6F8DCE700BF32
:1036B000007400400000024030B58BB00023059339
:1036C00006930793089309930368324A934204D000
:1036D000314A934227D00BB030BD002501952F4CC5
:1036E000236B43F002032363236B03F00203019374
:1036F000019B4FF4C0730593122306930123079394
:10370000032308930423099305A92548FDF794F89A
:103710000295236C43F400132364236C03F4001319
:103720000293029BD7E7002403941C4D2B6B43F0BC
:1037300002032B632B6B03F002030393039B4FF4F1
:1037400040630593122306930123079303230893F1
:103750000423099305A91248FDF76EF804942B6C15
:1037600043F480032B642B6C03F480030493049BC9
:10377000224621462120FCF771FF2120FCF7A2FF01
:10378000224621462220FCF769FF2220FCF79AFFFF
:10379000A1E700BF0054004000580040003802403C
:1037A0000004024002680E4B9A4200D0704700B5F8
:1037B00083B00021019103F50C331A6C42F004022E
:1037C0001A641B6C03F004030193019B0A461E203C
:1037D000FCF744FF1E20FCF775FF03B05DF804FB07
:1037E0000008004000B589B00023039304930593BB
:1037F000069307930268164B9A4202D009B05DF80F
:1038000004FB0021019103F5FA331A6C42F40032F3
:103810001A641A6C02F400320192019A02911A6B36
:1038200042F001021A631B6B03F001030293029B37
:103830000C2303930223049301230593032306938C
:103840000723079303A90348FCF7F6FFD6E700BF59
:1038500000440040000002407047FEE7FEE7FEE73C
:10386000FEE770477047704708B5FCF7BFFE08BD1C
:1038700008B50248FEF7A3FF08BD00BFB000002056
:1038800008B50248FEF770FA08BD00BF40010020ED
:1038900008B50248FEF71CFB08BD00BF4001002030
:1038A0000F49D1F8883043F47003C1F888300D4BCC
:1038B0001A6842F001021A60002098601A6822F02B
:1038C000847222F480321A60074A5A601A6822F41D
:1038D00080221A60D8604FF000638B60704700BF91
:1038E00000ED00E00038024010300024DFF834D052
:1038F000002103E00C4B5B58435004310B480C4B48
:1039000042189A42F6D30B4A02E0002342F8043BE5
:10391000094B9A42F9D3FFF7C3FF00F011F8FFF704
:10392000C9FD704700000220A42302080000002007
:10393000700000207000002074020020FEE70000EC
:1039400070B50D4E0D4CA41BA4100025A54209D145
:103950000B4E0C4C00F034FCA41BA4100025A54217
:1039600005D170BD56F8253098470135EEE756F879
:10397000253098470135F2E79C2302089C23020872
:103980009C230208A023020810B5431E0A4491425A
:1039900000D110BD11F8014B03F8014FF7E70244C5
:1039A0000346934200D1704703F8011BF9E700007A
:1039B0000EB400B59CB01DAB029006906FF00041B4
:1039C000094807910491094953F8042B05910068AF
:1039D000019302A900F066F8029B00221A701CB045
:1039E0005DF804EB03B070470C0000200802FFFFF5
:1039F0002DE9F0478E689E4282460C4690469946D5
:103A000037D88A8912F4906F31D0256809696F1A06
:103A10006569022305EB450595FBF3F509F1010303
:103A20003B449D4238BF1D46530530D5294600F022
:103A30001FFB064650B90C23CAF80030A38943F097
:103A40004003A3814FF0FF30BDE8F0873A4621697B
:103A5000FFF79AFFA38923F4906343F08003A381C7
:103A6000266165613E44ED1B2660A5604E464E45CD
:103A700000D94E4632464146206800F091FAA368CC
:103A80009B1BA36023681E4426600020DCE72A46B7
:103A900000F048FB06460028E2D12169504600F0BC
:103AA00099FAC8E72DE9F04F9DB0804603938B89C2
:103AB0001D060C4616460FD50B696BB9402100F068
:103AC000D7FA2060206128B90C23C8F800304FF0E5
:103AD000FF30C7E0402363610023099320238DF862
:103AE000293030238DF82A304FF0010B37463D4600
:103AF00015F8013B0BB1252B3ED1B7EB060A0BD0D5
:103B00005346324621464046FFF772FF013000F02F
:103B1000A480099B534409933B78002B00F09D80BF
:103B200000234FF0FF32CDE90523049307938DF86E
:103B300053301A932F46052217F8011B4F48FCF704
:103B4000C7FC049BD0B9D90644BF20228DF853206E
:103B50001A0744BF2B228DF853202A782A2A15D021
:103B6000079A2F4600200A25394611F8013B303BC1
:103B7000092B4DD9B8B10FE02F46B8E73F4A801A5C
:103B80000BFA00F0184304903D46D3E7039A111D49
:103B900012680391002A01DB079204E0524243F0CD
:103BA0000203079204933B782E2B0CD17B782A2BAF
:103BB00033D1039B1A1D1B680392002BB8BF4FF033
:103BC000FF33023705932E4D397803222846FCF740
:103BD0007FFC38B14023401B03FA00F0049B0343F1
:103BE00001370493397827488DF8281006227E1C67
:103BF000FCF76EFC002838D0234B13BB039B073324
:103C000023F0070308330393099B4B4409936DE7A3
:103C100005FB023201200F46A6E70023013705937A
:103C200019460A25384610F8012B303A092A03D9DB
:103C3000002BC8D00591C6E705FB012101230746EB
:103C4000F0E703AB00932246104B04A94046AFF3C4
:103C50000080B0F1FF3F8146D6D1A3895B063FF5D6
:103C600036AF09981DB0BDE8F08F03AB0093224634
:103C7000064B04A9404600F081F8EAE760230208F9
:103C8000662302086A23020800000000F1390008D8
:103C90002DE9F04791461F468A680B69DDF82080C0
:103CA0009342B8BF1346C9F8003091F84320064646
:103CB0000C4612B10133C9F800302368990642BF9F
:103CC000D9F800300233C9F80030256815F0060530
:103CD00007D104F1190AE368D9F800209B1AAB4216
:103CE00028DC94F843302268003318BF0123920681
:103CF0002DD404F1430239463046C047013020D06C
:103D00002368E568D9F8002003F00603042B08BFF8
:103D1000AD1AA36822690CBF25EAE5750025934218
:103D2000C4BF9B1AED184FF000091A344D451AD143
:103D3000002008E00123524639463046C047013092
:103D400003D14FF0FF30BDE8F0870135C3E7E1183C
:103D50005A1C302081F84300224494F8451082F820
:103D600043100233C5E70123224639463046C04797
:103D70000130E6D009F10109D8E700002DE9F04350
:103D800001F1430C0C46097E85B06E2917460646A4
:103D900098460C9A00F0B38022D8632936D00AD80E
:103DA000002900F0B980582900F0838004F1420511
:103DB00084F8421032E0642901D06929F6D12068E4
:103DC0001368050603F104012AD51B681160002B56
:103DD00003DA2D225B4284F843206F480A2239E03F
:103DE000732900F09D8008D86F2920D07029DDD17B
:103DF000236843F02003236003E0752917D0782956
:103E0000D4D1782384F84530644855E01368191DEF
:103E10001B68116004F1420584F8423001238CE0F4
:103E20001B68116010F0400F18BF1BB2CFE713687A
:103E30002568181D1060280601D51B6802E0680679
:103E4000FBD51B8854486F2914BF0A220822002181
:103E500084F843106568A560002DC0F29580216844
:103E600021F004012160002B3DD1002D40F08E8017
:103E70006546082A0BD12368DB0708D523696268E9
:103E80009A42DEBF302305F8013C05F1FF35ACEB6B
:103E900005032361CDF800803B4603AA2146304646
:103EA000FFF7F6FE01304DD14FF0FF3005B0BDE811
:103EB000F083394884F84510136821681D1D1B687C
:103EC00015600A060BD5CA0744BF41F020012160E6
:103ED0001BB9226822F0200222601022B7E74D06AB
:103EE00048BF9BB2EFE76546B3FBF2F102FB11332B
:103EF000C35C05F8013D0B460029F5D1B9E713680D
:103F000025686169181D106028061B6801D51960B5
:103F100002E06A06FBD51980002323616546B9E7F4
:103F20001368191D11601D68626800212846FCF79E
:103F3000CFFA08B1401B606063682361002384F8F6
:103F40004330A7E723692A4639463046C047013047
:103F5000AAD023689B0713D4E068039B9842B8BF9C
:103F60001846A3E701234A4639463046C047013088
:103F70009AD00135E368039A9B1AAB42F2DCEBE777
:103F8000002504F11909F5E7002BACD1037884F87A
:103F9000423004F142056CE77123020882230208D3
:103FA000884210B501EB020307D8421E99420AD09D
:103FB00011F8014B02F8014FF8E78342F5D9811857
:103FC000D21AD34200D110BD13F8014D01F8014DB2
:103FD000F7E7000038B50546002945D051F8043C04
:103FE0000C1F002BB8BFE41800F0D2F81F4A13686A
:103FF000104633B9636014602846BDE8384000F0CD
:10400000C8B8A3420CD921686218934204BF1A6849
:104010005B68636004BF521822600460ECE71346DB
:104020005A680AB1A242FAD919685818A0420BD1AD
:1040300020680144581882421960DDD11068526826
:104040005A6001441960D7E702D90C232B60D3E7EB
:10405000206821188A4204BF11685268626004BF58
:10406000091821605C60C7E738BD00BFA0000020D0
:1040700070B5CD1C25F0030508350C2D38BF0C2577
:10408000002D064601DBA94203D90C233360002032
:1040900070BD00F07DF8214A1468214691B9204C8A
:1040A00023681BB9304600F063F82060294630468B
:1040B00000F05EF8431C24D10C233360304600F03E
:1040C00068F8E4E70B685B1B18D40B2B0FD90B6067
:1040D000CD50CC18304600F05CF804F10B00231DE5
:1040E00020F00700C31AD3D05A42E250D0E78C42E6
:1040F0004B6816BF636013600C46EBE70C464968DB
:10410000CCE7C41C24F00304A04205D0211A304699
:1041100000F02EF80130CFD02560DBE7A0000020B2
:10412000A4000020F8B5074614460E4621B91146F2
:10413000BDE8F840FFF79CBF22B9FFF74BFF2546CB
:104140002846F8BD00F026F8A0420FD22146384696
:10415000FFF78EFF05460028F2D031462246FFF7D2
:1041600013FC31463846FFF735FFE9E73546E7E708
:1041700038B5064C002305460846236000F012F8C7
:10418000431C02D1236803B12B6038BD70020020AC
:104190007047704751F8043C181F002BBCBF0B58E8
:1041A000C0187047044A05491368002B08BF0B4626
:1041B0001844106018467047A800002078020020BC
:1041C000F8B500BFF8BC08BC9E467047F8B500BF04
:0841D000F8BC08BC9E467047D4
:1041D80082818183828B8A888B8985858486888879
:1041E8008080848281828484868582868885858A87
:1041F8008B88848585818382868080848180808184
:104208007E7D80807D7D7C8082827E7C80807E7ABF
:104218007A7A7C7978797A78797B7B7F7F7F8280DC
:104228007E7A797D80807C7B7B7F7F7D797C7B7BC0
:1042380081857F7E83828283807F7F808482827E65
:104248007C7F83827F7E80828083807E7E807E7D6D
:10425800838382807F828581868685848283858622
:104268008684828081818082818082807B807C7E3E
:104278008381807F80868385848383848584858405
:10428800838485868786858589857E7C7D7F7E7DFE
:104298007A797B7C76787C777577777A7C777B7A86
:1042A800797A7B8083807D7E8080808085817E8016
:1042B8007F80807F7F7978787C7D7A7C808281821C
:1042C800807F81817E7C80827F80818080818587DC
:1042D8008887828282828686868585878680807E98
:1042E8007E7C7C7F797C838080807E8288868484C3
:1042F8008A8B878B8985818286858684807F7E7E6E
:104308007D80808283837F7A7C7F80827F7D7979BC
:104318007B7A7B7876747878747575757776767627
:1043280074767A7B7D7D7E807F7F848481808081A6
:10433800828080808082827F7E8381807E7F878565
:1043480082878988888A8C8B8889888685848081F9
:10435800848583858484858486868583808081821C
:104368008380807D7A74777B7A7C7C7E7C80838175
:104378007F8186848085898281878683827F7F8109
:10438800817B7D7D7F7C7E7E837F8583858488811C
:104398008485807D87897890638170787E736E6765
:1043A8005C61746E82838485857D8088878B88872D
:1043B80083786960736A7A797871696C73858A81A0
:1043C8009ABC92594B76808A967F738169507F9EFA
:1043D800808996ADAD8791B2A8777F9F9F827474CC
:1043E8007A71594D759296A5A79B9EA5A29A80832E
:1043F8007E62645360736171906569967A77A99952
:1044080068362D4B5C7080938E736650446EB4B4DE
:1044180091564B89735A738B9684878F80A4A98889
:104428008486949386929EAEA4A9C1BCA9989C87C1
:10443800816C8B8283897CA592AAABA498A1B3BC1A
:10444800BCA9AD9C91867C98A18A755B6C74385622
:104458005A3C5F5A664062714E6B757D756B5A584F
:104468006E6C585D63597F756676676E7F806C6782
:104478006A685F504854584856667982767C7C87CB
:10448800787F78758290A89AA5A4999F9B89838341
:1044980086938793888E9B9B9995A29DA2A0B4B47E
:1044A800B2B6B4BAB4A1A1ADB1A69D9D969C8E91A9
:1044B800868587868777817A70786F696260635AA4
:1044C800565151575C524A504D47423B3C37324C4B
:1044D80044404D444D4B504A4F484A55565F5460EE
:1044E8006B6F676A78806E6F7C848C888E9D9D9ECA
:1044F800A59CA2A4B4B5BBAAB0B7B7ACBABFB0BDAF
:10450800CCC0C1C5BEC6B5B0ACAFB3AAA7A5A5B44B
:10451800B6C6CFCDC7C8C8C1B0A3A3A6A894969164
:10452800969E939A99A18F888F8D867F79808881AE
:1045380081827B817D807E7F7D7A7C7D6B6B716FD4
:10454800766B6F73727068676E615D5D63605A51F8
:10455800474A453D3B4143545D5A5F52504F555879
:104568005349544E4B4C4E494A5644473B3B353BC6
:1045780039343A3E423F383937464939484C4E4C2F
:10458800515B6558656F606766696B6770777580A2
:104598008088928B918E8E97919A8F989CA1AFACC0
:1045A800B9B7CEC4D2D2D5E1CDCED7DFC7CDD3C827
:1045B800C4D2C6BBC8BACBCABFBEBCC6AEB9C2BEDF
:1045C800C2AEA7C1BFBDA4B1ABA39EAAB09FA29320
:1045D800928D93868B848E7D74767D7074626F7AEB
:1045E8008673707A7575676E686458606B655C620F
:1045F800656E54545E5A5B5E49595F6A5551655BF6
:1046080068484E64534E645451434F615250534D61
:104618004F62555A566E706D51667C77676D7B6F29
:10462800817A7878746D6A6C6E6B6C6A797276745C
:10463800717A78747D8E968C889997A29B9BADB67B
:10464800A5ADB5B2B4A1B5BAB4B5B6A6CCC0B4B22E
:10465800B4C4A7B4B7AFABB0B2B6B5B2BBB4AAB620
:10466800B1ACA5ABAE95A4AB8D81A1A69189919370
:104678008F88857B8C877F7B7B7A6C6E7074636197
:10468800636A62605F6255605B53485D575A566162
:104698004E535847554B5443565E4F58544E4F430C
:1046A800505854414D524E5055656A5C5561795F7A
:1046B800656D64696B6B5A5A5B595B6A746A6C6A9C
:1046C8006F7B70676E80836B72797A747A7C747B87
:1046D80073856C787B787E827A898D958E95A28B8E
:1046E8008CA29E88A6A5AEA0A1A193A1939BA7A6E4
:1046F800A4A3A1B1C2ABB6B4B8C1B4BAB8C1BEB371
:10470800B9BAA9BDB4A9BFA2B1A4A6999CA5849B16
:10471800ABA19C9AA38A93898C8A85907C81806EB0
:1047280071726979727A7A7172836B6265626755A0
:1047380050626C5861514A595955565E5947535DF4
:104748005A596A5E525F645D595E55555C685F618F
:104758006065575E70716A69696569767F76716AA6
:104768007E737A7F7D6F698075737B7E8282707CB1
:104778008A92858B8C828B8B949CA0A1A39B989BFF
:10478800A1969999999694A198948C9F9C9A9EA782
:10479800A09DA0989DA29EA1999897929F95959269
:1047A8009186848E949093999C99939192939B96D9
:1047B80091979D9F9898A0A09D9698999795949861
:1047C8009A9A988C88878B928F8B83837677787F59
:1047D80084807C8280837F81807F7B7685837E77DF
:1047E8007B7C7E7C7B7979796D69686F766F6E6F7B
:1047F8006F68757776776E646A6B6D6865636563F5
:104808005C5E656B6C6360626D6E5E5F64666F6E46
:1048180062656966646460645855515454585E57BB
:104828005B524E50556064626A685F62665C5F5FA7
:104838005E626966595B6063625F615E6268656853
:104848006C6E6B6A676E73757E756C76777771744C
:104858007E7E80808284858B8C8D8C918D8B9593C8
:104868009698989A9FA39E9AA1A7ABAFA7A5ABAB22
:10487800A4ACB4B8BEB9B5B7BABBB6B3B0ADAFB5F2
:10488800AEB5B1AAA4A2B0B2AFADAEB2B0B4B2AC3C
:10489800B2AEB0A9A5A5ABAC9E9A9896A09E9D94E1
:1048A8008F8B8C908B8E918C8F8987838078797889
:1048B80072717B7D72695C5A636367695E63636169
:1048C800696E645F615B5F5C5D615B5D5B575666EB
:1048D80067676C747C807B7C797976797E7E7B7463
:1048E80076747576717B776F79797D81868284801D
:1048F8007778808688787C7D787A7C787779766F07
:104908006E706F6F706F6B68686A6B6F696F7074C9
:104918007170747C7676767C837E7A80827E8281E2
:104928007F8284807D7D7D7F7A70726E6E726B76F9
:10493800766B6C707B7F7B808278747575788585E3
:10494800807F818D969590909695989B9D9E94904A
:1049580091999E989E9E9BA29E9C959294898B91DC
:104968009C9D959385858289959A94908C8B949C2F
:10497800939D9590948D91938F8983868C93958D33
:10498800888A938F9691938A89848E9297928B883E
:104998008C8A81878480807D8389888F837B8080CF
:1049A80080827D7A78786B757576786B727770749B
:1049B80073796B686D74776B756B69767372737BDB
:1049C800786C7270727172706875726D72706E64E4
:1049D8005E727571706F55536562666365605D667A
:1049E8006C6E737A766C6B6A706E6F6A61687372DC
:1049F8006F807D71767575737A7A6E757B786F7452
:104A080072637072767875776B5F6F7975757D6A8A
:104A1800686D6E756D7A78696770746D76746E7589
:104A28007479798085808694949298999197959EC7
:104A3800A49DA092898D969797938F928B8D958F31
:104A480098908186969C97968B8A7E7D8A89898C98
:104A5800807B7F8E86807E80888090898080777B2F
:104A68007C808B90938A8F8C8C9D979490909A944D
:104A78009EA7A099979699A6A89B9E989A9FA1AC45
:104A8800A99E96979295A39891948F8F98A2A39296
:104A98008E949497989C92918C8B91969F998F95D0
:104AA80094939498948E92909598918C8780878708
:104AB800898888817B7270797D767771736C697467
:104AC80074706966686A736E6B67626B6562606C46
:104AD8006A626165696865686975736F6C72756C1F
:104AE8007172746E727971737775706E76746C64A6
:104AF8006A6D6F76666467606561636B6661606244
:104B08005F65625760646566607270676D7375751E
:104B18007C747A7E7D7E76797C75797A7871757702
:104B280072727B7C7B76888C7E807E7C81867D74AD
:104B3800737A7B75737E7A7C8382878D8C85838973
:104B48008E8A8B9791898D919396939394919C9D3E
:104B58009C9A999495969D9F9F97928F96989296D6
:104B6800918E8C878B898D90847E78817D817973F5
:104B7800797371807E7F7C75738087888C8081844F
:104B8800808989808382807E8383888984858088E0
:104B9800958B808485888A8A958F898B817D8B8681
:104BA80082808079797F82817E7C7A6E7A7F7A7939
:104BB8007873757E81867E838183858D8C8B8994BD
:104BC8008A868D918D83827A7886847F78797C74C1
:104BD8007075787278737578736F756C6C666875B4
:104BE80074706F6D69676B6C736E6767646D726DF7
:104BF80070706F727471747A7472696C7F82848C4D
:104C08008581807F7C7D7C7D7A7A7F8883828078AD
:104C18008382808890877F787F7E84848484868757
:104C28007C798087807C7F89898C8E949B9B9893E4
:104C38009DA29F928B989D9E9D94979D9B939096E5
:104C480095988F8B8C959C928D90938C888A87856C
:104C58008686878B8B8C868D8F877E8081818484E6
:104C680081838583808485868987858585848382F9
:104C78008C8F8E918F92898A827C807F7F78777DD6
:104C880077797B7B7B76796D6B6D716F6A727678DD
:104C98007D777C7B80726E757478747677757B7996
:104CA8007C7E7F7A6E737B807A7D7A7C848B80862B
:104CB800868279717B747175766E6F7567656C6CB9
:104CC800736A69727272737178827F78787E796F8D
:104CD8006A716E667379757F8486868D8B80757729
:104CE8007F787674777C80837F81817F837F8587D7
:104CF8008682787C88898277807F7C73777B7A80CC
:104D080078848F92938E8D8B898C898D87837B7F16
:104D1800868483898C898F84788580807F818D9231
:104D280083868E837D7D7F757773756D6D716D6BF1
:104D38006876787F747C776E72626B7B787578772B
:104D48007E7F7E84807773798081898E9693879021
:104D580092929A919385878D9C9A9697999D98950A
:104D6800A19B928C7E888B88837876807971767DFA
:104D7800747265677882807E7C8C81777C807A68A3
:104D88005E6676767A79797B8A7F7D7F8077676AB7
:104D9800777A807D827E707C707A7F7D7D7D80864B
:104DA80073777D817B7C978F8F83827C7887938FC5
:104DB800989593808C9D8F929594898B979A9999C1
:104DC8008F908C9B9594938D8E8091A498939F90AF
:104DD80086919F9994919184878481808481687851
:104DE80084807375737D726A818B8084707382830B
:104DF8007B6B727478696D7C798179626A7A786D77
:104E080075767A7572807F8081736B868D8C8586C6
:104E1800878A75737C7C797C777F8A8178777D7CBB
:104E28007E768A887A7972707C7B817E79848D7DA2
:104E3800818C88867F7B87857E72757178706571B5
:104E4800787A73737A7D7B808283837E6F76776DC1
:104E58006A67747976786C707580767B9095847FB4
:104E6800808B84857A7D848385757F7D7B79747B4F
:104E7800868088717482857B77817F7B7274817963
:104E8800796F787D73776C7B74767C7A858E797E82
:104E98006A72807C7F859585848277838381928DF1
:104EA8009892958D9890898B788187817B717B8189
:104EB800817D7C82808F868E9C899393888D878064
:104EC8008088777D7B7584857E71768E84888D8DCC
:104ED8008C888775797A69727D827F8386879185C8
:104EE800827C7E89858E868B86767B767D767A7DBA
:104EF800797D6C6E757B8C8081808886807F7B80D5
:104F08007C747A7E7B7F807B838B818180807D78B7
:104F1800808A80948C827E8C887D77777A74778774
:104F2800857E7D787B8382858783928778818B8055
:104F380080847980877B7873787B6E6F85787F7DB6
:104F480082869089807E757D6C6F868A8181878054
:104F5800838A887E788080788C98897F6F7478833C
:104F6800828C8D95998888958C808F93929CA39438
:104F78008A88868C8492978F898685818C807C81AB
:104F88007F767B809087848C817D8F947C7C7B72FC
:104F98006D6F7C8072696261737979808B7F7470C0
:104FA800757F71768377818B7D76777571777C8055
:104FB800807A80807D85807B7B7B69666D70766872
:104FC8006E7E6A797E7C8086847C837F8585737912
:104FD80072717E767B8282746C6F7981777F978914
:104FE8008C8B8382857E7C80778281788C8B858A86
:104FF800837E82807E8892958F82858D858C8B7D3D
:10500800817A747474777C78727E707687828A91DC
:105018008C7972747A796F7B827F847F787D7A7FCE
:1050280082878C918F8E8D8087827B7C7576787F46
:10503800878F898380828F948C91908A897F8086DC
:105048008378716263707A7C7F7F7C6E6B778981ED
:105058008694938F848278767B7D797C807F7E812D
:10506800777C838B857F808A8C8A8E8D80817B7DFF
:1050780084888A848C92897E818C86837F757E8AD7
:10508800908584847A72727E857C888785837D7C0E
:105098007786818182858480847E747F80796A6B3B
:1050A800686B797C77726F71717C8180847D7B718C
:1050B8006F6E7577767C77737B828B89857B797B3E
:1050C8007D807D828D8584807E877E807E857D7AC9
:1050D8008082858080848885807D828C90898A7B87
:1050E8007A82818B828D8E848281817C847E7D7F91
:1050F800787E7D8087847879807C80848090959282
:105108008A7F858A86889692898A8593908B8F8EE6
:105118008B807C748288817E757C827D8A87868C70
:105128008A7E807A767B706A73636F7670767E7219
:105138006E767C7F807E8A8380887C797F80838975
:105148008A8A827E898882928C8A89807A83838BF4
:10515800857470746C75786B757A777D75747E7AE2
:105168007B847D79837A7C807D7F7E777A7A79806B
:10517800807A7F807E7C7D8B8D87857F787C7C7034
:105188007B81807F717681888B8F887D80848B93EB
:105198008E8982848A84807F807578787078797621
:1051A800777B8687817D8383828981817E79706C14
:1051B8007A80828180807A817E7E8A8985817B7AE5
:1051C8007E807C7F75767B7D898B81848A878C8BBA
:1051D80081858580807A797F76737C7A7A7B716F16
:1051E8008084898583857B777E89929A9288878057
:1051F8007E807D8B8D8284817D848A8083887F8078
:105208008189887A77787A7D8173717F80807F83BE
:105218008A818185868A8F8B7C8186868483868233
:105228008180818A8E8C7F8183807E7B8387857F46
:105238007B767B8176737C757273797C7C7A7273EA
:105248007B837A7179797A706D6F6D6F72727A85F6
:105258008175797E83898584817F7A79808F908032
:105268008085808382818388828480878D868285F9
:105278008483868C8B8D868080868E848283807FD3
:105288007D7A7978787A7E80827F7B7E797C80814E
:10529800807F7E7777828F9794968D848683888C9B
:1052A800908C898686848087857E82808187847FAA
:1052B800777378827F7F80797C7A777B7A78777941
:1052C8007F857F787C77797C7981827C7A7A808FF8
:1052D8009087888380827D82868285838483857F88
:1052E800878A838280818982807C797A7C7C797BB9
:1052F800787B78747B767476798084847F7D7D7CF6
:105308007C757D7E797877798085837F7C7B807FCB
:10531800858682848285837D7B7E7E7C7A7A7F887F
:10532800888F8A888C888487848385847C7A726D48
:10533800737581857F7F7A7576787B7A7D797A77C0
:105348007E84808587807F7F8181827D7D80838D3B
:10535800817B7F7F817E7F8183807C7B767A787476
:105368007A7E8284888889868080848D8C8A8C83E2
:105378007C7B797D80807B7B7C82888B94968E86F3
:1053880081828282807C808386827E79737C7D8024
:1053980085888482807F7A787C7E777A7D7F7F7823
:1053A80077716D737A798087878280818A86857F15
:1053B8007C80828085898884817D848E8F928B8889
:1053C8008A88888B857C7E7D787F7F817D808180BF
:1053D8007F828684807E7D807F7F7A6D6E7070721A
:1053E8007B7E7C726D73787A7B737A8080858F92EE
:1053F8008D8A8683848984807C7D7D808183807684
:105408007F7F7D7F848180847E7C7B7D79777080BF
:105418007B7C8480837A807A8E8F8B8B8280777076
:105428007D777B7574857E988D8A85928F71858F3F
:10543800808D87818E91908A817487788087808D0E
:105448007D827D8C8A8981808F7E7D7D7C7F686B63
:10545800666E7570746B8F6783937F8A67707E88BA
:105468009189848189888E798F8D8F8A93918183A0
:105478007A807979737E83898C90829A8D968671E9
:105488006B615659525C736F79807C998F84837DE8
:105498006B50433C46605F629D8C9B9195A1A4A193
:1054A800A49C9498836D7B7C7177758970747778E8
:1054B800927B8195928E9483978C828F8F9A959404
:1054C8009495938B7C89848D838F9082889C8C8E15
:1054D8009B949189827B99849082797B777D6E7E7B
:1054E800727C7A66847879737C7F73836B717B6452
:1054F80062686E656B6F67747A706C6B7269666DE3
:1055080074756F58685A626362607074808B898E94
:10551800808A7F7F798E87A0A1988C938A69605C46
:10552800524F576E7A737E726A7A6E6D757878808C
:105538007B808972806A78726F8C7D8883768D8093
:10554800857C7B90788383A59EA4A5908E85867B99
:10555800889E8583878BAF8D9C998A8783707B868D
:10556800778A867B8E8E86816E837F8D898C9893D1
:10557800948E929B8AA680907D918E81946A9A7C63
:105588008DA0A6A29C9D9E7E96A3989A8F8DA1978A
:1055980094A39E908180809F867082857B6C808298
:1055A8008A7A7DA47F9C949484906B7677747A7DB4
:1055B8007879898E80828984786886718870736C1E
:1055C800666B72837E73667F957970867F61766974
:1055D800757B89766E917A8B777B907766807D7EF6
:1055E800686F7C54536160667A787D5C848E8778B6
:1055F8006C8C8C838A929198807F74817D676667B2
:10560800605C61686D614D516A684E56696C624AAA
:105618007062686A5761634D4B596350415D5D5FC5
:10562800655E64816A635F6B6F4556635D586A792E
:105638008B7F7196948C899B8F929C9F8F90AB8661
:105648006F8EA88685888D988690849AA0999CAA42
:10565800A89DA5A3B1929A96AB9A91989BA7ABA344
:10566800A59EB1AFA49FAFA7AFB49EA8A5A298A2CC
:10567800AE93A3A2A1A7939A96967C9195928F90A8
:10568800A19F938F91AD83888D8272798B7A808167
:10569800807383876F7E767B8E6D72698681667B69
:1056A800868B878D85A087989F809089878F997A28
:1056B8009185866B7070555965664462677C5F6139
:1056C80077636366626C796A756C7F8869787678C7
:1056D80081687270757B6E7E796A9D7C7A8E7E9108
:1056E8007C77797E8267738379768082798574780E
:1056F80075778070687574746C6B80806D7C686C6D
:10570800886F706F77856C6C84876D7C787A7C8005
:10571800727B9077668A7A817F8C79808A7F887B92
:105728008E7B878688748C83877E78838E80898138
:105738007E82807F827B7386737F848C837E938254
:10574800727D7E7B756E728181837E85817E8B7C86
:105758008C8C83897E7B837C7A757078666B7B6B97
:1057680071726E697279807E7D8382868191888D5F
:105778008C7F8B888F8889927E79707B80697B7219
:105788007B848F8B9593958F8F90989C8B978A8C21
:105798008D969091887F837C8481706E6D69627527
:1057A80069777360806B707A686C726E616A6C6D11
:1057B8006C5D5A566461645D6670656E7579757660
:1057C8006773787C79787F818082808C8B847F83F3
:1057D8008F9D9B8C908C9284838C95949387929EBA
:1057E80098958C938C85808B9592938B93979D9BA2
:1057F8008E8F9D939E93A09A99A290A5ABB1B1A5C7
:10580800ABA88F9F988C938B888E9C9B9388837D65
:105818007F807E8087928082948B938F8C888A8603
:105828007F857D807D6A72806E7470767C7D7E76E1
:105838007880777679767C807F877E8685848E905F
:105848008989878C8387837C80707971706D6C6D92
:105858006862686C726A6F5E63706769766D6C788F
:1058680062696E60786D7279736C6D73737B7E7329
:105878007E7E807A768985837B7B787B7E76757B56
:10588800746D66797A7E7D837E847E806D7B7A688E
:10589800686F797774787580817A7C748076747B88
:1058A800827A7A767580888C8E828B8B8784858CB9
:1058B80088837D79797B8376777B73726C79787A44
:1058C8007E807C8084808687848083898E837B7AAF
:1058D800727A7F7E767E807A8084868182757884EB
:1058E800868B8E88888B9687909485877B898B8A10
:1058F8008F887677797577807A766F7771758080FB
:10590800837C80828089867C817B857F808D808175
:10591800808A7F7F856E7C757B7E859A9193939F25
:105928009A9EA19C9A9198888D9091837780837B89
:10593800867A80817877787D7B796F6D71716F71E8
:105948006F6E7773797C74786A6F737B746F6E6629
:105958006E7D7A7E8781807D7E8880827F817D874B
:105968008684808D807D78808D81867F808A8A7FFD
:1059780096878D8F8A858F938E8D8A8E908986855E
:1059880081818082838E807C7F7F94929B989A9B72
:105998009C9B8DA09E96A1A0A7A0A3A69992938652
:1059A800878A80887E7F81808782817D85828483C3
:1059B80081827C7C738484807D75717B7A7376792F
:1059C8007470686A7C777C72737F817E7D8485853C
:1059D8007E85858F8783817F7E7A7A8086788478B2
:1059E8007C83747A7372716A6C647163656D6B73AE
:1059F800767571716F7676767B797B716C78738545
:105A08007D858080847A818282837B85807E7D7C8F
:105A18006E6B716F6F797C78817577777778807A1C
:105A2800808180827B7D7A767970756F6C716C7BF2
:105A3800767C807680767A807E898980807C858372
:105A480089898793938B968D9192777D7A848478D0
:105A580079717470717C7A817365798582827E83AD
:105A680085827F8386937779777D84757F7A7A7E3E
:105A7800737F888A8B777C858E948D91909B938E8B
:105A88009191958179767E7D7E8080847A727C8002
:105A980082746D6A707B7772767C7D7A85888D904A
:105AA800807E8A808A8582877E80807F91847D7EC1
:105AB800818484898E87929D9E9B9D998A8D8784F7
:105AC8007E868983807B73797C867A7D80817A80E3
